{
	"function.sol": {
		"local": {
			"abi": [
				{
					"inputs": [],
					"name": "GetPrice",
					"outputs": [
						{
							"internalType": "uint256",
							"name": "",
							"type": "uint256"
						}
					],
					"stateMutability": "view",
					"type": "function"
				},
				{
					"inputs": [
						{
							"internalType": "uint256",
							"name": "newprice",
							"type": "uint256"
						}
					],
					"name": "setPrice",
					"outputs": [],
					"stateMutability": "nonpayable",
					"type": "function"
				}
			],
			"devdoc": {
				"kind": "dev",
				"methods": {},
				"version": 1
			},
			"evm": {
				"assembly": "    /* \"function.sol\":73:303  contract local... */\n  mstore(0x40, 0x80)\n    /* \"function.sol\":107:111  1000 */\n  0x03e8\n    /* \"function.sol\":94:111  uint price = 1000 */\n  0x00\n  sstore\n    /* \"function.sol\":73:303  contract local... */\n  callvalue\n  dup1\n  iszero\n  tag_1\n  jumpi\n  0x00\n  dup1\n  revert\ntag_1:\n  pop\n  dataSize(sub_0)\n  dup1\n  dataOffset(sub_0)\n  0x00\n  codecopy\n  0x00\n  return\nstop\n\nsub_0: assembly {\n        /* \"function.sol\":73:303  contract local... */\n      mstore(0x40, 0x80)\n      callvalue\n      dup1\n      iszero\n      tag_1\n      jumpi\n      0x00\n      dup1\n      revert\n    tag_1:\n      pop\n      jumpi(tag_2, lt(calldatasize, 0x04))\n      shr(0xe0, calldataload(0x00))\n      dup1\n      0x6d90164e\n      eq\n      tag_3\n      jumpi\n      dup1\n      0x91b7f5ed\n      eq\n      tag_4\n      jumpi\n    tag_2:\n      0x00\n      dup1\n      revert\n        /* \"function.sol\":118:198  function GetPrice() public view returns(uint)... */\n    tag_3:\n      tag_5\n      tag_6\n      jump\t// in\n    tag_5:\n      mload(0x40)\n      tag_7\n      swap2\n      swap1\n      tag_8\n      jump\t// in\n    tag_7:\n      mload(0x40)\n      dup1\n      swap2\n      sub\n      swap1\n      return\n        /* \"function.sol\":205:298  function setPrice(uint newprice) public... */\n    tag_4:\n      tag_9\n      0x04\n      dup1\n      calldatasize\n      sub\n      dup2\n      add\n      swap1\n      tag_10\n      swap2\n      swap1\n      tag_11\n      jump\t// in\n    tag_10:\n      tag_12\n      jump\t// in\n    tag_9:\n      stop\n        /* \"function.sol\":118:198  function GetPrice() public view returns(uint)... */\n    tag_6:\n        /* \"function.sol\":158:162  uint */\n      0x00\n        /* \"function.sol\":185:190  price */\n      dup1\n      sload\n        /* \"function.sol\":178:190  return price */\n      swap1\n      pop\n        /* \"function.sol\":118:198  function GetPrice() public view returns(uint)... */\n      swap1\n      jump\t// out\n        /* \"function.sol\":205:298  function setPrice(uint newprice) public... */\n    tag_12:\n        /* \"function.sol\":286:290  6666 */\n      0x1a0a\n        /* \"function.sol\":283:285  10 */\n      0x0a\n        /* \"function.sol\":274:282  newprice */\n      dup3\n        /* \"function.sol\":274:285  newprice/10 */\n      tag_15\n      swap2\n      swap1\n      tag_16\n      jump\t// in\n    tag_15:\n        /* \"function.sol\":274:290  newprice/10+6666 */\n      tag_17\n      swap2\n      swap1\n      tag_18\n      jump\t// in\n    tag_17:\n        /* \"function.sol\":268:273  price */\n      0x00\n        /* \"function.sol\":268:290  price=newprice/10+6666 */\n      dup2\n      swap1\n      sstore\n      pop\n        /* \"function.sol\":205:298  function setPrice(uint newprice) public... */\n      pop\n      jump\t// out\n        /* \"#utility.yul\":7:146   */\n    tag_20:\n        /* \"#utility.yul\":53:58   */\n      0x00\n        /* \"#utility.yul\":91:97   */\n      dup2\n        /* \"#utility.yul\":78:98   */\n      calldataload\n        /* \"#utility.yul\":69:98   */\n      swap1\n      pop\n        /* \"#utility.yul\":107:140   */\n      tag_22\n        /* \"#utility.yul\":134:139   */\n      dup2\n        /* \"#utility.yul\":107:140   */\n      tag_23\n      jump\t// in\n    tag_22:\n        /* \"#utility.yul\":7:146   */\n      swap3\n      swap2\n      pop\n      pop\n      jump\t// out\n        /* \"#utility.yul\":152:481   */\n    tag_11:\n        /* \"#utility.yul\":211:217   */\n      0x00\n        /* \"#utility.yul\":260:262   */\n      0x20\n        /* \"#utility.yul\":248:257   */\n      dup3\n        /* \"#utility.yul\":239:246   */\n      dup5\n        /* \"#utility.yul\":235:258   */\n      sub\n        /* \"#utility.yul\":231:263   */\n      slt\n        /* \"#utility.yul\":228:347   */\n      iszero\n      tag_25\n      jumpi\n        /* \"#utility.yul\":266:345   */\n      tag_26\n      tag_27\n      jump\t// in\n    tag_26:\n        /* \"#utility.yul\":228:347   */\n    tag_25:\n        /* \"#utility.yul\":386:387   */\n      0x00\n        /* \"#utility.yul\":411:464   */\n      tag_28\n        /* \"#utility.yul\":456:463   */\n      dup5\n        /* \"#utility.yul\":447:453   */\n      dup3\n        /* \"#utility.yul\":436:445   */\n      dup6\n        /* \"#utility.yul\":432:454   */\n      add\n        /* \"#utility.yul\":411:464   */\n      tag_20\n      jump\t// in\n    tag_28:\n        /* \"#utility.yul\":401:464   */\n      swap2\n      pop\n        /* \"#utility.yul\":357:474   */\n      pop\n        /* \"#utility.yul\":152:481   */\n      swap3\n      swap2\n      pop\n      pop\n      jump\t// out\n        /* \"#utility.yul\":487:605   */\n    tag_29:\n        /* \"#utility.yul\":574:598   */\n      tag_31\n        /* \"#utility.yul\":592:597   */\n      dup2\n        /* \"#utility.yul\":574:598   */\n      tag_32\n      jump\t// in\n    tag_31:\n        /* \"#utility.yul\":569:572   */\n      dup3\n        /* \"#utility.yul\":562:599   */\n      mstore\n        /* \"#utility.yul\":487:605   */\n      pop\n      pop\n      jump\t// out\n        /* \"#utility.yul\":611:833   */\n    tag_8:\n        /* \"#utility.yul\":704:708   */\n      0x00\n        /* \"#utility.yul\":742:744   */\n      0x20\n        /* \"#utility.yul\":731:740   */\n      dup3\n        /* \"#utility.yul\":727:745   */\n      add\n        /* \"#utility.yul\":719:745   */\n      swap1\n      pop\n        /* \"#utility.yul\":755:826   */\n      tag_34\n        /* \"#utility.yul\":823:824   */\n      0x00\n        /* \"#utility.yul\":812:821   */\n      dup4\n        /* \"#utility.yul\":808:825   */\n      add\n        /* \"#utility.yul\":799:805   */\n      dup5\n        /* \"#utility.yul\":755:826   */\n      tag_29\n      jump\t// in\n    tag_34:\n        /* \"#utility.yul\":611:833   */\n      swap3\n      swap2\n      pop\n      pop\n      jump\t// out\n        /* \"#utility.yul\":920:1225   */\n    tag_18:\n        /* \"#utility.yul\":960:963   */\n      0x00\n        /* \"#utility.yul\":979:999   */\n      tag_38\n        /* \"#utility.yul\":997:998   */\n      dup3\n        /* \"#utility.yul\":979:999   */\n      tag_32\n      jump\t// in\n    tag_38:\n        /* \"#utility.yul\":974:999   */\n      swap2\n      pop\n        /* \"#utility.yul\":1013:1033   */\n      tag_39\n        /* \"#utility.yul\":1031:1032   */\n      dup4\n        /* \"#utility.yul\":1013:1033   */\n      tag_32\n      jump\t// in\n    tag_39:\n        /* \"#utility.yul\":1008:1033   */\n      swap3\n      pop\n        /* \"#utility.yul\":1167:1168   */\n      dup3\n        /* \"#utility.yul\":1099:1165   */\n      0xffffffffffffffffffffffffffffffffffffffffffffffffffffffffffffffff\n        /* \"#utility.yul\":1095:1169   */\n      sub\n        /* \"#utility.yul\":1092:1093   */\n      dup3\n        /* \"#utility.yul\":1089:1170   */\n      gt\n        /* \"#utility.yul\":1086:1193   */\n      iszero\n      tag_40\n      jumpi\n        /* \"#utility.yul\":1173:1191   */\n      tag_41\n      tag_42\n      jump\t// in\n    tag_41:\n        /* \"#utility.yul\":1086:1193   */\n    tag_40:\n        /* \"#utility.yul\":1217:1218   */\n      dup3\n        /* \"#utility.yul\":1214:1215   */\n      dup3\n        /* \"#utility.yul\":1210:1219   */\n      add\n        /* \"#utility.yul\":1203:1219   */\n      swap1\n      pop\n        /* \"#utility.yul\":920:1225   */\n      swap3\n      swap2\n      pop\n      pop\n      jump\t// out\n        /* \"#utility.yul\":1231:1416   */\n    tag_16:\n        /* \"#utility.yul\":1271:1272   */\n      0x00\n        /* \"#utility.yul\":1288:1308   */\n      tag_44\n        /* \"#utility.yul\":1306:1307   */\n      dup3\n        /* \"#utility.yul\":1288:1308   */\n      tag_32\n      jump\t// in\n    tag_44:\n        /* \"#utility.yul\":1283:1308   */\n      swap2\n      pop\n        /* \"#utility.yul\":1322:1342   */\n      tag_45\n        /* \"#utility.yul\":1340:1341   */\n      dup4\n        /* \"#utility.yul\":1322:1342   */\n      tag_32\n      jump\t// in\n    tag_45:\n        /* \"#utility.yul\":1317:1342   */\n      swap3\n      pop\n        /* \"#utility.yul\":1361:1362   */\n      dup3\n        /* \"#utility.yul\":1351:1386   */\n      tag_46\n      jumpi\n        /* \"#utility.yul\":1366:1384   */\n      tag_47\n      tag_48\n      jump\t// in\n    tag_47:\n        /* \"#utility.yul\":1351:1386   */\n    tag_46:\n        /* \"#utility.yul\":1408:1409   */\n      dup3\n        /* \"#utility.yul\":1405:1406   */\n      dup3\n        /* \"#utility.yul\":1401:1410   */\n      div\n        /* \"#utility.yul\":1396:1410   */\n      swap1\n      pop\n        /* \"#utility.yul\":1231:1416   */\n      swap3\n      swap2\n      pop\n      pop\n      jump\t// out\n        /* \"#utility.yul\":1422:1499   */\n    tag_32:\n        /* \"#utility.yul\":1459:1466   */\n      0x00\n        /* \"#utility.yul\":1488:1493   */\n      dup2\n        /* \"#utility.yul\":1477:1493   */\n      swap1\n      pop\n        /* \"#utility.yul\":1422:1499   */\n      swap2\n      swap1\n      pop\n      jump\t// out\n        /* \"#utility.yul\":1505:1685   */\n    tag_42:\n        /* \"#utility.yul\":1553:1630   */\n      0x4e487b7100000000000000000000000000000000000000000000000000000000\n        /* \"#utility.yul\":1550:1551   */\n      0x00\n        /* \"#utility.yul\":1543:1631   */\n      mstore\n        /* \"#utility.yul\":1650:1654   */\n      0x11\n        /* \"#utility.yul\":1647:1648   */\n      0x04\n        /* \"#utility.yul\":1640:1655   */\n      mstore\n        /* \"#utility.yul\":1674:1678   */\n      0x24\n        /* \"#utility.yul\":1671:1672   */\n      0x00\n        /* \"#utility.yul\":1664:1679   */\n      revert\n        /* \"#utility.yul\":1691:1871   */\n    tag_48:\n        /* \"#utility.yul\":1739:1816   */\n      0x4e487b7100000000000000000000000000000000000000000000000000000000\n        /* \"#utility.yul\":1736:1737   */\n      0x00\n        /* \"#utility.yul\":1729:1817   */\n      mstore\n        /* \"#utility.yul\":1836:1840   */\n      0x12\n        /* \"#utility.yul\":1833:1834   */\n      0x04\n        /* \"#utility.yul\":1826:1841   */\n      mstore\n        /* \"#utility.yul\":1860:1864   */\n      0x24\n        /* \"#utility.yul\":1857:1858   */\n      0x00\n        /* \"#utility.yul\":1850:1865   */\n      revert\n        /* \"#utility.yul\":2000:2117   */\n    tag_27:\n        /* \"#utility.yul\":2109:2110   */\n      0x00\n        /* \"#utility.yul\":2106:2107   */\n      dup1\n        /* \"#utility.yul\":2099:2111   */\n      revert\n        /* \"#utility.yul\":2123:2245   */\n    tag_23:\n        /* \"#utility.yul\":2196:2220   */\n      tag_56\n        /* \"#utility.yul\":2214:2219   */\n      dup2\n        /* \"#utility.yul\":2196:2220   */\n      tag_32\n      jump\t// in\n    tag_56:\n        /* \"#utility.yul\":2189:2194   */\n      dup2\n        /* \"#utility.yul\":2186:2221   */\n      eq\n        /* \"#utility.yul\":2176:2239   */\n      tag_57\n      jumpi\n        /* \"#utility.yul\":2235:2236   */\n      0x00\n        /* \"#utility.yul\":2232:2233   */\n      dup1\n        /* \"#utility.yul\":2225:2237   */\n      revert\n        /* \"#utility.yul\":2176:2239   */\n    tag_57:\n        /* \"#utility.yul\":2123:2245   */\n      pop\n      jump\t// out\n\n    auxdata: 0xa2646970667358221220fc959d221780cb7a82c2e71f69e8899acfa5d0cde129bdea298b0a4828eef4f864736f6c63430008070033\n}\n",
				"bytecode": {
					"linkReferences": {},
					"object": "60806040526103e860005534801561001657600080fd5b5061024e806100266000396000f3fe608060405234801561001057600080fd5b50600436106100365760003560e01c80636d90164e1461003b57806391b7f5ed14610059575b600080fd5b610043610075565b60405161005091906100f2565b60405180910390f35b610073600480360381019061006e91906100b6565b61007e565b005b60008054905090565b611a0a600a8261008e9190610163565b610098919061010d565b60008190555050565b6000813590506100b081610201565b92915050565b6000602082840312156100cc576100cb6101fc565b5b60006100da848285016100a1565b91505092915050565b6100ec81610194565b82525050565b600060208201905061010760008301846100e3565b92915050565b600061011882610194565b915061012383610194565b9250827fffffffffffffffffffffffffffffffffffffffffffffffffffffffffffffffff038211156101585761015761019e565b5b828201905092915050565b600061016e82610194565b915061017983610194565b925082610189576101886101cd565b5b828204905092915050565b6000819050919050565b7f4e487b7100000000000000000000000000000000000000000000000000000000600052601160045260246000fd5b7f4e487b7100000000000000000000000000000000000000000000000000000000600052601260045260246000fd5b600080fd5b61020a81610194565b811461021557600080fd5b5056fea2646970667358221220fc959d221780cb7a82c2e71f69e8899acfa5d0cde129bdea298b0a4828eef4f864736f6c63430008070033",
					"opcodes": "PUSH1 0x80 PUSH1 0x40 MSTORE PUSH2 0x3E8 PUSH1 0x0 SSTORE CALLVALUE DUP1 ISZERO PUSH2 0x16 JUMPI PUSH1 0x0 DUP1 REVERT JUMPDEST POP PUSH2 0x24E DUP1 PUSH2 0x26 PUSH1 0x0 CODECOPY PUSH1 0x0 RETURN INVALID PUSH1 0x80 PUSH1 0x40 MSTORE CALLVALUE DUP1 ISZERO PUSH2 0x10 JUMPI PUSH1 0x0 DUP1 REVERT JUMPDEST POP PUSH1 0x4 CALLDATASIZE LT PUSH2 0x36 JUMPI PUSH1 0x0 CALLDATALOAD PUSH1 0xE0 SHR DUP1 PUSH4 0x6D90164E EQ PUSH2 0x3B JUMPI DUP1 PUSH4 0x91B7F5ED EQ PUSH2 0x59 JUMPI JUMPDEST PUSH1 0x0 DUP1 REVERT JUMPDEST PUSH2 0x43 PUSH2 0x75 JUMP JUMPDEST PUSH1 0x40 MLOAD PUSH2 0x50 SWAP2 SWAP1 PUSH2 0xF2 JUMP JUMPDEST PUSH1 0x40 MLOAD DUP1 SWAP2 SUB SWAP1 RETURN JUMPDEST PUSH2 0x73 PUSH1 0x4 DUP1 CALLDATASIZE SUB DUP2 ADD SWAP1 PUSH2 0x6E SWAP2 SWAP1 PUSH2 0xB6 JUMP JUMPDEST PUSH2 0x7E JUMP JUMPDEST STOP JUMPDEST PUSH1 0x0 DUP1 SLOAD SWAP1 POP SWAP1 JUMP JUMPDEST PUSH2 0x1A0A PUSH1 0xA DUP3 PUSH2 0x8E SWAP2 SWAP1 PUSH2 0x163 JUMP JUMPDEST PUSH2 0x98 SWAP2 SWAP1 PUSH2 0x10D JUMP JUMPDEST PUSH1 0x0 DUP2 SWAP1 SSTORE POP POP JUMP JUMPDEST PUSH1 0x0 DUP2 CALLDATALOAD SWAP1 POP PUSH2 0xB0 DUP2 PUSH2 0x201 JUMP JUMPDEST SWAP3 SWAP2 POP POP JUMP JUMPDEST PUSH1 0x0 PUSH1 0x20 DUP3 DUP5 SUB SLT ISZERO PUSH2 0xCC JUMPI PUSH2 0xCB PUSH2 0x1FC JUMP JUMPDEST JUMPDEST PUSH1 0x0 PUSH2 0xDA DUP5 DUP3 DUP6 ADD PUSH2 0xA1 JUMP JUMPDEST SWAP2 POP POP SWAP3 SWAP2 POP POP JUMP JUMPDEST PUSH2 0xEC DUP2 PUSH2 0x194 JUMP JUMPDEST DUP3 MSTORE POP POP JUMP JUMPDEST PUSH1 0x0 PUSH1 0x20 DUP3 ADD SWAP1 POP PUSH2 0x107 PUSH1 0x0 DUP4 ADD DUP5 PUSH2 0xE3 JUMP JUMPDEST SWAP3 SWAP2 POP POP JUMP JUMPDEST PUSH1 0x0 PUSH2 0x118 DUP3 PUSH2 0x194 JUMP JUMPDEST SWAP2 POP PUSH2 0x123 DUP4 PUSH2 0x194 JUMP JUMPDEST SWAP3 POP DUP3 PUSH32 0xFFFFFFFFFFFFFFFFFFFFFFFFFFFFFFFFFFFFFFFFFFFFFFFFFFFFFFFFFFFFFFFF SUB DUP3 GT ISZERO PUSH2 0x158 JUMPI PUSH2 0x157 PUSH2 0x19E JUMP JUMPDEST JUMPDEST DUP3 DUP3 ADD SWAP1 POP SWAP3 SWAP2 POP POP JUMP JUMPDEST PUSH1 0x0 PUSH2 0x16E DUP3 PUSH2 0x194 JUMP JUMPDEST SWAP2 POP PUSH2 0x179 DUP4 PUSH2 0x194 JUMP JUMPDEST SWAP3 POP DUP3 PUSH2 0x189 JUMPI PUSH2 0x188 PUSH2 0x1CD JUMP JUMPDEST JUMPDEST DUP3 DUP3 DIV SWAP1 POP SWAP3 SWAP2 POP POP JUMP JUMPDEST PUSH1 0x0 DUP2 SWAP1 POP SWAP2 SWAP1 POP JUMP JUMPDEST PUSH32 0x4E487B7100000000000000000000000000000000000000000000000000000000 PUSH1 0x0 MSTORE PUSH1 0x11 PUSH1 0x4 MSTORE PUSH1 0x24 PUSH1 0x0 REVERT JUMPDEST PUSH32 0x4E487B7100000000000000000000000000000000000000000000000000000000 PUSH1 0x0 MSTORE PUSH1 0x12 PUSH1 0x4 MSTORE PUSH1 0x24 PUSH1 0x0 REVERT JUMPDEST PUSH1 0x0 DUP1 REVERT JUMPDEST PUSH2 0x20A DUP2 PUSH2 0x194 JUMP JUMPDEST DUP2 EQ PUSH2 0x215 JUMPI PUSH1 0x0 DUP1 REVERT JUMPDEST POP JUMP INVALID LOG2 PUSH5 0x6970667358 0x22 SLT KECCAK256 0xFC SWAP6 SWAP14 0x22 OR DUP1 0xCB PUSH27 0x82C2E71F69E8899ACFA5D0CDE129BDEA298B0A4828EEF4F864736F PUSH13 0x63430008070033000000000000 "
				},
				"gasEstimates": {
					"creation": {
						"codeDepositCost": "118000",
						"executionCost": "22271",
						"totalCost": "140271"
					},
					"external": {
						"GetPrice()": "2415",
						"setPrice(uint256)": "infinite"
					}
				},
				"methodIdentifiers": {
					"GetPrice()": "6d90164e",
					"setPrice(uint256)": "91b7f5ed"
				}
			},
			"storageLayout": {
				"storage": [
					{
						"astId": 4,
						"contract": "function.sol:local",
						"label": "price",
						"offset": 0,
						"slot": "0",
						"type": "t_uint256"
					}
				],
				"types": {
					"t_uint256": {
						"encoding": "inplace",
						"label": "uint256",
						"numberOfBytes": "32"
					}
				}
			},
			"userdoc": {
				"kind": "user",
				"methods": {},
				"version": 1
			}
		}
	}
}