{
	"function.sol": {
		"local": {
			"abi": [
				{
					"inputs": [],
					"name": "GetPrice",
					"outputs": [
						{
							"internalType": "uint256",
							"name": "",
							"type": "uint256"
						}
					],
					"stateMutability": "view",
					"type": "function"
				},
				{
					"inputs": [],
					"name": "price",
					"outputs": [
						{
							"internalType": "uint256",
							"name": "",
							"type": "uint256"
						}
					],
					"stateMutability": "view",
					"type": "function"
				},
				{
					"inputs": [
						{
							"internalType": "uint256",
							"name": "newprice",
							"type": "uint256"
						}
					],
					"name": "setPrice",
					"outputs": [],
					"stateMutability": "nonpayable",
					"type": "function"
				}
			],
			"devdoc": {
				"kind": "dev",
				"methods": {},
				"version": 1
			},
			"evm": {
				"assembly": "    /* \"function.sol\":73:303  contract local... */\n  mstore(0x40, 0x80)\n    /* \"function.sol\":114:116  10 */\n  0x0a\n    /* \"function.sol\":94:116  uint public price = 10 */\n  0x00\n  sstore\n    /* \"function.sol\":73:303  contract local... */\n  callvalue\n  dup1\n  iszero\n  tag_1\n  jumpi\n  0x00\n  dup1\n  revert\ntag_1:\n  pop\n  dataSize(sub_0)\n  dup1\n  dataOffset(sub_0)\n  0x00\n  codecopy\n  0x00\n  return\nstop\n\nsub_0: assembly {\n        /* \"function.sol\":73:303  contract local... */\n      mstore(0x40, 0x80)\n      callvalue\n      dup1\n      iszero\n      tag_1\n      jumpi\n      0x00\n      dup1\n      revert\n    tag_1:\n      pop\n      jumpi(tag_2, lt(calldatasize, 0x04))\n      shr(0xe0, calldataload(0x00))\n      dup1\n      0x6d90164e\n      eq\n      tag_3\n      jumpi\n      dup1\n      0x91b7f5ed\n      eq\n      tag_4\n      jumpi\n      dup1\n      0xa035b1fe\n      eq\n      tag_5\n      jumpi\n    tag_2:\n      0x00\n      dup1\n      revert\n        /* \"function.sol\":123:203  function GetPrice() public view returns(uint)... */\n    tag_3:\n      tag_6\n      tag_7\n      jump\t// in\n    tag_6:\n      mload(0x40)\n      tag_8\n      swap2\n      swap1\n      tag_9\n      jump\t// in\n    tag_8:\n      mload(0x40)\n      dup1\n      swap2\n      sub\n      swap1\n      return\n        /* \"function.sol\":210:298  function setPrice(uint newprice) public... */\n    tag_4:\n      tag_10\n      0x04\n      dup1\n      calldatasize\n      sub\n      dup2\n      add\n      swap1\n      tag_11\n      swap2\n      swap1\n      tag_12\n      jump\t// in\n    tag_11:\n      tag_13\n      jump\t// in\n    tag_10:\n      stop\n        /* \"function.sol\":94:116  uint public price = 10 */\n    tag_5:\n      tag_14\n      tag_15\n      jump\t// in\n    tag_14:\n      mload(0x40)\n      tag_16\n      swap2\n      swap1\n      tag_9\n      jump\t// in\n    tag_16:\n      mload(0x40)\n      dup1\n      swap2\n      sub\n      swap1\n      return\n        /* \"function.sol\":123:203  function GetPrice() public view returns(uint)... */\n    tag_7:\n        /* \"function.sol\":163:167  uint */\n      0x00\n        /* \"function.sol\":190:195  price */\n      dup1\n      sload\n        /* \"function.sol\":183:195  return price */\n      swap1\n      pop\n        /* \"function.sol\":123:203  function GetPrice() public view returns(uint)... */\n      swap1\n      jump\t// out\n        /* \"function.sol\":210:298  function setPrice(uint newprice) public... */\n    tag_13:\n        /* \"function.sol\":288:290  10 */\n      0x0a\n        /* \"function.sol\":279:287  newprice */\n      dup2\n        /* \"function.sol\":279:290  newprice/10 */\n      tag_19\n      swap2\n      swap1\n      tag_20\n      jump\t// in\n    tag_19:\n        /* \"function.sol\":273:278  price */\n      0x00\n        /* \"function.sol\":273:290  price=newprice/10 */\n      dup2\n      swap1\n      sstore\n      pop\n        /* \"function.sol\":210:298  function setPrice(uint newprice) public... */\n      pop\n      jump\t// out\n        /* \"function.sol\":94:116  uint public price = 10 */\n    tag_15:\n      sload(0x00)\n      dup2\n      jump\t// out\n        /* \"#utility.yul\":7:146   */\n    tag_22:\n        /* \"#utility.yul\":53:58   */\n      0x00\n        /* \"#utility.yul\":91:97   */\n      dup2\n        /* \"#utility.yul\":78:98   */\n      calldataload\n        /* \"#utility.yul\":69:98   */\n      swap1\n      pop\n        /* \"#utility.yul\":107:140   */\n      tag_24\n        /* \"#utility.yul\":134:139   */\n      dup2\n        /* \"#utility.yul\":107:140   */\n      tag_25\n      jump\t// in\n    tag_24:\n        /* \"#utility.yul\":7:146   */\n      swap3\n      swap2\n      pop\n      pop\n      jump\t// out\n        /* \"#utility.yul\":152:481   */\n    tag_12:\n        /* \"#utility.yul\":211:217   */\n      0x00\n        /* \"#utility.yul\":260:262   */\n      0x20\n        /* \"#utility.yul\":248:257   */\n      dup3\n        /* \"#utility.yul\":239:246   */\n      dup5\n        /* \"#utility.yul\":235:258   */\n      sub\n        /* \"#utility.yul\":231:263   */\n      slt\n        /* \"#utility.yul\":228:347   */\n      iszero\n      tag_27\n      jumpi\n        /* \"#utility.yul\":266:345   */\n      tag_28\n      tag_29\n      jump\t// in\n    tag_28:\n        /* \"#utility.yul\":228:347   */\n    tag_27:\n        /* \"#utility.yul\":386:387   */\n      0x00\n        /* \"#utility.yul\":411:464   */\n      tag_30\n        /* \"#utility.yul\":456:463   */\n      dup5\n        /* \"#utility.yul\":447:453   */\n      dup3\n        /* \"#utility.yul\":436:445   */\n      dup6\n        /* \"#utility.yul\":432:454   */\n      add\n        /* \"#utility.yul\":411:464   */\n      tag_22\n      jump\t// in\n    tag_30:\n        /* \"#utility.yul\":401:464   */\n      swap2\n      pop\n        /* \"#utility.yul\":357:474   */\n      pop\n        /* \"#utility.yul\":152:481   */\n      swap3\n      swap2\n      pop\n      pop\n      jump\t// out\n        /* \"#utility.yul\":487:605   */\n    tag_31:\n        /* \"#utility.yul\":574:598   */\n      tag_33\n        /* \"#utility.yul\":592:597   */\n      dup2\n        /* \"#utility.yul\":574:598   */\n      tag_34\n      jump\t// in\n    tag_33:\n        /* \"#utility.yul\":569:572   */\n      dup3\n        /* \"#utility.yul\":562:599   */\n      mstore\n        /* \"#utility.yul\":487:605   */\n      pop\n      pop\n      jump\t// out\n        /* \"#utility.yul\":611:833   */\n    tag_9:\n        /* \"#utility.yul\":704:708   */\n      0x00\n        /* \"#utility.yul\":742:744   */\n      0x20\n        /* \"#utility.yul\":731:740   */\n      dup3\n        /* \"#utility.yul\":727:745   */\n      add\n        /* \"#utility.yul\":719:745   */\n      swap1\n      pop\n        /* \"#utility.yul\":755:826   */\n      tag_36\n        /* \"#utility.yul\":823:824   */\n      0x00\n        /* \"#utility.yul\":812:821   */\n      dup4\n        /* \"#utility.yul\":808:825   */\n      add\n        /* \"#utility.yul\":799:805   */\n      dup5\n        /* \"#utility.yul\":755:826   */\n      tag_31\n      jump\t// in\n    tag_36:\n        /* \"#utility.yul\":611:833   */\n      swap3\n      swap2\n      pop\n      pop\n      jump\t// out\n        /* \"#utility.yul\":920:1105   */\n    tag_20:\n        /* \"#utility.yul\":960:961   */\n      0x00\n        /* \"#utility.yul\":977:997   */\n      tag_40\n        /* \"#utility.yul\":995:996   */\n      dup3\n        /* \"#utility.yul\":977:997   */\n      tag_34\n      jump\t// in\n    tag_40:\n        /* \"#utility.yul\":972:997   */\n      swap2\n      pop\n        /* \"#utility.yul\":1011:1031   */\n      tag_41\n        /* \"#utility.yul\":1029:1030   */\n      dup4\n        /* \"#utility.yul\":1011:1031   */\n      tag_34\n      jump\t// in\n    tag_41:\n        /* \"#utility.yul\":1006:1031   */\n      swap3\n      pop\n        /* \"#utility.yul\":1050:1051   */\n      dup3\n        /* \"#utility.yul\":1040:1075   */\n      tag_42\n      jumpi\n        /* \"#utility.yul\":1055:1073   */\n      tag_43\n      tag_44\n      jump\t// in\n    tag_43:\n        /* \"#utility.yul\":1040:1075   */\n    tag_42:\n        /* \"#utility.yul\":1097:1098   */\n      dup3\n        /* \"#utility.yul\":1094:1095   */\n      dup3\n        /* \"#utility.yul\":1090:1099   */\n      div\n        /* \"#utility.yul\":1085:1099   */\n      swap1\n      pop\n        /* \"#utility.yul\":920:1105   */\n      swap3\n      swap2\n      pop\n      pop\n      jump\t// out\n        /* \"#utility.yul\":1111:1188   */\n    tag_34:\n        /* \"#utility.yul\":1148:1155   */\n      0x00\n        /* \"#utility.yul\":1177:1182   */\n      dup2\n        /* \"#utility.yul\":1166:1182   */\n      swap1\n      pop\n        /* \"#utility.yul\":1111:1188   */\n      swap2\n      swap1\n      pop\n      jump\t// out\n        /* \"#utility.yul\":1380:1560   */\n    tag_44:\n        /* \"#utility.yul\":1428:1505   */\n      0x4e487b7100000000000000000000000000000000000000000000000000000000\n        /* \"#utility.yul\":1425:1426   */\n      0x00\n        /* \"#utility.yul\":1418:1506   */\n      mstore\n        /* \"#utility.yul\":1525:1529   */\n      0x12\n        /* \"#utility.yul\":1522:1523   */\n      0x04\n        /* \"#utility.yul\":1515:1530   */\n      mstore\n        /* \"#utility.yul\":1549:1553   */\n      0x24\n        /* \"#utility.yul\":1546:1547   */\n      0x00\n        /* \"#utility.yul\":1539:1554   */\n      revert\n        /* \"#utility.yul\":1689:1806   */\n    tag_29:\n        /* \"#utility.yul\":1798:1799   */\n      0x00\n        /* \"#utility.yul\":1795:1796   */\n      dup1\n        /* \"#utility.yul\":1788:1800   */\n      revert\n        /* \"#utility.yul\":1812:1934   */\n    tag_25:\n        /* \"#utility.yul\":1885:1909   */\n      tag_53\n        /* \"#utility.yul\":1903:1908   */\n      dup2\n        /* \"#utility.yul\":1885:1909   */\n      tag_34\n      jump\t// in\n    tag_53:\n        /* \"#utility.yul\":1878:1883   */\n      dup2\n        /* \"#utility.yul\":1875:1910   */\n      eq\n        /* \"#utility.yul\":1865:1928   */\n      tag_54\n      jumpi\n        /* \"#utility.yul\":1924:1925   */\n      0x00\n        /* \"#utility.yul\":1921:1922   */\n      dup1\n        /* \"#utility.yul\":1914:1926   */\n      revert\n        /* \"#utility.yul\":1865:1928   */\n    tag_54:\n        /* \"#utility.yul\":1812:1934   */\n      pop\n      jump\t// out\n\n    auxdata: 0xa26469706673582212209df815ddf8291fbe7b04d216dda54a0e43af0210cec002cad980462cf6d3b5d764736f6c63430008070033\n}\n",
				"bytecode": {
					"linkReferences": {},
					"object": "6080604052600a60005534801561001557600080fd5b506101eb806100256000396000f3fe608060405234801561001057600080fd5b50600436106100415760003560e01c80636d90164e1461004657806391b7f5ed14610064578063a035b1fe14610080575b600080fd5b61004e61009e565b60405161005b9190610114565b60405180910390f35b61007e600480360381019061007991906100d8565b6100a7565b005b6100886100bd565b6040516100959190610114565b60405180910390f35b60008054905090565b600a816100b4919061012f565b60008190555050565b60005481565b6000813590506100d28161019e565b92915050565b6000602082840312156100ee576100ed610199565b5b60006100fc848285016100c3565b91505092915050565b61010e81610160565b82525050565b60006020820190506101296000830184610105565b92915050565b600061013a82610160565b915061014583610160565b9250826101555761015461016a565b5b828204905092915050565b6000819050919050565b7f4e487b7100000000000000000000000000000000000000000000000000000000600052601260045260246000fd5b600080fd5b6101a781610160565b81146101b257600080fd5b5056fea26469706673582212209df815ddf8291fbe7b04d216dda54a0e43af0210cec002cad980462cf6d3b5d764736f6c63430008070033",
					"opcodes": "PUSH1 0x80 PUSH1 0x40 MSTORE PUSH1 0xA PUSH1 0x0 SSTORE CALLVALUE DUP1 ISZERO PUSH2 0x15 JUMPI PUSH1 0x0 DUP1 REVERT JUMPDEST POP PUSH2 0x1EB DUP1 PUSH2 0x25 PUSH1 0x0 CODECOPY PUSH1 0x0 RETURN INVALID PUSH1 0x80 PUSH1 0x40 MSTORE CALLVALUE DUP1 ISZERO PUSH2 0x10 JUMPI PUSH1 0x0 DUP1 REVERT JUMPDEST POP PUSH1 0x4 CALLDATASIZE LT PUSH2 0x41 JUMPI PUSH1 0x0 CALLDATALOAD PUSH1 0xE0 SHR DUP1 PUSH4 0x6D90164E EQ PUSH2 0x46 JUMPI DUP1 PUSH4 0x91B7F5ED EQ PUSH2 0x64 JUMPI DUP1 PUSH4 0xA035B1FE EQ PUSH2 0x80 JUMPI JUMPDEST PUSH1 0x0 DUP1 REVERT JUMPDEST PUSH2 0x4E PUSH2 0x9E JUMP JUMPDEST PUSH1 0x40 MLOAD PUSH2 0x5B SWAP2 SWAP1 PUSH2 0x114 JUMP JUMPDEST PUSH1 0x40 MLOAD DUP1 SWAP2 SUB SWAP1 RETURN JUMPDEST PUSH2 0x7E PUSH1 0x4 DUP1 CALLDATASIZE SUB DUP2 ADD SWAP1 PUSH2 0x79 SWAP2 SWAP1 PUSH2 0xD8 JUMP JUMPDEST PUSH2 0xA7 JUMP JUMPDEST STOP JUMPDEST PUSH2 0x88 PUSH2 0xBD JUMP JUMPDEST PUSH1 0x40 MLOAD PUSH2 0x95 SWAP2 SWAP1 PUSH2 0x114 JUMP JUMPDEST PUSH1 0x40 MLOAD DUP1 SWAP2 SUB SWAP1 RETURN JUMPDEST PUSH1 0x0 DUP1 SLOAD SWAP1 POP SWAP1 JUMP JUMPDEST PUSH1 0xA DUP2 PUSH2 0xB4 SWAP2 SWAP1 PUSH2 0x12F JUMP JUMPDEST PUSH1 0x0 DUP2 SWAP1 SSTORE POP POP JUMP JUMPDEST PUSH1 0x0 SLOAD DUP2 JUMP JUMPDEST PUSH1 0x0 DUP2 CALLDATALOAD SWAP1 POP PUSH2 0xD2 DUP2 PUSH2 0x19E JUMP JUMPDEST SWAP3 SWAP2 POP POP JUMP JUMPDEST PUSH1 0x0 PUSH1 0x20 DUP3 DUP5 SUB SLT ISZERO PUSH2 0xEE JUMPI PUSH2 0xED PUSH2 0x199 JUMP JUMPDEST JUMPDEST PUSH1 0x0 PUSH2 0xFC DUP5 DUP3 DUP6 ADD PUSH2 0xC3 JUMP JUMPDEST SWAP2 POP POP SWAP3 SWAP2 POP POP JUMP JUMPDEST PUSH2 0x10E DUP2 PUSH2 0x160 JUMP JUMPDEST DUP3 MSTORE POP POP JUMP JUMPDEST PUSH1 0x0 PUSH1 0x20 DUP3 ADD SWAP1 POP PUSH2 0x129 PUSH1 0x0 DUP4 ADD DUP5 PUSH2 0x105 JUMP JUMPDEST SWAP3 SWAP2 POP POP JUMP JUMPDEST PUSH1 0x0 PUSH2 0x13A DUP3 PUSH2 0x160 JUMP JUMPDEST SWAP2 POP PUSH2 0x145 DUP4 PUSH2 0x160 JUMP JUMPDEST SWAP3 POP DUP3 PUSH2 0x155 JUMPI PUSH2 0x154 PUSH2 0x16A JUMP JUMPDEST JUMPDEST DUP3 DUP3 DIV SWAP1 POP SWAP3 SWAP2 POP POP JUMP JUMPDEST PUSH1 0x0 DUP2 SWAP1 POP SWAP2 SWAP1 POP JUMP JUMPDEST PUSH32 0x4E487B7100000000000000000000000000000000000000000000000000000000 PUSH1 0x0 MSTORE PUSH1 0x12 PUSH1 0x4 MSTORE PUSH1 0x24 PUSH1 0x0 REVERT JUMPDEST PUSH1 0x0 DUP1 REVERT JUMPDEST PUSH2 0x1A7 DUP2 PUSH2 0x160 JUMP JUMPDEST DUP2 EQ PUSH2 0x1B2 JUMPI PUSH1 0x0 DUP1 REVERT JUMPDEST POP JUMP INVALID LOG2 PUSH5 0x6970667358 0x22 SLT KECCAK256 SWAP14 0xF8 ISZERO 0xDD 0xF8 0x29 0x1F 0xBE PUSH28 0x4D216DDA54A0E43AF0210CEC002CAD980462CF6D3B5D764736F6C63 NUMBER STOP ADDMOD SMOD STOP CALLER "
				},
				"gasEstimates": {
					"creation": {
						"codeDepositCost": "98200",
						"executionCost": "22253",
						"totalCost": "120453"
					},
					"external": {
						"GetPrice()": "2415",
						"price()": "2451",
						"setPrice(uint256)": "infinite"
					}
				},
				"methodIdentifiers": {
					"GetPrice()": "6d90164e",
					"price()": "a035b1fe",
					"setPrice(uint256)": "91b7f5ed"
				}
			},
			"storageLayout": {
				"storage": [
					{
						"astId": 4,
						"contract": "function.sol:local",
						"label": "price",
						"offset": 0,
						"slot": "0",
						"type": "t_uint256"
					}
				],
				"types": {
					"t_uint256": {
						"encoding": "inplace",
						"label": "uint256",
						"numberOfBytes": "32"
					}
				}
			},
			"userdoc": {
				"kind": "user",
				"methods": {},
				"version": 1
			}
		}
	}
}