{
	"function.sol": {
		"local": {
			"abi": [
				{
					"inputs": [],
					"name": "GetPrice",
					"outputs": [
						{
							"internalType": "uint256",
							"name": "",
							"type": "uint256"
						}
					],
					"stateMutability": "view",
					"type": "function"
				},
				{
					"inputs": [
						{
							"internalType": "uint256",
							"name": "newprice",
							"type": "uint256"
						}
					],
					"name": "setPrice",
					"outputs": [
						{
							"internalType": "uint256",
							"name": "",
							"type": "uint256"
						}
					],
					"stateMutability": "nonpayable",
					"type": "function"
				}
			],
			"devdoc": {
				"kind": "dev",
				"methods": {},
				"version": 1
			},
			"evm": {
				"assembly": "    /* \"function.sol\":73:317  contract local... */\n  mstore(0x40, 0x80)\n    /* \"function.sol\":107:111  1000 */\n  0x03e8\n    /* \"function.sol\":94:111  uint price = 1000 */\n  0x00\n  sstore\n    /* \"function.sol\":73:317  contract local... */\n  callvalue\n  dup1\n  iszero\n  tag_1\n  jumpi\n  0x00\n  dup1\n  revert\ntag_1:\n  pop\n  dataSize(sub_0)\n  dup1\n  dataOffset(sub_0)\n  0x00\n  codecopy\n  0x00\n  return\nstop\n\nsub_0: assembly {\n        /* \"function.sol\":73:317  contract local... */\n      mstore(0x40, 0x80)\n      callvalue\n      dup1\n      iszero\n      tag_1\n      jumpi\n      0x00\n      dup1\n      revert\n    tag_1:\n      pop\n      jumpi(tag_2, lt(calldatasize, 0x04))\n      shr(0xe0, calldataload(0x00))\n      dup1\n      0x6d90164e\n      eq\n      tag_3\n      jumpi\n      dup1\n      0x91b7f5ed\n      eq\n      tag_4\n      jumpi\n    tag_2:\n      0x00\n      dup1\n      revert\n        /* \"function.sol\":118:198  function GetPrice() public view returns(uint)... */\n    tag_3:\n      tag_5\n      tag_6\n      jump\t// in\n    tag_5:\n      mload(0x40)\n      tag_7\n      swap2\n      swap1\n      tag_8\n      jump\t// in\n    tag_7:\n      mload(0x40)\n      dup1\n      swap2\n      sub\n      swap1\n      return\n        /* \"function.sol\":205:312  function setPrice(uint newprice) public returns(uint)... */\n    tag_4:\n      tag_9\n      0x04\n      dup1\n      calldatasize\n      sub\n      dup2\n      add\n      swap1\n      tag_10\n      swap2\n      swap1\n      tag_11\n      jump\t// in\n    tag_10:\n      tag_12\n      jump\t// in\n    tag_9:\n      mload(0x40)\n      tag_13\n      swap2\n      swap1\n      tag_8\n      jump\t// in\n    tag_13:\n      mload(0x40)\n      dup1\n      swap2\n      sub\n      swap1\n      return\n        /* \"function.sol\":118:198  function GetPrice() public view returns(uint)... */\n    tag_6:\n        /* \"function.sol\":158:162  uint */\n      0x00\n        /* \"function.sol\":185:190  price */\n      dup1\n      sload\n        /* \"function.sol\":178:190  return price */\n      swap1\n      pop\n        /* \"function.sol\":118:198  function GetPrice() public view returns(uint)... */\n      swap1\n      jump\t// out\n        /* \"function.sol\":205:312  function setPrice(uint newprice) public returns(uint)... */\n    tag_12:\n        /* \"function.sol\":253:257  uint */\n      0x00\n        /* \"function.sol\":300:304  6666 */\n      0x1a0a\n        /* \"function.sol\":297:299  10 */\n      0x0a\n        /* \"function.sol\":288:296  newprice */\n      dup4\n        /* \"function.sol\":288:299  newprice/10 */\n      tag_16\n      swap2\n      swap1\n      tag_17\n      jump\t// in\n    tag_16:\n        /* \"function.sol\":288:304  newprice/10+6666 */\n      tag_18\n      swap2\n      swap1\n      tag_19\n      jump\t// in\n    tag_18:\n        /* \"function.sol\":282:287  price */\n      0x00\n        /* \"function.sol\":282:304  price=newprice/10+6666 */\n      dup2\n      swap1\n      sstore\n      pop\n        /* \"function.sol\":205:312  function setPrice(uint newprice) public returns(uint)... */\n      swap2\n      swap1\n      pop\n      jump\t// out\n        /* \"#utility.yul\":7:146   */\n    tag_21:\n        /* \"#utility.yul\":53:58   */\n      0x00\n        /* \"#utility.yul\":91:97   */\n      dup2\n        /* \"#utility.yul\":78:98   */\n      calldataload\n        /* \"#utility.yul\":69:98   */\n      swap1\n      pop\n        /* \"#utility.yul\":107:140   */\n      tag_23\n        /* \"#utility.yul\":134:139   */\n      dup2\n        /* \"#utility.yul\":107:140   */\n      tag_24\n      jump\t// in\n    tag_23:\n        /* \"#utility.yul\":7:146   */\n      swap3\n      swap2\n      pop\n      pop\n      jump\t// out\n        /* \"#utility.yul\":152:481   */\n    tag_11:\n        /* \"#utility.yul\":211:217   */\n      0x00\n        /* \"#utility.yul\":260:262   */\n      0x20\n        /* \"#utility.yul\":248:257   */\n      dup3\n        /* \"#utility.yul\":239:246   */\n      dup5\n        /* \"#utility.yul\":235:258   */\n      sub\n        /* \"#utility.yul\":231:263   */\n      slt\n        /* \"#utility.yul\":228:347   */\n      iszero\n      tag_26\n      jumpi\n        /* \"#utility.yul\":266:345   */\n      tag_27\n      tag_28\n      jump\t// in\n    tag_27:\n        /* \"#utility.yul\":228:347   */\n    tag_26:\n        /* \"#utility.yul\":386:387   */\n      0x00\n        /* \"#utility.yul\":411:464   */\n      tag_29\n        /* \"#utility.yul\":456:463   */\n      dup5\n        /* \"#utility.yul\":447:453   */\n      dup3\n        /* \"#utility.yul\":436:445   */\n      dup6\n        /* \"#utility.yul\":432:454   */\n      add\n        /* \"#utility.yul\":411:464   */\n      tag_21\n      jump\t// in\n    tag_29:\n        /* \"#utility.yul\":401:464   */\n      swap2\n      pop\n        /* \"#utility.yul\":357:474   */\n      pop\n        /* \"#utility.yul\":152:481   */\n      swap3\n      swap2\n      pop\n      pop\n      jump\t// out\n        /* \"#utility.yul\":487:605   */\n    tag_30:\n        /* \"#utility.yul\":574:598   */\n      tag_32\n        /* \"#utility.yul\":592:597   */\n      dup2\n        /* \"#utility.yul\":574:598   */\n      tag_33\n      jump\t// in\n    tag_32:\n        /* \"#utility.yul\":569:572   */\n      dup3\n        /* \"#utility.yul\":562:599   */\n      mstore\n        /* \"#utility.yul\":487:605   */\n      pop\n      pop\n      jump\t// out\n        /* \"#utility.yul\":611:833   */\n    tag_8:\n        /* \"#utility.yul\":704:708   */\n      0x00\n        /* \"#utility.yul\":742:744   */\n      0x20\n        /* \"#utility.yul\":731:740   */\n      dup3\n        /* \"#utility.yul\":727:745   */\n      add\n        /* \"#utility.yul\":719:745   */\n      swap1\n      pop\n        /* \"#utility.yul\":755:826   */\n      tag_35\n        /* \"#utility.yul\":823:824   */\n      0x00\n        /* \"#utility.yul\":812:821   */\n      dup4\n        /* \"#utility.yul\":808:825   */\n      add\n        /* \"#utility.yul\":799:805   */\n      dup5\n        /* \"#utility.yul\":755:826   */\n      tag_30\n      jump\t// in\n    tag_35:\n        /* \"#utility.yul\":611:833   */\n      swap3\n      swap2\n      pop\n      pop\n      jump\t// out\n        /* \"#utility.yul\":920:1225   */\n    tag_19:\n        /* \"#utility.yul\":960:963   */\n      0x00\n        /* \"#utility.yul\":979:999   */\n      tag_39\n        /* \"#utility.yul\":997:998   */\n      dup3\n        /* \"#utility.yul\":979:999   */\n      tag_33\n      jump\t// in\n    tag_39:\n        /* \"#utility.yul\":974:999   */\n      swap2\n      pop\n        /* \"#utility.yul\":1013:1033   */\n      tag_40\n        /* \"#utility.yul\":1031:1032   */\n      dup4\n        /* \"#utility.yul\":1013:1033   */\n      tag_33\n      jump\t// in\n    tag_40:\n        /* \"#utility.yul\":1008:1033   */\n      swap3\n      pop\n        /* \"#utility.yul\":1167:1168   */\n      dup3\n        /* \"#utility.yul\":1099:1165   */\n      0xffffffffffffffffffffffffffffffffffffffffffffffffffffffffffffffff\n        /* \"#utility.yul\":1095:1169   */\n      sub\n        /* \"#utility.yul\":1092:1093   */\n      dup3\n        /* \"#utility.yul\":1089:1170   */\n      gt\n        /* \"#utility.yul\":1086:1193   */\n      iszero\n      tag_41\n      jumpi\n        /* \"#utility.yul\":1173:1191   */\n      tag_42\n      tag_43\n      jump\t// in\n    tag_42:\n        /* \"#utility.yul\":1086:1193   */\n    tag_41:\n        /* \"#utility.yul\":1217:1218   */\n      dup3\n        /* \"#utility.yul\":1214:1215   */\n      dup3\n        /* \"#utility.yul\":1210:1219   */\n      add\n        /* \"#utility.yul\":1203:1219   */\n      swap1\n      pop\n        /* \"#utility.yul\":920:1225   */\n      swap3\n      swap2\n      pop\n      pop\n      jump\t// out\n        /* \"#utility.yul\":1231:1416   */\n    tag_17:\n        /* \"#utility.yul\":1271:1272   */\n      0x00\n        /* \"#utility.yul\":1288:1308   */\n      tag_45\n        /* \"#utility.yul\":1306:1307   */\n      dup3\n        /* \"#utility.yul\":1288:1308   */\n      tag_33\n      jump\t// in\n    tag_45:\n        /* \"#utility.yul\":1283:1308   */\n      swap2\n      pop\n        /* \"#utility.yul\":1322:1342   */\n      tag_46\n        /* \"#utility.yul\":1340:1341   */\n      dup4\n        /* \"#utility.yul\":1322:1342   */\n      tag_33\n      jump\t// in\n    tag_46:\n        /* \"#utility.yul\":1317:1342   */\n      swap3\n      pop\n        /* \"#utility.yul\":1361:1362   */\n      dup3\n        /* \"#utility.yul\":1351:1386   */\n      tag_47\n      jumpi\n        /* \"#utility.yul\":1366:1384   */\n      tag_48\n      tag_49\n      jump\t// in\n    tag_48:\n        /* \"#utility.yul\":1351:1386   */\n    tag_47:\n        /* \"#utility.yul\":1408:1409   */\n      dup3\n        /* \"#utility.yul\":1405:1406   */\n      dup3\n        /* \"#utility.yul\":1401:1410   */\n      div\n        /* \"#utility.yul\":1396:1410   */\n      swap1\n      pop\n        /* \"#utility.yul\":1231:1416   */\n      swap3\n      swap2\n      pop\n      pop\n      jump\t// out\n        /* \"#utility.yul\":1422:1499   */\n    tag_33:\n        /* \"#utility.yul\":1459:1466   */\n      0x00\n        /* \"#utility.yul\":1488:1493   */\n      dup2\n        /* \"#utility.yul\":1477:1493   */\n      swap1\n      pop\n        /* \"#utility.yul\":1422:1499   */\n      swap2\n      swap1\n      pop\n      jump\t// out\n        /* \"#utility.yul\":1505:1685   */\n    tag_43:\n        /* \"#utility.yul\":1553:1630   */\n      0x4e487b7100000000000000000000000000000000000000000000000000000000\n        /* \"#utility.yul\":1550:1551   */\n      0x00\n        /* \"#utility.yul\":1543:1631   */\n      mstore\n        /* \"#utility.yul\":1650:1654   */\n      0x11\n        /* \"#utility.yul\":1647:1648   */\n      0x04\n        /* \"#utility.yul\":1640:1655   */\n      mstore\n        /* \"#utility.yul\":1674:1678   */\n      0x24\n        /* \"#utility.yul\":1671:1672   */\n      0x00\n        /* \"#utility.yul\":1664:1679   */\n      revert\n        /* \"#utility.yul\":1691:1871   */\n    tag_49:\n        /* \"#utility.yul\":1739:1816   */\n      0x4e487b7100000000000000000000000000000000000000000000000000000000\n        /* \"#utility.yul\":1736:1737   */\n      0x00\n        /* \"#utility.yul\":1729:1817   */\n      mstore\n        /* \"#utility.yul\":1836:1840   */\n      0x12\n        /* \"#utility.yul\":1833:1834   */\n      0x04\n        /* \"#utility.yul\":1826:1841   */\n      mstore\n        /* \"#utility.yul\":1860:1864   */\n      0x24\n        /* \"#utility.yul\":1857:1858   */\n      0x00\n        /* \"#utility.yul\":1850:1865   */\n      revert\n        /* \"#utility.yul\":2000:2117   */\n    tag_28:\n        /* \"#utility.yul\":2109:2110   */\n      0x00\n        /* \"#utility.yul\":2106:2107   */\n      dup1\n        /* \"#utility.yul\":2099:2111   */\n      revert\n        /* \"#utility.yul\":2123:2245   */\n    tag_24:\n        /* \"#utility.yul\":2196:2220   */\n      tag_57\n        /* \"#utility.yul\":2214:2219   */\n      dup2\n        /* \"#utility.yul\":2196:2220   */\n      tag_33\n      jump\t// in\n    tag_57:\n        /* \"#utility.yul\":2189:2194   */\n      dup2\n        /* \"#utility.yul\":2186:2221   */\n      eq\n        /* \"#utility.yul\":2176:2239   */\n      tag_58\n      jumpi\n        /* \"#utility.yul\":2235:2236   */\n      0x00\n        /* \"#utility.yul\":2232:2233   */\n      dup1\n        /* \"#utility.yul\":2225:2237   */\n      revert\n        /* \"#utility.yul\":2176:2239   */\n    tag_58:\n        /* \"#utility.yul\":2123:2245   */\n      pop\n      jump\t// out\n\n    auxdata: 0xa2646970667358221220a81ae724fe106ef497259acd124d36c2bf9a140044a12d2f7110306dfc92c03064736f6c63430008070033\n}\n",
				"bytecode": {
					"linkReferences": {},
					"object": "60806040526103e860005534801561001657600080fd5b50610266806100266000396000f3fe608060405234801561001057600080fd5b50600436106100365760003560e01c80636d90164e1461003b57806391b7f5ed14610059575b600080fd5b610043610089565b604051610050919061010a565b60405180910390f35b610073600480360381019061006e91906100ce565b610092565b604051610080919061010a565b60405180910390f35b60008054905090565b6000611a0a600a836100a4919061017b565b6100ae9190610125565b600081905550919050565b6000813590506100c881610219565b92915050565b6000602082840312156100e4576100e3610214565b5b60006100f2848285016100b9565b91505092915050565b610104816101ac565b82525050565b600060208201905061011f60008301846100fb565b92915050565b6000610130826101ac565b915061013b836101ac565b9250827fffffffffffffffffffffffffffffffffffffffffffffffffffffffffffffffff038211156101705761016f6101b6565b5b828201905092915050565b6000610186826101ac565b9150610191836101ac565b9250826101a1576101a06101e5565b5b828204905092915050565b6000819050919050565b7f4e487b7100000000000000000000000000000000000000000000000000000000600052601160045260246000fd5b7f4e487b7100000000000000000000000000000000000000000000000000000000600052601260045260246000fd5b600080fd5b610222816101ac565b811461022d57600080fd5b5056fea2646970667358221220a81ae724fe106ef497259acd124d36c2bf9a140044a12d2f7110306dfc92c03064736f6c63430008070033",
					"opcodes": "PUSH1 0x80 PUSH1 0x40 MSTORE PUSH2 0x3E8 PUSH1 0x0 SSTORE CALLVALUE DUP1 ISZERO PUSH2 0x16 JUMPI PUSH1 0x0 DUP1 REVERT JUMPDEST POP PUSH2 0x266 DUP1 PUSH2 0x26 PUSH1 0x0 CODECOPY PUSH1 0x0 RETURN INVALID PUSH1 0x80 PUSH1 0x40 MSTORE CALLVALUE DUP1 ISZERO PUSH2 0x10 JUMPI PUSH1 0x0 DUP1 REVERT JUMPDEST POP PUSH1 0x4 CALLDATASIZE LT PUSH2 0x36 JUMPI PUSH1 0x0 CALLDATALOAD PUSH1 0xE0 SHR DUP1 PUSH4 0x6D90164E EQ PUSH2 0x3B JUMPI DUP1 PUSH4 0x91B7F5ED EQ PUSH2 0x59 JUMPI JUMPDEST PUSH1 0x0 DUP1 REVERT JUMPDEST PUSH2 0x43 PUSH2 0x89 JUMP JUMPDEST PUSH1 0x40 MLOAD PUSH2 0x50 SWAP2 SWAP1 PUSH2 0x10A JUMP JUMPDEST PUSH1 0x40 MLOAD DUP1 SWAP2 SUB SWAP1 RETURN JUMPDEST PUSH2 0x73 PUSH1 0x4 DUP1 CALLDATASIZE SUB DUP2 ADD SWAP1 PUSH2 0x6E SWAP2 SWAP1 PUSH2 0xCE JUMP JUMPDEST PUSH2 0x92 JUMP JUMPDEST PUSH1 0x40 MLOAD PUSH2 0x80 SWAP2 SWAP1 PUSH2 0x10A JUMP JUMPDEST PUSH1 0x40 MLOAD DUP1 SWAP2 SUB SWAP1 RETURN JUMPDEST PUSH1 0x0 DUP1 SLOAD SWAP1 POP SWAP1 JUMP JUMPDEST PUSH1 0x0 PUSH2 0x1A0A PUSH1 0xA DUP4 PUSH2 0xA4 SWAP2 SWAP1 PUSH2 0x17B JUMP JUMPDEST PUSH2 0xAE SWAP2 SWAP1 PUSH2 0x125 JUMP JUMPDEST PUSH1 0x0 DUP2 SWAP1 SSTORE POP SWAP2 SWAP1 POP JUMP JUMPDEST PUSH1 0x0 DUP2 CALLDATALOAD SWAP1 POP PUSH2 0xC8 DUP2 PUSH2 0x219 JUMP JUMPDEST SWAP3 SWAP2 POP POP JUMP JUMPDEST PUSH1 0x0 PUSH1 0x20 DUP3 DUP5 SUB SLT ISZERO PUSH2 0xE4 JUMPI PUSH2 0xE3 PUSH2 0x214 JUMP JUMPDEST JUMPDEST PUSH1 0x0 PUSH2 0xF2 DUP5 DUP3 DUP6 ADD PUSH2 0xB9 JUMP JUMPDEST SWAP2 POP POP SWAP3 SWAP2 POP POP JUMP JUMPDEST PUSH2 0x104 DUP2 PUSH2 0x1AC JUMP JUMPDEST DUP3 MSTORE POP POP JUMP JUMPDEST PUSH1 0x0 PUSH1 0x20 DUP3 ADD SWAP1 POP PUSH2 0x11F PUSH1 0x0 DUP4 ADD DUP5 PUSH2 0xFB JUMP JUMPDEST SWAP3 SWAP2 POP POP JUMP JUMPDEST PUSH1 0x0 PUSH2 0x130 DUP3 PUSH2 0x1AC JUMP JUMPDEST SWAP2 POP PUSH2 0x13B DUP4 PUSH2 0x1AC JUMP JUMPDEST SWAP3 POP DUP3 PUSH32 0xFFFFFFFFFFFFFFFFFFFFFFFFFFFFFFFFFFFFFFFFFFFFFFFFFFFFFFFFFFFFFFFF SUB DUP3 GT ISZERO PUSH2 0x170 JUMPI PUSH2 0x16F PUSH2 0x1B6 JUMP JUMPDEST JUMPDEST DUP3 DUP3 ADD SWAP1 POP SWAP3 SWAP2 POP POP JUMP JUMPDEST PUSH1 0x0 PUSH2 0x186 DUP3 PUSH2 0x1AC JUMP JUMPDEST SWAP2 POP PUSH2 0x191 DUP4 PUSH2 0x1AC JUMP JUMPDEST SWAP3 POP DUP3 PUSH2 0x1A1 JUMPI PUSH2 0x1A0 PUSH2 0x1E5 JUMP JUMPDEST JUMPDEST DUP3 DUP3 DIV SWAP1 POP SWAP3 SWAP2 POP POP JUMP JUMPDEST PUSH1 0x0 DUP2 SWAP1 POP SWAP2 SWAP1 POP JUMP JUMPDEST PUSH32 0x4E487B7100000000000000000000000000000000000000000000000000000000 PUSH1 0x0 MSTORE PUSH1 0x11 PUSH1 0x4 MSTORE PUSH1 0x24 PUSH1 0x0 REVERT JUMPDEST PUSH32 0x4E487B7100000000000000000000000000000000000000000000000000000000 PUSH1 0x0 MSTORE PUSH1 0x12 PUSH1 0x4 MSTORE PUSH1 0x24 PUSH1 0x0 REVERT JUMPDEST PUSH1 0x0 DUP1 REVERT JUMPDEST PUSH2 0x222 DUP2 PUSH2 0x1AC JUMP JUMPDEST DUP2 EQ PUSH2 0x22D JUMPI PUSH1 0x0 DUP1 REVERT JUMPDEST POP JUMP INVALID LOG2 PUSH5 0x6970667358 0x22 SLT KECCAK256 0xA8 BYTE 0xE7 0x24 INVALID LT PUSH15 0xF497259ACD124D36C2BF9A140044A1 0x2D 0x2F PUSH18 0x10306DFC92C03064736F6C63430008070033 "
				},
				"gasEstimates": {
					"creation": {
						"codeDepositCost": "122800",
						"executionCost": "22277",
						"totalCost": "145077"
					},
					"external": {
						"GetPrice()": "2415",
						"setPrice(uint256)": "infinite"
					}
				},
				"methodIdentifiers": {
					"GetPrice()": "6d90164e",
					"setPrice(uint256)": "91b7f5ed"
				}
			},
			"storageLayout": {
				"storage": [
					{
						"astId": 4,
						"contract": "function.sol:local",
						"label": "price",
						"offset": 0,
						"slot": "0",
						"type": "t_uint256"
					}
				],
				"types": {
					"t_uint256": {
						"encoding": "inplace",
						"label": "uint256",
						"numberOfBytes": "32"
					}
				}
			},
			"userdoc": {
				"kind": "user",
				"methods": {},
				"version": 1
			}
		}
	}
}