{
	"byte_dynamic_array.sol": {
		"byte_dynamic_array": {
			"abi": [
				{
					"inputs": [],
					"name": "arr",
					"outputs": [
						{
							"internalType": "bytes",
							"name": "",
							"type": "bytes"
						}
					],
					"stateMutability": "view",
					"type": "function"
				},
				{
					"inputs": [
						{
							"internalType": "string",
							"name": "item",
							"type": "string"
						}
					],
					"name": "push_element",
					"outputs": [],
					"stateMutability": "nonpayable",
					"type": "function"
				}
			],
			"devdoc": {
				"kind": "dev",
				"methods": {},
				"version": 1
			},
			"evm": {
				"assembly": "    /* \"byte_dynamic_array.sol\":73:216  contract byte_dynamic_array... */\n  mstore(0x40, 0x80)\n  callvalue\n  dup1\n  iszero\n  tag_1\n  jumpi\n  0x00\n  dup1\n  revert\ntag_1:\n  pop\n  dataSize(sub_0)\n  dup1\n  dataOffset(sub_0)\n  0x00\n  codecopy\n  0x00\n  return\nstop\n\nsub_0: assembly {\n        /* \"byte_dynamic_array.sol\":73:216  contract byte_dynamic_array... */\n      mstore(0x40, 0x80)\n      callvalue\n      dup1\n      iszero\n      tag_1\n      jumpi\n      0x00\n      dup1\n      revert\n    tag_1:\n      pop\n      jumpi(tag_2, lt(calldatasize, 0x04))\n      shr(0xe0, calldataload(0x00))\n      dup1\n      0x7b38ab89\n      eq\n      tag_3\n      jumpi\n      dup1\n      0xe81d53cf\n      eq\n      tag_4\n      jumpi\n    tag_2:\n      0x00\n      dup1\n      revert\n        /* \"byte_dynamic_array.sol\":130:214  function push_element(string memory item) public... */\n    tag_3:\n      tag_5\n      0x04\n      dup1\n      calldatasize\n      sub\n      dup2\n      add\n      swap1\n      tag_6\n      swap2\n      swap1\n      tag_7\n      jump\t// in\n    tag_6:\n      tag_8\n      jump\t// in\n    tag_5:\n      stop\n        /* \"byte_dynamic_array.sol\":107:123  bytes public arr */\n    tag_4:\n      tag_9\n      tag_10\n      jump\t// in\n    tag_9:\n      mload(0x40)\n      tag_11\n      swap2\n      swap1\n      tag_12\n      jump\t// in\n    tag_11:\n      mload(0x40)\n      dup1\n      swap2\n      sub\n      swap1\n      return\n        /* \"byte_dynamic_array.sol\":130:214  function push_element(string memory item) public... */\n    tag_8:\n        /* \"byte_dynamic_array.sol\":193:196  arr */\n      0x00\n        /* \"byte_dynamic_array.sol\":193:206  arr.push('d') */\n      dup1\n      dup1\n      sload\n      dup1\n      tag_14\n      swap1\n      tag_15\n      jump\t// in\n    tag_14:\n      dup1\n      0x1f\n      dup2\n      eq\n      tag_17\n      jumpi\n      jump(tag_16)\n    tag_17:\n      dup4\n      0x00\n      mstore\n      keccak256(0x00, 0x20)\n      not(0xff)\n      dup5\n      and\n      dup2\n      sstore\n      0x3f\n      swap4\n      pop\n      pop\n    tag_16:\n      pop\n      0x02\n      dup3\n      add\n      dup4\n      sstore\n      0x01\n      dup2\n      add\n      swap3\n      pop\n      pop\n      pop\n      0x01\n      swap1\n      sub\n      dup2\n      sload\n      0x01\n      and\n      iszero\n      tag_18\n      jumpi\n      swap1\n      0x00\n      mstore\n      keccak256(0x00, 0x20)\n      swap1\n      0x20\n      swap2\n      dup3\n      dup3\n      div\n      add\n      swap2\n      swap1\n      mod\n    tag_18:\n      0x6400000000000000000000000000000000000000000000000000000000000000\n      swap1\n      swap2\n      swap1\n      swap2\n      0x1f\n      sub\n      0x0100\n      exp\n      dup2\n      sload\n      dup2\n      0xff\n      mul\n      not\n      and\n      swap1\n      0x0100000000000000000000000000000000000000000000000000000000000000\n      dup5\n      div\n      mul\n      or\n      swap1\n      sstore\n      pop\n        /* \"byte_dynamic_array.sol\":130:214  function push_element(string memory item) public... */\n      pop\n      jump\t// out\n        /* \"byte_dynamic_array.sol\":107:123  bytes public arr */\n    tag_10:\n      0x00\n      dup1\n      sload\n      tag_19\n      swap1\n      tag_15\n      jump\t// in\n    tag_19:\n      dup1\n      0x1f\n      add\n      0x20\n      dup1\n      swap2\n      div\n      mul\n      0x20\n      add\n      mload(0x40)\n      swap1\n      dup2\n      add\n      0x40\n      mstore\n      dup1\n      swap3\n      swap2\n      swap1\n      dup2\n      dup2\n      mstore\n      0x20\n      add\n      dup3\n      dup1\n      sload\n      tag_20\n      swap1\n      tag_15\n      jump\t// in\n    tag_20:\n      dup1\n      iszero\n      tag_21\n      jumpi\n      dup1\n      0x1f\n      lt\n      tag_22\n      jumpi\n      0x0100\n      dup1\n      dup4\n      sload\n      div\n      mul\n      dup4\n      mstore\n      swap2\n      0x20\n      add\n      swap2\n      jump(tag_21)\n    tag_22:\n      dup3\n      add\n      swap2\n      swap1\n      0x00\n      mstore\n      keccak256(0x00, 0x20)\n      swap1\n    tag_23:\n      dup2\n      sload\n      dup2\n      mstore\n      swap1\n      0x01\n      add\n      swap1\n      0x20\n      add\n      dup1\n      dup4\n      gt\n      tag_23\n      jumpi\n      dup3\n      swap1\n      sub\n      0x1f\n      and\n      dup3\n      add\n      swap2\n    tag_21:\n      pop\n      pop\n      pop\n      pop\n      pop\n      dup2\n      jump\t// out\n        /* \"#utility.yul\":7:419   */\n    tag_25:\n        /* \"#utility.yul\":85:90   */\n      0x00\n        /* \"#utility.yul\":110:176   */\n      tag_27\n        /* \"#utility.yul\":126:175   */\n      tag_28\n        /* \"#utility.yul\":168:174   */\n      dup5\n        /* \"#utility.yul\":126:175   */\n      tag_29\n      jump\t// in\n    tag_28:\n        /* \"#utility.yul\":110:176   */\n      tag_30\n      jump\t// in\n    tag_27:\n        /* \"#utility.yul\":101:176   */\n      swap1\n      pop\n        /* \"#utility.yul\":199:205   */\n      dup3\n        /* \"#utility.yul\":192:197   */\n      dup2\n        /* \"#utility.yul\":185:206   */\n      mstore\n        /* \"#utility.yul\":237:241   */\n      0x20\n        /* \"#utility.yul\":230:235   */\n      dup2\n        /* \"#utility.yul\":226:242   */\n      add\n        /* \"#utility.yul\":275:278   */\n      dup5\n        /* \"#utility.yul\":266:272   */\n      dup5\n        /* \"#utility.yul\":261:264   */\n      dup5\n        /* \"#utility.yul\":257:273   */\n      add\n        /* \"#utility.yul\":254:279   */\n      gt\n        /* \"#utility.yul\":251:363   */\n      iszero\n      tag_31\n      jumpi\n        /* \"#utility.yul\":282:361   */\n      tag_32\n      tag_33\n      jump\t// in\n    tag_32:\n        /* \"#utility.yul\":251:363   */\n    tag_31:\n        /* \"#utility.yul\":372:413   */\n      tag_34\n        /* \"#utility.yul\":406:412   */\n      dup5\n        /* \"#utility.yul\":401:404   */\n      dup3\n        /* \"#utility.yul\":396:399   */\n      dup6\n        /* \"#utility.yul\":372:413   */\n      tag_35\n      jump\t// in\n    tag_34:\n        /* \"#utility.yul\":91:419   */\n      pop\n        /* \"#utility.yul\":7:419   */\n      swap4\n      swap3\n      pop\n      pop\n      pop\n      jump\t// out\n        /* \"#utility.yul\":439:779   */\n    tag_36:\n        /* \"#utility.yul\":495:500   */\n      0x00\n        /* \"#utility.yul\":544:547   */\n      dup3\n        /* \"#utility.yul\":537:541   */\n      0x1f\n        /* \"#utility.yul\":529:535   */\n      dup4\n        /* \"#utility.yul\":525:542   */\n      add\n        /* \"#utility.yul\":521:548   */\n      slt\n        /* \"#utility.yul\":511:633   */\n      tag_38\n      jumpi\n        /* \"#utility.yul\":552:631   */\n      tag_39\n      tag_40\n      jump\t// in\n    tag_39:\n        /* \"#utility.yul\":511:633   */\n    tag_38:\n        /* \"#utility.yul\":669:675   */\n      dup2\n        /* \"#utility.yul\":656:676   */\n      calldataload\n        /* \"#utility.yul\":694:773   */\n      tag_41\n        /* \"#utility.yul\":769:772   */\n      dup5\n        /* \"#utility.yul\":761:767   */\n      dup3\n        /* \"#utility.yul\":754:758   */\n      0x20\n        /* \"#utility.yul\":746:752   */\n      dup7\n        /* \"#utility.yul\":742:759   */\n      add\n        /* \"#utility.yul\":694:773   */\n      tag_25\n      jump\t// in\n    tag_41:\n        /* \"#utility.yul\":685:773   */\n      swap2\n      pop\n        /* \"#utility.yul\":501:779   */\n      pop\n        /* \"#utility.yul\":439:779   */\n      swap3\n      swap2\n      pop\n      pop\n      jump\t// out\n        /* \"#utility.yul\":785:1294   */\n    tag_7:\n        /* \"#utility.yul\":854:860   */\n      0x00\n        /* \"#utility.yul\":903:905   */\n      0x20\n        /* \"#utility.yul\":891:900   */\n      dup3\n        /* \"#utility.yul\":882:889   */\n      dup5\n        /* \"#utility.yul\":878:901   */\n      sub\n        /* \"#utility.yul\":874:906   */\n      slt\n        /* \"#utility.yul\":871:990   */\n      iszero\n      tag_43\n      jumpi\n        /* \"#utility.yul\":909:988   */\n      tag_44\n      tag_45\n      jump\t// in\n    tag_44:\n        /* \"#utility.yul\":871:990   */\n    tag_43:\n        /* \"#utility.yul\":1057:1058   */\n      0x00\n        /* \"#utility.yul\":1046:1055   */\n      dup3\n        /* \"#utility.yul\":1042:1059   */\n      add\n        /* \"#utility.yul\":1029:1060   */\n      calldataload\n        /* \"#utility.yul\":1087:1105   */\n      0xffffffffffffffff\n        /* \"#utility.yul\":1079:1085   */\n      dup2\n        /* \"#utility.yul\":1076:1106   */\n      gt\n        /* \"#utility.yul\":1073:1190   */\n      iszero\n      tag_46\n      jumpi\n        /* \"#utility.yul\":1109:1188   */\n      tag_47\n      tag_48\n      jump\t// in\n    tag_47:\n        /* \"#utility.yul\":1073:1190   */\n    tag_46:\n        /* \"#utility.yul\":1214:1277   */\n      tag_49\n        /* \"#utility.yul\":1269:1276   */\n      dup5\n        /* \"#utility.yul\":1260:1266   */\n      dup3\n        /* \"#utility.yul\":1249:1258   */\n      dup6\n        /* \"#utility.yul\":1245:1267   */\n      add\n        /* \"#utility.yul\":1214:1277   */\n      tag_36\n      jump\t// in\n    tag_49:\n        /* \"#utility.yul\":1204:1277   */\n      swap2\n      pop\n        /* \"#utility.yul\":1000:1287   */\n      pop\n        /* \"#utility.yul\":785:1294   */\n      swap3\n      swap2\n      pop\n      pop\n      jump\t// out\n        /* \"#utility.yul\":1300:1660   */\n    tag_50:\n        /* \"#utility.yul\":1386:1389   */\n      0x00\n        /* \"#utility.yul\":1414:1452   */\n      tag_52\n        /* \"#utility.yul\":1446:1451   */\n      dup3\n        /* \"#utility.yul\":1414:1452   */\n      tag_53\n      jump\t// in\n    tag_52:\n        /* \"#utility.yul\":1468:1538   */\n      tag_54\n        /* \"#utility.yul\":1531:1537   */\n      dup2\n        /* \"#utility.yul\":1526:1529   */\n      dup6\n        /* \"#utility.yul\":1468:1538   */\n      tag_55\n      jump\t// in\n    tag_54:\n        /* \"#utility.yul\":1461:1538   */\n      swap4\n      pop\n        /* \"#utility.yul\":1547:1599   */\n      tag_56\n        /* \"#utility.yul\":1592:1598   */\n      dup2\n        /* \"#utility.yul\":1587:1590   */\n      dup6\n        /* \"#utility.yul\":1580:1584   */\n      0x20\n        /* \"#utility.yul\":1573:1578   */\n      dup7\n        /* \"#utility.yul\":1569:1585   */\n      add\n        /* \"#utility.yul\":1547:1599   */\n      tag_57\n      jump\t// in\n    tag_56:\n        /* \"#utility.yul\":1624:1653   */\n      tag_58\n        /* \"#utility.yul\":1646:1652   */\n      dup2\n        /* \"#utility.yul\":1624:1653   */\n      tag_59\n      jump\t// in\n    tag_58:\n        /* \"#utility.yul\":1619:1622   */\n      dup5\n        /* \"#utility.yul\":1615:1654   */\n      add\n        /* \"#utility.yul\":1608:1654   */\n      swap2\n      pop\n        /* \"#utility.yul\":1390:1660   */\n      pop\n        /* \"#utility.yul\":1300:1660   */\n      swap3\n      swap2\n      pop\n      pop\n      jump\t// out\n        /* \"#utility.yul\":1666:1975   */\n    tag_12:\n        /* \"#utility.yul\":1777:1781   */\n      0x00\n        /* \"#utility.yul\":1815:1817   */\n      0x20\n        /* \"#utility.yul\":1804:1813   */\n      dup3\n        /* \"#utility.yul\":1800:1818   */\n      add\n        /* \"#utility.yul\":1792:1818   */\n      swap1\n      pop\n        /* \"#utility.yul\":1864:1873   */\n      dup2\n        /* \"#utility.yul\":1858:1862   */\n      dup2\n        /* \"#utility.yul\":1854:1874   */\n      sub\n        /* \"#utility.yul\":1850:1851   */\n      0x00\n        /* \"#utility.yul\":1839:1848   */\n      dup4\n        /* \"#utility.yul\":1835:1852   */\n      add\n        /* \"#utility.yul\":1828:1875   */\n      mstore\n        /* \"#utility.yul\":1892:1968   */\n      tag_61\n        /* \"#utility.yul\":1963:1967   */\n      dup2\n        /* \"#utility.yul\":1954:1960   */\n      dup5\n        /* \"#utility.yul\":1892:1968   */\n      tag_50\n      jump\t// in\n    tag_61:\n        /* \"#utility.yul\":1884:1968   */\n      swap1\n      pop\n        /* \"#utility.yul\":1666:1975   */\n      swap3\n      swap2\n      pop\n      pop\n      jump\t// out\n        /* \"#utility.yul\":1981:2110   */\n    tag_30:\n        /* \"#utility.yul\":2015:2021   */\n      0x00\n        /* \"#utility.yul\":2042:2062   */\n      tag_63\n      tag_64\n      jump\t// in\n    tag_63:\n        /* \"#utility.yul\":2032:2062   */\n      swap1\n      pop\n        /* \"#utility.yul\":2071:2104   */\n      tag_65\n        /* \"#utility.yul\":2099:2103   */\n      dup3\n        /* \"#utility.yul\":2091:2097   */\n      dup3\n        /* \"#utility.yul\":2071:2104   */\n      tag_66\n      jump\t// in\n    tag_65:\n        /* \"#utility.yul\":1981:2110   */\n      swap2\n      swap1\n      pop\n      jump\t// out\n        /* \"#utility.yul\":2116:2191   */\n    tag_64:\n        /* \"#utility.yul\":2149:2155   */\n      0x00\n        /* \"#utility.yul\":2182:2184   */\n      0x40\n        /* \"#utility.yul\":2176:2185   */\n      mload\n        /* \"#utility.yul\":2166:2185   */\n      swap1\n      pop\n        /* \"#utility.yul\":2116:2191   */\n      swap1\n      jump\t// out\n        /* \"#utility.yul\":2197:2505   */\n    tag_29:\n        /* \"#utility.yul\":2259:2263   */\n      0x00\n        /* \"#utility.yul\":2349:2367   */\n      0xffffffffffffffff\n        /* \"#utility.yul\":2341:2347   */\n      dup3\n        /* \"#utility.yul\":2338:2368   */\n      gt\n        /* \"#utility.yul\":2335:2391   */\n      iszero\n      tag_69\n      jumpi\n        /* \"#utility.yul\":2371:2389   */\n      tag_70\n      tag_71\n      jump\t// in\n    tag_70:\n        /* \"#utility.yul\":2335:2391   */\n    tag_69:\n        /* \"#utility.yul\":2409:2438   */\n      tag_72\n        /* \"#utility.yul\":2431:2437   */\n      dup3\n        /* \"#utility.yul\":2409:2438   */\n      tag_59\n      jump\t// in\n    tag_72:\n        /* \"#utility.yul\":2401:2438   */\n      swap1\n      pop\n        /* \"#utility.yul\":2493:2497   */\n      0x20\n        /* \"#utility.yul\":2487:2491   */\n      dup2\n        /* \"#utility.yul\":2483:2498   */\n      add\n        /* \"#utility.yul\":2475:2498   */\n      swap1\n      pop\n        /* \"#utility.yul\":2197:2505   */\n      swap2\n      swap1\n      pop\n      jump\t// out\n        /* \"#utility.yul\":2511:2609   */\n    tag_53:\n        /* \"#utility.yul\":2562:2568   */\n      0x00\n        /* \"#utility.yul\":2596:2601   */\n      dup2\n        /* \"#utility.yul\":2590:2602   */\n      mload\n        /* \"#utility.yul\":2580:2602   */\n      swap1\n      pop\n        /* \"#utility.yul\":2511:2609   */\n      swap2\n      swap1\n      pop\n      jump\t// out\n        /* \"#utility.yul\":2615:2783   */\n    tag_55:\n        /* \"#utility.yul\":2698:2709   */\n      0x00\n        /* \"#utility.yul\":2732:2738   */\n      dup3\n        /* \"#utility.yul\":2727:2730   */\n      dup3\n        /* \"#utility.yul\":2720:2739   */\n      mstore\n        /* \"#utility.yul\":2772:2776   */\n      0x20\n        /* \"#utility.yul\":2767:2770   */\n      dup3\n        /* \"#utility.yul\":2763:2777   */\n      add\n        /* \"#utility.yul\":2748:2777   */\n      swap1\n      pop\n        /* \"#utility.yul\":2615:2783   */\n      swap3\n      swap2\n      pop\n      pop\n      jump\t// out\n        /* \"#utility.yul\":2789:2943   */\n    tag_35:\n        /* \"#utility.yul\":2873:2879   */\n      dup3\n        /* \"#utility.yul\":2868:2871   */\n      dup2\n        /* \"#utility.yul\":2863:2866   */\n      dup4\n        /* \"#utility.yul\":2850:2880   */\n      calldatacopy\n        /* \"#utility.yul\":2935:2936   */\n      0x00\n        /* \"#utility.yul\":2926:2932   */\n      dup4\n        /* \"#utility.yul\":2921:2924   */\n      dup4\n        /* \"#utility.yul\":2917:2933   */\n      add\n        /* \"#utility.yul\":2910:2937   */\n      mstore\n        /* \"#utility.yul\":2789:2943   */\n      pop\n      pop\n      pop\n      jump\t// out\n        /* \"#utility.yul\":2949:3256   */\n    tag_57:\n        /* \"#utility.yul\":3017:3018   */\n      0x00\n        /* \"#utility.yul\":3027:3140   */\n    tag_77:\n        /* \"#utility.yul\":3041:3047   */\n      dup4\n        /* \"#utility.yul\":3038:3039   */\n      dup2\n        /* \"#utility.yul\":3035:3048   */\n      lt\n        /* \"#utility.yul\":3027:3140   */\n      iszero\n      tag_79\n      jumpi\n        /* \"#utility.yul\":3126:3127   */\n      dup1\n        /* \"#utility.yul\":3121:3124   */\n      dup3\n        /* \"#utility.yul\":3117:3128   */\n      add\n        /* \"#utility.yul\":3111:3129   */\n      mload\n        /* \"#utility.yul\":3107:3108   */\n      dup2\n        /* \"#utility.yul\":3102:3105   */\n      dup5\n        /* \"#utility.yul\":3098:3109   */\n      add\n        /* \"#utility.yul\":3091:3130   */\n      mstore\n        /* \"#utility.yul\":3063:3065   */\n      0x20\n        /* \"#utility.yul\":3060:3061   */\n      dup2\n        /* \"#utility.yul\":3056:3066   */\n      add\n        /* \"#utility.yul\":3051:3066   */\n      swap1\n      pop\n        /* \"#utility.yul\":3027:3140   */\n      jump(tag_77)\n    tag_79:\n        /* \"#utility.yul\":3158:3164   */\n      dup4\n        /* \"#utility.yul\":3155:3156   */\n      dup2\n        /* \"#utility.yul\":3152:3165   */\n      gt\n        /* \"#utility.yul\":3149:3250   */\n      iszero\n      tag_80\n      jumpi\n        /* \"#utility.yul\":3238:3239   */\n      0x00\n        /* \"#utility.yul\":3229:3235   */\n      dup5\n        /* \"#utility.yul\":3224:3227   */\n      dup5\n        /* \"#utility.yul\":3220:3236   */\n      add\n        /* \"#utility.yul\":3213:3240   */\n      mstore\n        /* \"#utility.yul\":3149:3250   */\n    tag_80:\n        /* \"#utility.yul\":2998:3256   */\n      pop\n        /* \"#utility.yul\":2949:3256   */\n      pop\n      pop\n      pop\n      jump\t// out\n        /* \"#utility.yul\":3262:3582   */\n    tag_15:\n        /* \"#utility.yul\":3306:3312   */\n      0x00\n        /* \"#utility.yul\":3343:3344   */\n      0x02\n        /* \"#utility.yul\":3337:3341   */\n      dup3\n        /* \"#utility.yul\":3333:3345   */\n      div\n        /* \"#utility.yul\":3323:3345   */\n      swap1\n      pop\n        /* \"#utility.yul\":3390:3391   */\n      0x01\n        /* \"#utility.yul\":3384:3388   */\n      dup3\n        /* \"#utility.yul\":3380:3392   */\n      and\n        /* \"#utility.yul\":3411:3429   */\n      dup1\n        /* \"#utility.yul\":3401:3482   */\n      tag_82\n      jumpi\n        /* \"#utility.yul\":3467:3471   */\n      0x7f\n        /* \"#utility.yul\":3459:3465   */\n      dup3\n        /* \"#utility.yul\":3455:3472   */\n      and\n        /* \"#utility.yul\":3445:3472   */\n      swap2\n      pop\n        /* \"#utility.yul\":3401:3482   */\n    tag_82:\n        /* \"#utility.yul\":3529:3531   */\n      0x20\n        /* \"#utility.yul\":3521:3527   */\n      dup3\n        /* \"#utility.yul\":3518:3532   */\n      lt\n        /* \"#utility.yul\":3498:3516   */\n      dup2\n        /* \"#utility.yul\":3495:3533   */\n      eq\n        /* \"#utility.yul\":3492:3576   */\n      iszero\n      tag_83\n      jumpi\n        /* \"#utility.yul\":3548:3566   */\n      tag_84\n      tag_85\n      jump\t// in\n    tag_84:\n        /* \"#utility.yul\":3492:3576   */\n    tag_83:\n        /* \"#utility.yul\":3313:3582   */\n      pop\n        /* \"#utility.yul\":3262:3582   */\n      swap2\n      swap1\n      pop\n      jump\t// out\n        /* \"#utility.yul\":3588:3869   */\n    tag_66:\n        /* \"#utility.yul\":3671:3698   */\n      tag_87\n        /* \"#utility.yul\":3693:3697   */\n      dup3\n        /* \"#utility.yul\":3671:3698   */\n      tag_59\n      jump\t// in\n    tag_87:\n        /* \"#utility.yul\":3663:3669   */\n      dup2\n        /* \"#utility.yul\":3659:3699   */\n      add\n        /* \"#utility.yul\":3801:3807   */\n      dup2\n        /* \"#utility.yul\":3789:3799   */\n      dup2\n        /* \"#utility.yul\":3786:3808   */\n      lt\n        /* \"#utility.yul\":3765:3783   */\n      0xffffffffffffffff\n        /* \"#utility.yul\":3753:3763   */\n      dup3\n        /* \"#utility.yul\":3750:3784   */\n      gt\n        /* \"#utility.yul\":3747:3809   */\n      or\n        /* \"#utility.yul\":3744:3832   */\n      iszero\n      tag_88\n      jumpi\n        /* \"#utility.yul\":3812:3830   */\n      tag_89\n      tag_71\n      jump\t// in\n    tag_89:\n        /* \"#utility.yul\":3744:3832   */\n    tag_88:\n        /* \"#utility.yul\":3852:3862   */\n      dup1\n        /* \"#utility.yul\":3848:3850   */\n      0x40\n        /* \"#utility.yul\":3841:3863   */\n      mstore\n        /* \"#utility.yul\":3631:3869   */\n      pop\n        /* \"#utility.yul\":3588:3869   */\n      pop\n      pop\n      jump\t// out\n        /* \"#utility.yul\":3875:4055   */\n    tag_85:\n        /* \"#utility.yul\":3923:4000   */\n      0x4e487b7100000000000000000000000000000000000000000000000000000000\n        /* \"#utility.yul\":3920:3921   */\n      0x00\n        /* \"#utility.yul\":3913:4001   */\n      mstore\n        /* \"#utility.yul\":4020:4024   */\n      0x22\n        /* \"#utility.yul\":4017:4018   */\n      0x04\n        /* \"#utility.yul\":4010:4025   */\n      mstore\n        /* \"#utility.yul\":4044:4048   */\n      0x24\n        /* \"#utility.yul\":4041:4042   */\n      0x00\n        /* \"#utility.yul\":4034:4049   */\n      revert\n        /* \"#utility.yul\":4061:4241   */\n    tag_71:\n        /* \"#utility.yul\":4109:4186   */\n      0x4e487b7100000000000000000000000000000000000000000000000000000000\n        /* \"#utility.yul\":4106:4107   */\n      0x00\n        /* \"#utility.yul\":4099:4187   */\n      mstore\n        /* \"#utility.yul\":4206:4210   */\n      0x41\n        /* \"#utility.yul\":4203:4204   */\n      0x04\n        /* \"#utility.yul\":4196:4211   */\n      mstore\n        /* \"#utility.yul\":4230:4234   */\n      0x24\n        /* \"#utility.yul\":4227:4228   */\n      0x00\n        /* \"#utility.yul\":4220:4235   */\n      revert\n        /* \"#utility.yul\":4247:4364   */\n    tag_40:\n        /* \"#utility.yul\":4356:4357   */\n      0x00\n        /* \"#utility.yul\":4353:4354   */\n      dup1\n        /* \"#utility.yul\":4346:4358   */\n      revert\n        /* \"#utility.yul\":4370:4487   */\n    tag_33:\n        /* \"#utility.yul\":4479:4480   */\n      0x00\n        /* \"#utility.yul\":4476:4477   */\n      dup1\n        /* \"#utility.yul\":4469:4481   */\n      revert\n        /* \"#utility.yul\":4493:4610   */\n    tag_48:\n        /* \"#utility.yul\":4602:4603   */\n      0x00\n        /* \"#utility.yul\":4599:4600   */\n      dup1\n        /* \"#utility.yul\":4592:4604   */\n      revert\n        /* \"#utility.yul\":4616:4733   */\n    tag_45:\n        /* \"#utility.yul\":4725:4726   */\n      0x00\n        /* \"#utility.yul\":4722:4723   */\n      dup1\n        /* \"#utility.yul\":4715:4727   */\n      revert\n        /* \"#utility.yul\":4739:4841   */\n    tag_59:\n        /* \"#utility.yul\":4780:4786   */\n      0x00\n        /* \"#utility.yul\":4831:4833   */\n      0x1f\n        /* \"#utility.yul\":4827:4834   */\n      not\n        /* \"#utility.yul\":4822:4824   */\n      0x1f\n        /* \"#utility.yul\":4815:4820   */\n      dup4\n        /* \"#utility.yul\":4811:4825   */\n      add\n        /* \"#utility.yul\":4807:4835   */\n      and\n        /* \"#utility.yul\":4797:4835   */\n      swap1\n      pop\n        /* \"#utility.yul\":4739:4841   */\n      swap2\n      swap1\n      pop\n      jump\t// out\n\n    auxdata: 0xa264697066735822122068360938ceda0f1cc03c6472589824ce92cc04d83a60cc77403a1f853386a74164736f6c63430008070033\n}\n",
				"bytecode": {
					"linkReferences": {},
					"object": "608060405234801561001057600080fd5b506104ac806100206000396000f3fe608060405234801561001057600080fd5b50600436106100365760003560e01c80637b38ab891461003b578063e81d53cf14610057575b600080fd5b61005560048036038101906100509190610238565b610075565b005b61005f61013a565b60405161006c91906102ba565b60405180910390f35b60008080548061008490610390565b80601f8114610092576100a8565b83600052602060002060ff1984168155603f9350505b506002820183556001810192505050600190038154600116156100da5790600052602060002090602091828204019190065b7f640000000000000000000000000000000000000000000000000000000000000090919091601f036101000a81548160ff021916907f01000000000000000000000000000000000000000000000000000000000000008404021790555050565b6000805461014790610390565b80601f016020809104026020016040519081016040528092919081815260200182805461017390610390565b80156101c05780601f10610195576101008083540402835291602001916101c0565b820191906000526020600020905b8154815290600101906020018083116101a357829003601f168201915b505050505081565b60006101db6101d684610301565b6102dc565b9050828152602081018484840111156101f7576101f6610456565b5b61020284828561034e565b509392505050565b600082601f83011261021f5761021e610451565b5b813561022f8482602086016101c8565b91505092915050565b60006020828403121561024e5761024d610460565b5b600082013567ffffffffffffffff81111561026c5761026b61045b565b5b6102788482850161020a565b91505092915050565b600061028c82610332565b610296818561033d565b93506102a681856020860161035d565b6102af81610465565b840191505092915050565b600060208201905081810360008301526102d48184610281565b905092915050565b60006102e66102f7565b90506102f282826103c2565b919050565b6000604051905090565b600067ffffffffffffffff82111561031c5761031b610422565b5b61032582610465565b9050602081019050919050565b600081519050919050565b600082825260208201905092915050565b82818337600083830152505050565b60005b8381101561037b578082015181840152602081019050610360565b8381111561038a576000848401525b50505050565b600060028204905060018216806103a857607f821691505b602082108114156103bc576103bb6103f3565b5b50919050565b6103cb82610465565b810181811067ffffffffffffffff821117156103ea576103e9610422565b5b80604052505050565b7f4e487b7100000000000000000000000000000000000000000000000000000000600052602260045260246000fd5b7f4e487b7100000000000000000000000000000000000000000000000000000000600052604160045260246000fd5b600080fd5b600080fd5b600080fd5b600080fd5b6000601f19601f830116905091905056fea264697066735822122068360938ceda0f1cc03c6472589824ce92cc04d83a60cc77403a1f853386a74164736f6c63430008070033",
					"opcodes": "PUSH1 0x80 PUSH1 0x40 MSTORE CALLVALUE DUP1 ISZERO PUSH2 0x10 JUMPI PUSH1 0x0 DUP1 REVERT JUMPDEST POP PUSH2 0x4AC DUP1 PUSH2 0x20 PUSH1 0x0 CODECOPY PUSH1 0x0 RETURN INVALID PUSH1 0x80 PUSH1 0x40 MSTORE CALLVALUE DUP1 ISZERO PUSH2 0x10 JUMPI PUSH1 0x0 DUP1 REVERT JUMPDEST POP PUSH1 0x4 CALLDATASIZE LT PUSH2 0x36 JUMPI PUSH1 0x0 CALLDATALOAD PUSH1 0xE0 SHR DUP1 PUSH4 0x7B38AB89 EQ PUSH2 0x3B JUMPI DUP1 PUSH4 0xE81D53CF EQ PUSH2 0x57 JUMPI JUMPDEST PUSH1 0x0 DUP1 REVERT JUMPDEST PUSH2 0x55 PUSH1 0x4 DUP1 CALLDATASIZE SUB DUP2 ADD SWAP1 PUSH2 0x50 SWAP2 SWAP1 PUSH2 0x238 JUMP JUMPDEST PUSH2 0x75 JUMP JUMPDEST STOP JUMPDEST PUSH2 0x5F PUSH2 0x13A JUMP JUMPDEST PUSH1 0x40 MLOAD PUSH2 0x6C SWAP2 SWAP1 PUSH2 0x2BA JUMP JUMPDEST PUSH1 0x40 MLOAD DUP1 SWAP2 SUB SWAP1 RETURN JUMPDEST PUSH1 0x0 DUP1 DUP1 SLOAD DUP1 PUSH2 0x84 SWAP1 PUSH2 0x390 JUMP JUMPDEST DUP1 PUSH1 0x1F DUP2 EQ PUSH2 0x92 JUMPI PUSH2 0xA8 JUMP JUMPDEST DUP4 PUSH1 0x0 MSTORE PUSH1 0x20 PUSH1 0x0 KECCAK256 PUSH1 0xFF NOT DUP5 AND DUP2 SSTORE PUSH1 0x3F SWAP4 POP POP JUMPDEST POP PUSH1 0x2 DUP3 ADD DUP4 SSTORE PUSH1 0x1 DUP2 ADD SWAP3 POP POP POP PUSH1 0x1 SWAP1 SUB DUP2 SLOAD PUSH1 0x1 AND ISZERO PUSH2 0xDA JUMPI SWAP1 PUSH1 0x0 MSTORE PUSH1 0x20 PUSH1 0x0 KECCAK256 SWAP1 PUSH1 0x20 SWAP2 DUP3 DUP3 DIV ADD SWAP2 SWAP1 MOD JUMPDEST PUSH32 0x6400000000000000000000000000000000000000000000000000000000000000 SWAP1 SWAP2 SWAP1 SWAP2 PUSH1 0x1F SUB PUSH2 0x100 EXP DUP2 SLOAD DUP2 PUSH1 0xFF MUL NOT AND SWAP1 PUSH32 0x100000000000000000000000000000000000000000000000000000000000000 DUP5 DIV MUL OR SWAP1 SSTORE POP POP JUMP JUMPDEST PUSH1 0x0 DUP1 SLOAD PUSH2 0x147 SWAP1 PUSH2 0x390 JUMP JUMPDEST DUP1 PUSH1 0x1F ADD PUSH1 0x20 DUP1 SWAP2 DIV MUL PUSH1 0x20 ADD PUSH1 0x40 MLOAD SWAP1 DUP2 ADD PUSH1 0x40 MSTORE DUP1 SWAP3 SWAP2 SWAP1 DUP2 DUP2 MSTORE PUSH1 0x20 ADD DUP3 DUP1 SLOAD PUSH2 0x173 SWAP1 PUSH2 0x390 JUMP JUMPDEST DUP1 ISZERO PUSH2 0x1C0 JUMPI DUP1 PUSH1 0x1F LT PUSH2 0x195 JUMPI PUSH2 0x100 DUP1 DUP4 SLOAD DIV MUL DUP4 MSTORE SWAP2 PUSH1 0x20 ADD SWAP2 PUSH2 0x1C0 JUMP JUMPDEST DUP3 ADD SWAP2 SWAP1 PUSH1 0x0 MSTORE PUSH1 0x20 PUSH1 0x0 KECCAK256 SWAP1 JUMPDEST DUP2 SLOAD DUP2 MSTORE SWAP1 PUSH1 0x1 ADD SWAP1 PUSH1 0x20 ADD DUP1 DUP4 GT PUSH2 0x1A3 JUMPI DUP3 SWAP1 SUB PUSH1 0x1F AND DUP3 ADD SWAP2 JUMPDEST POP POP POP POP POP DUP2 JUMP JUMPDEST PUSH1 0x0 PUSH2 0x1DB PUSH2 0x1D6 DUP5 PUSH2 0x301 JUMP JUMPDEST PUSH2 0x2DC JUMP JUMPDEST SWAP1 POP DUP3 DUP2 MSTORE PUSH1 0x20 DUP2 ADD DUP5 DUP5 DUP5 ADD GT ISZERO PUSH2 0x1F7 JUMPI PUSH2 0x1F6 PUSH2 0x456 JUMP JUMPDEST JUMPDEST PUSH2 0x202 DUP5 DUP3 DUP6 PUSH2 0x34E JUMP JUMPDEST POP SWAP4 SWAP3 POP POP POP JUMP JUMPDEST PUSH1 0x0 DUP3 PUSH1 0x1F DUP4 ADD SLT PUSH2 0x21F JUMPI PUSH2 0x21E PUSH2 0x451 JUMP JUMPDEST JUMPDEST DUP2 CALLDATALOAD PUSH2 0x22F DUP5 DUP3 PUSH1 0x20 DUP7 ADD PUSH2 0x1C8 JUMP JUMPDEST SWAP2 POP POP SWAP3 SWAP2 POP POP JUMP JUMPDEST PUSH1 0x0 PUSH1 0x20 DUP3 DUP5 SUB SLT ISZERO PUSH2 0x24E JUMPI PUSH2 0x24D PUSH2 0x460 JUMP JUMPDEST JUMPDEST PUSH1 0x0 DUP3 ADD CALLDATALOAD PUSH8 0xFFFFFFFFFFFFFFFF DUP2 GT ISZERO PUSH2 0x26C JUMPI PUSH2 0x26B PUSH2 0x45B JUMP JUMPDEST JUMPDEST PUSH2 0x278 DUP5 DUP3 DUP6 ADD PUSH2 0x20A JUMP JUMPDEST SWAP2 POP POP SWAP3 SWAP2 POP POP JUMP JUMPDEST PUSH1 0x0 PUSH2 0x28C DUP3 PUSH2 0x332 JUMP JUMPDEST PUSH2 0x296 DUP2 DUP6 PUSH2 0x33D JUMP JUMPDEST SWAP4 POP PUSH2 0x2A6 DUP2 DUP6 PUSH1 0x20 DUP7 ADD PUSH2 0x35D JUMP JUMPDEST PUSH2 0x2AF DUP2 PUSH2 0x465 JUMP JUMPDEST DUP5 ADD SWAP2 POP POP SWAP3 SWAP2 POP POP JUMP JUMPDEST PUSH1 0x0 PUSH1 0x20 DUP3 ADD SWAP1 POP DUP2 DUP2 SUB PUSH1 0x0 DUP4 ADD MSTORE PUSH2 0x2D4 DUP2 DUP5 PUSH2 0x281 JUMP JUMPDEST SWAP1 POP SWAP3 SWAP2 POP POP JUMP JUMPDEST PUSH1 0x0 PUSH2 0x2E6 PUSH2 0x2F7 JUMP JUMPDEST SWAP1 POP PUSH2 0x2F2 DUP3 DUP3 PUSH2 0x3C2 JUMP JUMPDEST SWAP2 SWAP1 POP JUMP JUMPDEST PUSH1 0x0 PUSH1 0x40 MLOAD SWAP1 POP SWAP1 JUMP JUMPDEST PUSH1 0x0 PUSH8 0xFFFFFFFFFFFFFFFF DUP3 GT ISZERO PUSH2 0x31C JUMPI PUSH2 0x31B PUSH2 0x422 JUMP JUMPDEST JUMPDEST PUSH2 0x325 DUP3 PUSH2 0x465 JUMP JUMPDEST SWAP1 POP PUSH1 0x20 DUP2 ADD SWAP1 POP SWAP2 SWAP1 POP JUMP JUMPDEST PUSH1 0x0 DUP2 MLOAD SWAP1 POP SWAP2 SWAP1 POP JUMP JUMPDEST PUSH1 0x0 DUP3 DUP3 MSTORE PUSH1 0x20 DUP3 ADD SWAP1 POP SWAP3 SWAP2 POP POP JUMP JUMPDEST DUP3 DUP2 DUP4 CALLDATACOPY PUSH1 0x0 DUP4 DUP4 ADD MSTORE POP POP POP JUMP JUMPDEST PUSH1 0x0 JUMPDEST DUP4 DUP2 LT ISZERO PUSH2 0x37B JUMPI DUP1 DUP3 ADD MLOAD DUP2 DUP5 ADD MSTORE PUSH1 0x20 DUP2 ADD SWAP1 POP PUSH2 0x360 JUMP JUMPDEST DUP4 DUP2 GT ISZERO PUSH2 0x38A JUMPI PUSH1 0x0 DUP5 DUP5 ADD MSTORE JUMPDEST POP POP POP POP JUMP JUMPDEST PUSH1 0x0 PUSH1 0x2 DUP3 DIV SWAP1 POP PUSH1 0x1 DUP3 AND DUP1 PUSH2 0x3A8 JUMPI PUSH1 0x7F DUP3 AND SWAP2 POP JUMPDEST PUSH1 0x20 DUP3 LT DUP2 EQ ISZERO PUSH2 0x3BC JUMPI PUSH2 0x3BB PUSH2 0x3F3 JUMP JUMPDEST JUMPDEST POP SWAP2 SWAP1 POP JUMP JUMPDEST PUSH2 0x3CB DUP3 PUSH2 0x465 JUMP JUMPDEST DUP2 ADD DUP2 DUP2 LT PUSH8 0xFFFFFFFFFFFFFFFF DUP3 GT OR ISZERO PUSH2 0x3EA JUMPI PUSH2 0x3E9 PUSH2 0x422 JUMP JUMPDEST JUMPDEST DUP1 PUSH1 0x40 MSTORE POP POP POP JUMP JUMPDEST PUSH32 0x4E487B7100000000000000000000000000000000000000000000000000000000 PUSH1 0x0 MSTORE PUSH1 0x22 PUSH1 0x4 MSTORE PUSH1 0x24 PUSH1 0x0 REVERT JUMPDEST PUSH32 0x4E487B7100000000000000000000000000000000000000000000000000000000 PUSH1 0x0 MSTORE PUSH1 0x41 PUSH1 0x4 MSTORE PUSH1 0x24 PUSH1 0x0 REVERT JUMPDEST PUSH1 0x0 DUP1 REVERT JUMPDEST PUSH1 0x0 DUP1 REVERT JUMPDEST PUSH1 0x0 DUP1 REVERT JUMPDEST PUSH1 0x0 DUP1 REVERT JUMPDEST PUSH1 0x0 PUSH1 0x1F NOT PUSH1 0x1F DUP4 ADD AND SWAP1 POP SWAP2 SWAP1 POP JUMP INVALID LOG2 PUSH5 0x6970667358 0x22 SLT KECCAK256 PUSH9 0x360938CEDA0F1CC03C PUSH5 0x72589824CE SWAP3 0xCC DIV 0xD8 GASPRICE PUSH1 0xCC PUSH24 0x403A1F853386A74164736F6C634300080700330000000000 "
				},
				"gasEstimates": {
					"creation": {
						"codeDepositCost": "239200",
						"executionCost": "281",
						"totalCost": "239481"
					},
					"external": {
						"arr()": "infinite",
						"push_element(string)": "infinite"
					}
				},
				"methodIdentifiers": {
					"arr()": "e81d53cf",
					"push_element(string)": "7b38ab89"
				}
			},
			"storageLayout": {
				"storage": [
					{
						"astId": 3,
						"contract": "byte_dynamic_array.sol:byte_dynamic_array",
						"label": "arr",
						"offset": 0,
						"slot": "0",
						"type": "t_bytes_storage"
					}
				],
				"types": {
					"t_bytes_storage": {
						"encoding": "bytes",
						"label": "bytes",
						"numberOfBytes": "32"
					}
				}
			},
			"userdoc": {
				"kind": "user",
				"methods": {},
				"version": 1
			}
		}
	}
}