{
	"constructor.sol": {
		"local": {
			"abi": [
				{
					"inputs": [
						{
							"internalType": "uint256",
							"name": "counter",
							"type": "uint256"
						}
					],
					"stateMutability": "nonpayable",
					"type": "constructor"
				},
				{
					"inputs": [],
					"name": "count",
					"outputs": [
						{
							"internalType": "uint256",
							"name": "",
							"type": "uint256"
						}
					],
					"stateMutability": "view",
					"type": "function"
				},
				{
					"inputs": [],
					"name": "counter",
					"outputs": [
						{
							"internalType": "uint256",
							"name": "",
							"type": "uint256"
						}
					],
					"stateMutability": "view",
					"type": "function"
				}
			],
			"devdoc": {
				"kind": "dev",
				"methods": {},
				"version": 1
			},
			"evm": {
				"assembly": "    /* \"constructor.sol\":73:230  contract local... */\n  mstore(0x40, 0x80)\n    /* \"constructor.sol\":143:228  constructor(uint counter)... */\n  callvalue\n  dup1\n  iszero\n  tag_1\n  jumpi\n  0x00\n  dup1\n  revert\ntag_1:\n  pop\n  mload(0x40)\n  sub(codesize, bytecodeSize)\n  dup1\n  bytecodeSize\n  dup4\n  codecopy\n  dup2\n  dup2\n  add\n  0x40\n  mstore\n  dup2\n  add\n  swap1\n  tag_2\n  swap2\n  swap1\n  tag_3\n  jump\t// in\ntag_2:\n    /* \"constructor.sol\":189:190  1 */\n  0x01\n    /* \"constructor.sol\":183:188  count */\n  0x00\n    /* \"constructor.sol\":183:190  count=1 */\n  dup2\n  swap1\n  sstore\n  pop\n    /* \"constructor.sol\":216:221  count */\n  sload(0x00)\n    /* \"constructor.sol\":208:215  counter */\n  dup2\n    /* \"constructor.sol\":208:221  counter+count */\n  tag_6\n  swap2\n  swap1\n  tag_7\n  jump\t// in\ntag_6:\n    /* \"constructor.sol\":200:221  counter=counter+count */\n  swap1\n  pop\n    /* \"constructor.sol\":143:228  constructor(uint counter)... */\n  pop\n    /* \"constructor.sol\":73:230  contract local... */\n  jump(tag_8)\n    /* \"#utility.yul\":7:150   */\ntag_10:\n    /* \"#utility.yul\":64:69   */\n  0x00\n    /* \"#utility.yul\":95:101   */\n  dup2\n    /* \"#utility.yul\":89:102   */\n  mload\n    /* \"#utility.yul\":80:102   */\n  swap1\n  pop\n    /* \"#utility.yul\":111:144   */\n  tag_12\n    /* \"#utility.yul\":138:143   */\n  dup2\n    /* \"#utility.yul\":111:144   */\n  tag_13\n  jump\t// in\ntag_12:\n    /* \"#utility.yul\":7:150   */\n  swap3\n  swap2\n  pop\n  pop\n  jump\t// out\n    /* \"#utility.yul\":156:507   */\ntag_3:\n    /* \"#utility.yul\":226:232   */\n  0x00\n    /* \"#utility.yul\":275:277   */\n  0x20\n    /* \"#utility.yul\":263:272   */\n  dup3\n    /* \"#utility.yul\":254:261   */\n  dup5\n    /* \"#utility.yul\":250:273   */\n  sub\n    /* \"#utility.yul\":246:278   */\n  slt\n    /* \"#utility.yul\":243:362   */\n  iszero\n  tag_15\n  jumpi\n    /* \"#utility.yul\":281:360   */\n  tag_16\n  tag_17\n  jump\t// in\ntag_16:\n    /* \"#utility.yul\":243:362   */\ntag_15:\n    /* \"#utility.yul\":401:402   */\n  0x00\n    /* \"#utility.yul\":426:490   */\n  tag_18\n    /* \"#utility.yul\":482:489   */\n  dup5\n    /* \"#utility.yul\":473:479   */\n  dup3\n    /* \"#utility.yul\":462:471   */\n  dup6\n    /* \"#utility.yul\":458:480   */\n  add\n    /* \"#utility.yul\":426:490   */\n  tag_10\n  jump\t// in\ntag_18:\n    /* \"#utility.yul\":416:490   */\n  swap2\n  pop\n    /* \"#utility.yul\":372:500   */\n  pop\n    /* \"#utility.yul\":156:507   */\n  swap3\n  swap2\n  pop\n  pop\n  jump\t// out\n    /* \"#utility.yul\":594:899   */\ntag_7:\n    /* \"#utility.yul\":634:637   */\n  0x00\n    /* \"#utility.yul\":653:673   */\n  tag_22\n    /* \"#utility.yul\":671:672   */\n  dup3\n    /* \"#utility.yul\":653:673   */\n  tag_23\n  jump\t// in\ntag_22:\n    /* \"#utility.yul\":648:673   */\n  swap2\n  pop\n    /* \"#utility.yul\":687:707   */\n  tag_24\n    /* \"#utility.yul\":705:706   */\n  dup4\n    /* \"#utility.yul\":687:707   */\n  tag_23\n  jump\t// in\ntag_24:\n    /* \"#utility.yul\":682:707   */\n  swap3\n  pop\n    /* \"#utility.yul\":841:842   */\n  dup3\n    /* \"#utility.yul\":773:839   */\n  0xffffffffffffffffffffffffffffffffffffffffffffffffffffffffffffffff\n    /* \"#utility.yul\":769:843   */\n  sub\n    /* \"#utility.yul\":766:767   */\n  dup3\n    /* \"#utility.yul\":763:844   */\n  gt\n    /* \"#utility.yul\":760:867   */\n  iszero\n  tag_25\n  jumpi\n    /* \"#utility.yul\":847:865   */\n  tag_26\n  tag_27\n  jump\t// in\ntag_26:\n    /* \"#utility.yul\":760:867   */\ntag_25:\n    /* \"#utility.yul\":891:892   */\n  dup3\n    /* \"#utility.yul\":888:889   */\n  dup3\n    /* \"#utility.yul\":884:893   */\n  add\n    /* \"#utility.yul\":877:893   */\n  swap1\n  pop\n    /* \"#utility.yul\":594:899   */\n  swap3\n  swap2\n  pop\n  pop\n  jump\t// out\n    /* \"#utility.yul\":905:982   */\ntag_23:\n    /* \"#utility.yul\":942:949   */\n  0x00\n    /* \"#utility.yul\":971:976   */\n  dup2\n    /* \"#utility.yul\":960:976   */\n  swap1\n  pop\n    /* \"#utility.yul\":905:982   */\n  swap2\n  swap1\n  pop\n  jump\t// out\n    /* \"#utility.yul\":988:1168   */\ntag_27:\n    /* \"#utility.yul\":1036:1113   */\n  0x4e487b7100000000000000000000000000000000000000000000000000000000\n    /* \"#utility.yul\":1033:1034   */\n  0x00\n    /* \"#utility.yul\":1026:1114   */\n  mstore\n    /* \"#utility.yul\":1133:1137   */\n  0x11\n    /* \"#utility.yul\":1130:1131   */\n  0x04\n    /* \"#utility.yul\":1123:1138   */\n  mstore\n    /* \"#utility.yul\":1157:1161   */\n  0x24\n    /* \"#utility.yul\":1154:1155   */\n  0x00\n    /* \"#utility.yul\":1147:1162   */\n  revert\n    /* \"#utility.yul\":1297:1414   */\ntag_17:\n    /* \"#utility.yul\":1406:1407   */\n  0x00\n    /* \"#utility.yul\":1403:1404   */\n  dup1\n    /* \"#utility.yul\":1396:1408   */\n  revert\n    /* \"#utility.yul\":1420:1542   */\ntag_13:\n    /* \"#utility.yul\":1493:1517   */\n  tag_34\n    /* \"#utility.yul\":1511:1516   */\n  dup2\n    /* \"#utility.yul\":1493:1517   */\n  tag_23\n  jump\t// in\ntag_34:\n    /* \"#utility.yul\":1486:1491   */\n  dup2\n    /* \"#utility.yul\":1483:1518   */\n  eq\n    /* \"#utility.yul\":1473:1536   */\n  tag_35\n  jumpi\n    /* \"#utility.yul\":1532:1533   */\n  0x00\n    /* \"#utility.yul\":1529:1530   */\n  dup1\n    /* \"#utility.yul\":1522:1534   */\n  revert\n    /* \"#utility.yul\":1473:1536   */\ntag_35:\n    /* \"#utility.yul\":1420:1542   */\n  pop\n  jump\t// out\n    /* \"constructor.sol\":73:230  contract local... */\ntag_8:\n  dataSize(sub_0)\n  dup1\n  dataOffset(sub_0)\n  0x00\n  codecopy\n  0x00\n  return\nstop\n\nsub_0: assembly {\n        /* \"constructor.sol\":73:230  contract local... */\n      mstore(0x40, 0x80)\n      callvalue\n      dup1\n      iszero\n      tag_1\n      jumpi\n      0x00\n      dup1\n      revert\n    tag_1:\n      pop\n      jumpi(tag_2, lt(calldatasize, 0x04))\n      shr(0xe0, calldataload(0x00))\n      dup1\n      0x06661abd\n      eq\n      tag_3\n      jumpi\n      dup1\n      0x61bc221a\n      eq\n      tag_4\n      jumpi\n    tag_2:\n      0x00\n      dup1\n      revert\n        /* \"constructor.sol\":94:111  uint public count */\n    tag_3:\n      tag_5\n      tag_6\n      jump\t// in\n    tag_5:\n      mload(0x40)\n      tag_7\n      swap2\n      swap1\n      tag_8\n      jump\t// in\n    tag_7:\n      mload(0x40)\n      dup1\n      swap2\n      sub\n      swap1\n      return\n        /* \"constructor.sol\":117:136  uint public counter */\n    tag_4:\n      tag_9\n      tag_10\n      jump\t// in\n    tag_9:\n      mload(0x40)\n      tag_11\n      swap2\n      swap1\n      tag_8\n      jump\t// in\n    tag_11:\n      mload(0x40)\n      dup1\n      swap2\n      sub\n      swap1\n      return\n        /* \"constructor.sol\":94:111  uint public count */\n    tag_6:\n      sload(0x00)\n      dup2\n      jump\t// out\n        /* \"constructor.sol\":117:136  uint public counter */\n    tag_10:\n      sload(0x01)\n      dup2\n      jump\t// out\n        /* \"#utility.yul\":7:125   */\n    tag_13:\n        /* \"#utility.yul\":94:118   */\n      tag_15\n        /* \"#utility.yul\":112:117   */\n      dup2\n        /* \"#utility.yul\":94:118   */\n      tag_16\n      jump\t// in\n    tag_15:\n        /* \"#utility.yul\":89:92   */\n      dup3\n        /* \"#utility.yul\":82:119   */\n      mstore\n        /* \"#utility.yul\":7:125   */\n      pop\n      pop\n      jump\t// out\n        /* \"#utility.yul\":131:353   */\n    tag_8:\n        /* \"#utility.yul\":224:228   */\n      0x00\n        /* \"#utility.yul\":262:264   */\n      0x20\n        /* \"#utility.yul\":251:260   */\n      dup3\n        /* \"#utility.yul\":247:265   */\n      add\n        /* \"#utility.yul\":239:265   */\n      swap1\n      pop\n        /* \"#utility.yul\":275:346   */\n      tag_18\n        /* \"#utility.yul\":343:344   */\n      0x00\n        /* \"#utility.yul\":332:341   */\n      dup4\n        /* \"#utility.yul\":328:345   */\n      add\n        /* \"#utility.yul\":319:325   */\n      dup5\n        /* \"#utility.yul\":275:346   */\n      tag_13\n      jump\t// in\n    tag_18:\n        /* \"#utility.yul\":131:353   */\n      swap3\n      swap2\n      pop\n      pop\n      jump\t// out\n        /* \"#utility.yul\":359:436   */\n    tag_16:\n        /* \"#utility.yul\":396:403   */\n      0x00\n        /* \"#utility.yul\":425:430   */\n      dup2\n        /* \"#utility.yul\":414:430   */\n      swap1\n      pop\n        /* \"#utility.yul\":359:436   */\n      swap2\n      swap1\n      pop\n      jump\t// out\n\n    auxdata: 0xa26469706673582212203a827febbd92ed7e726c534ebcd6d297b65ccc1380ecbca9b29968d268efd98464736f6c63430008070033\n}\n",
				"bytecode": {
					"linkReferences": {},
					"object": "608060405234801561001057600080fd5b5060405161022838038061022883398181016040528101906100329190610065565b6001600081905550600054816100489190610092565b90505061013d565b60008151905061005f81610126565b92915050565b60006020828403121561007b5761007a610121565b5b600061008984828501610050565b91505092915050565b600061009d826100e8565b91506100a8836100e8565b9250827fffffffffffffffffffffffffffffffffffffffffffffffffffffffffffffffff038211156100dd576100dc6100f2565b5b828201905092915050565b6000819050919050565b7f4e487b7100000000000000000000000000000000000000000000000000000000600052601160045260246000fd5b600080fd5b61012f816100e8565b811461013a57600080fd5b50565b60dd8061014b6000396000f3fe6080604052348015600f57600080fd5b506004361060325760003560e01c806306661abd14603757806361bc221a146051575b600080fd5b603d606b565b604051604891906084565b60405180910390f35b60576071565b604051606291906084565b60405180910390f35b60005481565b60015481565b607e81609d565b82525050565b6000602082019050609760008301846077565b92915050565b600081905091905056fea26469706673582212203a827febbd92ed7e726c534ebcd6d297b65ccc1380ecbca9b29968d268efd98464736f6c63430008070033",
					"opcodes": "PUSH1 0x80 PUSH1 0x40 MSTORE CALLVALUE DUP1 ISZERO PUSH2 0x10 JUMPI PUSH1 0x0 DUP1 REVERT JUMPDEST POP PUSH1 0x40 MLOAD PUSH2 0x228 CODESIZE SUB DUP1 PUSH2 0x228 DUP4 CODECOPY DUP2 DUP2 ADD PUSH1 0x40 MSTORE DUP2 ADD SWAP1 PUSH2 0x32 SWAP2 SWAP1 PUSH2 0x65 JUMP JUMPDEST PUSH1 0x1 PUSH1 0x0 DUP2 SWAP1 SSTORE POP PUSH1 0x0 SLOAD DUP2 PUSH2 0x48 SWAP2 SWAP1 PUSH2 0x92 JUMP JUMPDEST SWAP1 POP POP PUSH2 0x13D JUMP JUMPDEST PUSH1 0x0 DUP2 MLOAD SWAP1 POP PUSH2 0x5F DUP2 PUSH2 0x126 JUMP JUMPDEST SWAP3 SWAP2 POP POP JUMP JUMPDEST PUSH1 0x0 PUSH1 0x20 DUP3 DUP5 SUB SLT ISZERO PUSH2 0x7B JUMPI PUSH2 0x7A PUSH2 0x121 JUMP JUMPDEST JUMPDEST PUSH1 0x0 PUSH2 0x89 DUP5 DUP3 DUP6 ADD PUSH2 0x50 JUMP JUMPDEST SWAP2 POP POP SWAP3 SWAP2 POP POP JUMP JUMPDEST PUSH1 0x0 PUSH2 0x9D DUP3 PUSH2 0xE8 JUMP JUMPDEST SWAP2 POP PUSH2 0xA8 DUP4 PUSH2 0xE8 JUMP JUMPDEST SWAP3 POP DUP3 PUSH32 0xFFFFFFFFFFFFFFFFFFFFFFFFFFFFFFFFFFFFFFFFFFFFFFFFFFFFFFFFFFFFFFFF SUB DUP3 GT ISZERO PUSH2 0xDD JUMPI PUSH2 0xDC PUSH2 0xF2 JUMP JUMPDEST JUMPDEST DUP3 DUP3 ADD SWAP1 POP SWAP3 SWAP2 POP POP JUMP JUMPDEST PUSH1 0x0 DUP2 SWAP1 POP SWAP2 SWAP1 POP JUMP JUMPDEST PUSH32 0x4E487B7100000000000000000000000000000000000000000000000000000000 PUSH1 0x0 MSTORE PUSH1 0x11 PUSH1 0x4 MSTORE PUSH1 0x24 PUSH1 0x0 REVERT JUMPDEST PUSH1 0x0 DUP1 REVERT JUMPDEST PUSH2 0x12F DUP2 PUSH2 0xE8 JUMP JUMPDEST DUP2 EQ PUSH2 0x13A JUMPI PUSH1 0x0 DUP1 REVERT JUMPDEST POP JUMP JUMPDEST PUSH1 0xDD DUP1 PUSH2 0x14B PUSH1 0x0 CODECOPY PUSH1 0x0 RETURN INVALID PUSH1 0x80 PUSH1 0x40 MSTORE CALLVALUE DUP1 ISZERO PUSH1 0xF JUMPI PUSH1 0x0 DUP1 REVERT JUMPDEST POP PUSH1 0x4 CALLDATASIZE LT PUSH1 0x32 JUMPI PUSH1 0x0 CALLDATALOAD PUSH1 0xE0 SHR DUP1 PUSH4 0x6661ABD EQ PUSH1 0x37 JUMPI DUP1 PUSH4 0x61BC221A EQ PUSH1 0x51 JUMPI JUMPDEST PUSH1 0x0 DUP1 REVERT JUMPDEST PUSH1 0x3D PUSH1 0x6B JUMP JUMPDEST PUSH1 0x40 MLOAD PUSH1 0x48 SWAP2 SWAP1 PUSH1 0x84 JUMP JUMPDEST PUSH1 0x40 MLOAD DUP1 SWAP2 SUB SWAP1 RETURN JUMPDEST PUSH1 0x57 PUSH1 0x71 JUMP JUMPDEST PUSH1 0x40 MLOAD PUSH1 0x62 SWAP2 SWAP1 PUSH1 0x84 JUMP JUMPDEST PUSH1 0x40 MLOAD DUP1 SWAP2 SUB SWAP1 RETURN JUMPDEST PUSH1 0x0 SLOAD DUP2 JUMP JUMPDEST PUSH1 0x1 SLOAD DUP2 JUMP JUMPDEST PUSH1 0x7E DUP2 PUSH1 0x9D JUMP JUMPDEST DUP3 MSTORE POP POP JUMP JUMPDEST PUSH1 0x0 PUSH1 0x20 DUP3 ADD SWAP1 POP PUSH1 0x97 PUSH1 0x0 DUP4 ADD DUP5 PUSH1 0x77 JUMP JUMPDEST SWAP3 SWAP2 POP POP JUMP JUMPDEST PUSH1 0x0 DUP2 SWAP1 POP SWAP2 SWAP1 POP JUMP INVALID LOG2 PUSH5 0x6970667358 0x22 SLT KECCAK256 GASPRICE DUP3 PUSH32 0xEBBD92ED7E726C534EBCD6D297B65CCC1380ECBCA9B29968D268EFD98464736F PUSH13 0x63430008070033000000000000 "
				},
				"gasEstimates": {
					"creation": {
						"codeDepositCost": "44200",
						"executionCost": "infinite",
						"totalCost": "infinite"
					},
					"external": {
						"count()": "2407",
						"counter()": "2429"
					}
				},
				"methodIdentifiers": {
					"count()": "06661abd",
					"counter()": "61bc221a"
				}
			},
			"storageLayout": {
				"storage": [
					{
						"astId": 3,
						"contract": "constructor.sol:local",
						"label": "count",
						"offset": 0,
						"slot": "0",
						"type": "t_uint256"
					},
					{
						"astId": 5,
						"contract": "constructor.sol:local",
						"label": "counter",
						"offset": 0,
						"slot": "1",
						"type": "t_uint256"
					}
				],
				"types": {
					"t_uint256": {
						"encoding": "inplace",
						"label": "uint256",
						"numberOfBytes": "32"
					}
				}
			},
			"userdoc": {
				"kind": "user",
				"methods": {},
				"version": 1
			}
		}
	}
}