{
	"function.sol": {
		"local": {
			"abi": [
				{
					"inputs": [],
					"name": "GetPrice",
					"outputs": [
						{
							"internalType": "uint256",
							"name": "",
							"type": "uint256"
						}
					],
					"stateMutability": "view",
					"type": "function"
				},
				{
					"inputs": [],
					"name": "setPrice",
					"outputs": [
						{
							"internalType": "uint256",
							"name": "",
							"type": "uint256"
						}
					],
					"stateMutability": "nonpayable",
					"type": "function"
				}
			],
			"devdoc": {
				"kind": "dev",
				"methods": {},
				"version": 1
			},
			"evm": {
				"assembly": "    /* \"function.sol\":73:323  contract local... */\n  mstore(0x40, 0x80)\n    /* \"function.sol\":107:111  1000 */\n  0x03e8\n    /* \"function.sol\":94:111  uint price = 1000 */\n  0x00\n  sstore\n    /* \"function.sol\":73:323  contract local... */\n  callvalue\n  dup1\n  iszero\n  tag_1\n  jumpi\n  0x00\n  dup1\n  revert\ntag_1:\n  pop\n  dataSize(sub_0)\n  dup1\n  dataOffset(sub_0)\n  0x00\n  codecopy\n  0x00\n  return\nstop\n\nsub_0: assembly {\n        /* \"function.sol\":73:323  contract local... */\n      mstore(0x40, 0x80)\n      callvalue\n      dup1\n      iszero\n      tag_1\n      jumpi\n      0x00\n      dup1\n      revert\n    tag_1:\n      pop\n      jumpi(tag_2, lt(calldatasize, 0x04))\n      shr(0xe0, calldataload(0x00))\n      dup1\n      0x6d90164e\n      eq\n      tag_3\n      jumpi\n      dup1\n      0xda93d0d1\n      eq\n      tag_4\n      jumpi\n    tag_2:\n      0x00\n      dup1\n      revert\n        /* \"function.sol\":118:198  function GetPrice() public view returns(uint)... */\n    tag_3:\n      tag_5\n      tag_6\n      jump\t// in\n    tag_5:\n      mload(0x40)\n      tag_7\n      swap2\n      swap1\n      tag_8\n      jump\t// in\n    tag_7:\n      mload(0x40)\n      dup1\n      swap2\n      sub\n      swap1\n      return\n        /* \"function.sol\":205:318  function setPrice() public returns(uint)... */\n    tag_4:\n      tag_9\n      tag_10\n      jump\t// in\n    tag_9:\n      mload(0x40)\n      tag_11\n      swap2\n      swap1\n      tag_8\n      jump\t// in\n    tag_11:\n      mload(0x40)\n      dup1\n      swap2\n      sub\n      swap1\n      return\n        /* \"function.sol\":118:198  function GetPrice() public view returns(uint)... */\n    tag_6:\n        /* \"function.sol\":158:162  uint */\n      0x00\n        /* \"function.sol\":185:190  price */\n      dup1\n      sload\n        /* \"function.sol\":178:190  return price */\n      swap1\n      pop\n        /* \"function.sol\":118:198  function GetPrice() public view returns(uint)... */\n      swap1\n      jump\t// out\n        /* \"function.sol\":205:318  function setPrice() public returns(uint)... */\n    tag_10:\n        /* \"function.sol\":240:244  uint */\n      0x00\n        /* \"function.sol\":284:288  6666 */\n      0x1a0a\n        /* \"function.sol\":281:283  10 */\n      0x0a\n        /* \"function.sol\":275:280  price */\n      sload(0x00)\n        /* \"function.sol\":275:283  price/10 */\n      tag_14\n      swap2\n      swap1\n      tag_15\n      jump\t// in\n    tag_14:\n        /* \"function.sol\":275:288  price/10+6666 */\n      tag_16\n      swap2\n      swap1\n      tag_17\n      jump\t// in\n    tag_16:\n        /* \"function.sol\":269:274  price */\n      0x00\n        /* \"function.sol\":269:288  price=price/10+6666 */\n      dup2\n      swap1\n      sstore\n      pop\n        /* \"function.sol\":305:310  price */\n      sload(0x00)\n        /* \"function.sol\":298:310  return price */\n      swap1\n      pop\n        /* \"function.sol\":205:318  function setPrice() public returns(uint)... */\n      swap1\n      jump\t// out\n        /* \"#utility.yul\":7:125   */\n    tag_19:\n        /* \"#utility.yul\":94:118   */\n      tag_21\n        /* \"#utility.yul\":112:117   */\n      dup2\n        /* \"#utility.yul\":94:118   */\n      tag_22\n      jump\t// in\n    tag_21:\n        /* \"#utility.yul\":89:92   */\n      dup3\n        /* \"#utility.yul\":82:119   */\n      mstore\n        /* \"#utility.yul\":7:125   */\n      pop\n      pop\n      jump\t// out\n        /* \"#utility.yul\":131:353   */\n    tag_8:\n        /* \"#utility.yul\":224:228   */\n      0x00\n        /* \"#utility.yul\":262:264   */\n      0x20\n        /* \"#utility.yul\":251:260   */\n      dup3\n        /* \"#utility.yul\":247:265   */\n      add\n        /* \"#utility.yul\":239:265   */\n      swap1\n      pop\n        /* \"#utility.yul\":275:346   */\n      tag_24\n        /* \"#utility.yul\":343:344   */\n      0x00\n        /* \"#utility.yul\":332:341   */\n      dup4\n        /* \"#utility.yul\":328:345   */\n      add\n        /* \"#utility.yul\":319:325   */\n      dup5\n        /* \"#utility.yul\":275:346   */\n      tag_19\n      jump\t// in\n    tag_24:\n        /* \"#utility.yul\":131:353   */\n      swap3\n      swap2\n      pop\n      pop\n      jump\t// out\n        /* \"#utility.yul\":359:664   */\n    tag_17:\n        /* \"#utility.yul\":399:402   */\n      0x00\n        /* \"#utility.yul\":418:438   */\n      tag_26\n        /* \"#utility.yul\":436:437   */\n      dup3\n        /* \"#utility.yul\":418:438   */\n      tag_22\n      jump\t// in\n    tag_26:\n        /* \"#utility.yul\":413:438   */\n      swap2\n      pop\n        /* \"#utility.yul\":452:472   */\n      tag_27\n        /* \"#utility.yul\":470:471   */\n      dup4\n        /* \"#utility.yul\":452:472   */\n      tag_22\n      jump\t// in\n    tag_27:\n        /* \"#utility.yul\":447:472   */\n      swap3\n      pop\n        /* \"#utility.yul\":606:607   */\n      dup3\n        /* \"#utility.yul\":538:604   */\n      0xffffffffffffffffffffffffffffffffffffffffffffffffffffffffffffffff\n        /* \"#utility.yul\":534:608   */\n      sub\n        /* \"#utility.yul\":531:532   */\n      dup3\n        /* \"#utility.yul\":528:609   */\n      gt\n        /* \"#utility.yul\":525:632   */\n      iszero\n      tag_28\n      jumpi\n        /* \"#utility.yul\":612:630   */\n      tag_29\n      tag_30\n      jump\t// in\n    tag_29:\n        /* \"#utility.yul\":525:632   */\n    tag_28:\n        /* \"#utility.yul\":656:657   */\n      dup3\n        /* \"#utility.yul\":653:654   */\n      dup3\n        /* \"#utility.yul\":649:658   */\n      add\n        /* \"#utility.yul\":642:658   */\n      swap1\n      pop\n        /* \"#utility.yul\":359:664   */\n      swap3\n      swap2\n      pop\n      pop\n      jump\t// out\n        /* \"#utility.yul\":670:855   */\n    tag_15:\n        /* \"#utility.yul\":710:711   */\n      0x00\n        /* \"#utility.yul\":727:747   */\n      tag_32\n        /* \"#utility.yul\":745:746   */\n      dup3\n        /* \"#utility.yul\":727:747   */\n      tag_22\n      jump\t// in\n    tag_32:\n        /* \"#utility.yul\":722:747   */\n      swap2\n      pop\n        /* \"#utility.yul\":761:781   */\n      tag_33\n        /* \"#utility.yul\":779:780   */\n      dup4\n        /* \"#utility.yul\":761:781   */\n      tag_22\n      jump\t// in\n    tag_33:\n        /* \"#utility.yul\":756:781   */\n      swap3\n      pop\n        /* \"#utility.yul\":800:801   */\n      dup3\n        /* \"#utility.yul\":790:825   */\n      tag_34\n      jumpi\n        /* \"#utility.yul\":805:823   */\n      tag_35\n      tag_36\n      jump\t// in\n    tag_35:\n        /* \"#utility.yul\":790:825   */\n    tag_34:\n        /* \"#utility.yul\":847:848   */\n      dup3\n        /* \"#utility.yul\":844:845   */\n      dup3\n        /* \"#utility.yul\":840:849   */\n      div\n        /* \"#utility.yul\":835:849   */\n      swap1\n      pop\n        /* \"#utility.yul\":670:855   */\n      swap3\n      swap2\n      pop\n      pop\n      jump\t// out\n        /* \"#utility.yul\":861:938   */\n    tag_22:\n        /* \"#utility.yul\":898:905   */\n      0x00\n        /* \"#utility.yul\":927:932   */\n      dup2\n        /* \"#utility.yul\":916:932   */\n      swap1\n      pop\n        /* \"#utility.yul\":861:938   */\n      swap2\n      swap1\n      pop\n      jump\t// out\n        /* \"#utility.yul\":944:1124   */\n    tag_30:\n        /* \"#utility.yul\":992:1069   */\n      0x4e487b7100000000000000000000000000000000000000000000000000000000\n        /* \"#utility.yul\":989:990   */\n      0x00\n        /* \"#utility.yul\":982:1070   */\n      mstore\n        /* \"#utility.yul\":1089:1093   */\n      0x11\n        /* \"#utility.yul\":1086:1087   */\n      0x04\n        /* \"#utility.yul\":1079:1094   */\n      mstore\n        /* \"#utility.yul\":1113:1117   */\n      0x24\n        /* \"#utility.yul\":1110:1111   */\n      0x00\n        /* \"#utility.yul\":1103:1118   */\n      revert\n        /* \"#utility.yul\":1130:1310   */\n    tag_36:\n        /* \"#utility.yul\":1178:1255   */\n      0x4e487b7100000000000000000000000000000000000000000000000000000000\n        /* \"#utility.yul\":1175:1176   */\n      0x00\n        /* \"#utility.yul\":1168:1256   */\n      mstore\n        /* \"#utility.yul\":1275:1279   */\n      0x12\n        /* \"#utility.yul\":1272:1273   */\n      0x04\n        /* \"#utility.yul\":1265:1280   */\n      mstore\n        /* \"#utility.yul\":1299:1303   */\n      0x24\n        /* \"#utility.yul\":1296:1297   */\n      0x00\n        /* \"#utility.yul\":1289:1304   */\n      revert\n\n    auxdata: 0xa2646970667358221220405c4d012ce57996fca5ae98fd5e97dd9e35f248e3e28bb934a3f8de0cb2e57464736f6c63430008070033\n}\n",
				"bytecode": {
					"linkReferences": {},
					"object": "60806040526103e860005534801561001657600080fd5b506101fb806100266000396000f3fe608060405234801561001057600080fd5b50600436106100365760003560e01c80636d90164e1461003b578063da93d0d114610059575b600080fd5b610043610077565b60405161005091906100bb565b60405180910390f35b610061610080565b60405161006e91906100bb565b60405180910390f35b60008054905090565b6000611a0a600a600054610094919061012c565b61009e91906100d6565b600081905550600054905090565b6100b58161015d565b82525050565b60006020820190506100d060008301846100ac565b92915050565b60006100e18261015d565b91506100ec8361015d565b9250827fffffffffffffffffffffffffffffffffffffffffffffffffffffffffffffffff0382111561012157610120610167565b5b828201905092915050565b60006101378261015d565b91506101428361015d565b92508261015257610151610196565b5b828204905092915050565b6000819050919050565b7f4e487b7100000000000000000000000000000000000000000000000000000000600052601160045260246000fd5b7f4e487b7100000000000000000000000000000000000000000000000000000000600052601260045260246000fdfea2646970667358221220405c4d012ce57996fca5ae98fd5e97dd9e35f248e3e28bb934a3f8de0cb2e57464736f6c63430008070033",
					"opcodes": "PUSH1 0x80 PUSH1 0x40 MSTORE PUSH2 0x3E8 PUSH1 0x0 SSTORE CALLVALUE DUP1 ISZERO PUSH2 0x16 JUMPI PUSH1 0x0 DUP1 REVERT JUMPDEST POP PUSH2 0x1FB DUP1 PUSH2 0x26 PUSH1 0x0 CODECOPY PUSH1 0x0 RETURN INVALID PUSH1 0x80 PUSH1 0x40 MSTORE CALLVALUE DUP1 ISZERO PUSH2 0x10 JUMPI PUSH1 0x0 DUP1 REVERT JUMPDEST POP PUSH1 0x4 CALLDATASIZE LT PUSH2 0x36 JUMPI PUSH1 0x0 CALLDATALOAD PUSH1 0xE0 SHR DUP1 PUSH4 0x6D90164E EQ PUSH2 0x3B JUMPI DUP1 PUSH4 0xDA93D0D1 EQ PUSH2 0x59 JUMPI JUMPDEST PUSH1 0x0 DUP1 REVERT JUMPDEST PUSH2 0x43 PUSH2 0x77 JUMP JUMPDEST PUSH1 0x40 MLOAD PUSH2 0x50 SWAP2 SWAP1 PUSH2 0xBB JUMP JUMPDEST PUSH1 0x40 MLOAD DUP1 SWAP2 SUB SWAP1 RETURN JUMPDEST PUSH2 0x61 PUSH2 0x80 JUMP JUMPDEST PUSH1 0x40 MLOAD PUSH2 0x6E SWAP2 SWAP1 PUSH2 0xBB JUMP JUMPDEST PUSH1 0x40 MLOAD DUP1 SWAP2 SUB SWAP1 RETURN JUMPDEST PUSH1 0x0 DUP1 SLOAD SWAP1 POP SWAP1 JUMP JUMPDEST PUSH1 0x0 PUSH2 0x1A0A PUSH1 0xA PUSH1 0x0 SLOAD PUSH2 0x94 SWAP2 SWAP1 PUSH2 0x12C JUMP JUMPDEST PUSH2 0x9E SWAP2 SWAP1 PUSH2 0xD6 JUMP JUMPDEST PUSH1 0x0 DUP2 SWAP1 SSTORE POP PUSH1 0x0 SLOAD SWAP1 POP SWAP1 JUMP JUMPDEST PUSH2 0xB5 DUP2 PUSH2 0x15D JUMP JUMPDEST DUP3 MSTORE POP POP JUMP JUMPDEST PUSH1 0x0 PUSH1 0x20 DUP3 ADD SWAP1 POP PUSH2 0xD0 PUSH1 0x0 DUP4 ADD DUP5 PUSH2 0xAC JUMP JUMPDEST SWAP3 SWAP2 POP POP JUMP JUMPDEST PUSH1 0x0 PUSH2 0xE1 DUP3 PUSH2 0x15D JUMP JUMPDEST SWAP2 POP PUSH2 0xEC DUP4 PUSH2 0x15D JUMP JUMPDEST SWAP3 POP DUP3 PUSH32 0xFFFFFFFFFFFFFFFFFFFFFFFFFFFFFFFFFFFFFFFFFFFFFFFFFFFFFFFFFFFFFFFF SUB DUP3 GT ISZERO PUSH2 0x121 JUMPI PUSH2 0x120 PUSH2 0x167 JUMP JUMPDEST JUMPDEST DUP3 DUP3 ADD SWAP1 POP SWAP3 SWAP2 POP POP JUMP JUMPDEST PUSH1 0x0 PUSH2 0x137 DUP3 PUSH2 0x15D JUMP JUMPDEST SWAP2 POP PUSH2 0x142 DUP4 PUSH2 0x15D JUMP JUMPDEST SWAP3 POP DUP3 PUSH2 0x152 JUMPI PUSH2 0x151 PUSH2 0x196 JUMP JUMPDEST JUMPDEST DUP3 DUP3 DIV SWAP1 POP SWAP3 SWAP2 POP POP JUMP JUMPDEST PUSH1 0x0 DUP2 SWAP1 POP SWAP2 SWAP1 POP JUMP JUMPDEST PUSH32 0x4E487B7100000000000000000000000000000000000000000000000000000000 PUSH1 0x0 MSTORE PUSH1 0x11 PUSH1 0x4 MSTORE PUSH1 0x24 PUSH1 0x0 REVERT JUMPDEST PUSH32 0x4E487B7100000000000000000000000000000000000000000000000000000000 PUSH1 0x0 MSTORE PUSH1 0x12 PUSH1 0x4 MSTORE PUSH1 0x24 PUSH1 0x0 REVERT INVALID LOG2 PUSH5 0x6970667358 0x22 SLT KECCAK256 BLOCKHASH 0x5C 0x4D ADD 0x2C 0xE5 PUSH26 0x96FCA5AE98FD5E97DD9E35F248E3E28BB934A3F8DE0CB2E57464 PUSH20 0x6F6C634300080700330000000000000000000000 "
				},
				"gasEstimates": {
					"creation": {
						"codeDepositCost": "101400",
						"executionCost": "22253",
						"totalCost": "123653"
					},
					"external": {
						"GetPrice()": "2415",
						"setPrice()": "infinite"
					}
				},
				"methodIdentifiers": {
					"GetPrice()": "6d90164e",
					"setPrice()": "da93d0d1"
				}
			},
			"storageLayout": {
				"storage": [
					{
						"astId": 4,
						"contract": "function.sol:local",
						"label": "price",
						"offset": 0,
						"slot": "0",
						"type": "t_uint256"
					}
				],
				"types": {
					"t_uint256": {
						"encoding": "inplace",
						"label": "uint256",
						"numberOfBytes": "32"
					}
				}
			},
			"userdoc": {
				"kind": "user",
				"methods": {},
				"version": 1
			}
		}
	}
}