{
	"integers.sol": {
		"local": {
			"abi": [
				{
					"inputs": [],
					"name": "fakemoney",
					"outputs": [
						{
							"internalType": "int256",
							"name": "",
							"type": "int256"
						}
					],
					"stateMutability": "view",
					"type": "function"
				},
				{
					"inputs": [],
					"name": "money",
					"outputs": [
						{
							"internalType": "uint8",
							"name": "",
							"type": "uint8"
						}
					],
					"stateMutability": "view",
					"type": "function"
				},
				{
					"inputs": [],
					"name": "negmoney",
					"outputs": [
						{
							"internalType": "int256",
							"name": "",
							"type": "int256"
						}
					],
					"stateMutability": "view",
					"type": "function"
				},
				{
					"inputs": [],
					"name": "realmoney",
					"outputs": [
						{
							"internalType": "uint8",
							"name": "",
							"type": "uint8"
						}
					],
					"stateMutability": "view",
					"type": "function"
				}
			],
			"devdoc": {
				"kind": "dev",
				"methods": {},
				"version": 1
			},
			"evm": {
				"assembly": "    /* \"integers.sol\":73:331  contract local {... */\n  mstore(0x40, 0x80)\n    /* \"integers.sol\":113:114  5 */\n  0x05\n    /* \"integers.sol\":94:114  uint8 public money=5 */\n  0x00\n  dup1\n  0x0100\n  exp\n  dup2\n  sload\n  dup2\n  0xff\n  mul\n  not\n  and\n  swap1\n  dup4\n  0xff\n  and\n  mul\n  or\n  swap1\n  sstore\n  pop\n    /* \"integers.sol\":143:147  -444 */\n  0xfffffffffffffffffffffffffffffffffffffffffffffffffffffffffffffe44\n    /* \"integers.sol\":120:147  int256 public negmoney=-444 */\n  0x01\n  sstore\n    /* \"integers.sol\":73:331  contract local {... */\n  callvalue\n  dup1\n  iszero\n  tag_1\n  jumpi\n  0x00\n  dup1\n  revert\ntag_1:\n  pop\n  dataSize(sub_0)\n  dup1\n  dataOffset(sub_0)\n  0x00\n  codecopy\n  0x00\n  return\nstop\n\nsub_0: assembly {\n        /* \"integers.sol\":73:331  contract local {... */\n      mstore(0x40, 0x80)\n      callvalue\n      dup1\n      iszero\n      tag_1\n      jumpi\n      0x00\n      dup1\n      revert\n    tag_1:\n      pop\n      jumpi(tag_2, lt(calldatasize, 0x04))\n      shr(0xe0, calldataload(0x00))\n      dup1\n      0x4ddd108a\n      eq\n      tag_3\n      jumpi\n      dup1\n      0x733924cd\n      eq\n      tag_4\n      jumpi\n      dup1\n      0xb7b2a6b8\n      eq\n      tag_5\n      jumpi\n      dup1\n      0xf3f6962a\n      eq\n      tag_6\n      jumpi\n    tag_2:\n      0x00\n      dup1\n      revert\n        /* \"integers.sol\":94:114  uint8 public money=5 */\n    tag_3:\n      tag_7\n      tag_8\n      jump\t// in\n    tag_7:\n      mload(0x40)\n      tag_9\n      swap2\n      swap1\n      tag_10\n      jump\t// in\n    tag_9:\n      mload(0x40)\n      dup1\n      swap2\n      sub\n      swap1\n      return\n        /* \"integers.sol\":155:238  function realmoney() public view returns (uint8)... */\n    tag_4:\n      tag_11\n      tag_12\n      jump\t// in\n    tag_11:\n      mload(0x40)\n      tag_13\n      swap2\n      swap1\n      tag_10\n      jump\t// in\n    tag_13:\n      mload(0x40)\n      dup1\n      swap2\n      sub\n      swap1\n      return\n        /* \"integers.sol\":243:329  function fakemoney() public view returns (int256)... */\n    tag_5:\n      tag_14\n      tag_15\n      jump\t// in\n    tag_14:\n      mload(0x40)\n      tag_16\n      swap2\n      swap1\n      tag_17\n      jump\t// in\n    tag_16:\n      mload(0x40)\n      dup1\n      swap2\n      sub\n      swap1\n      return\n        /* \"integers.sol\":120:147  int256 public negmoney=-444 */\n    tag_6:\n      tag_18\n      tag_19\n      jump\t// in\n    tag_18:\n      mload(0x40)\n      tag_20\n      swap2\n      swap1\n      tag_17\n      jump\t// in\n    tag_20:\n      mload(0x40)\n      dup1\n      swap2\n      sub\n      swap1\n      return\n        /* \"integers.sol\":94:114  uint8 public money=5 */\n    tag_8:\n      0x00\n      dup1\n      sload\n      swap1\n      0x0100\n      exp\n      swap1\n      div\n      0xff\n      and\n      dup2\n      jump\t// out\n        /* \"integers.sol\":155:238  function realmoney() public view returns (uint8)... */\n    tag_12:\n        /* \"integers.sol\":197:202  uint8 */\n      0x00\n        /* \"integers.sol\":225:230  money */\n      dup1\n      0x00\n      swap1\n      sload\n      swap1\n      0x0100\n      exp\n      swap1\n      div\n      0xff\n      and\n        /* \"integers.sol\":218:230  return money */\n      swap1\n      pop\n        /* \"integers.sol\":155:238  function realmoney() public view returns (uint8)... */\n      swap1\n      jump\t// out\n        /* \"integers.sol\":243:329  function fakemoney() public view returns (int256)... */\n    tag_15:\n        /* \"integers.sol\":285:291  int256 */\n      0x00\n        /* \"integers.sol\":314:322  negmoney */\n      sload(0x01)\n        /* \"integers.sol\":307:322  return negmoney */\n      swap1\n      pop\n        /* \"integers.sol\":243:329  function fakemoney() public view returns (int256)... */\n      swap1\n      jump\t// out\n        /* \"integers.sol\":120:147  int256 public negmoney=-444 */\n    tag_19:\n      sload(0x01)\n      dup2\n      jump\t// out\n        /* \"#utility.yul\":7:122   */\n    tag_24:\n        /* \"#utility.yul\":92:115   */\n      tag_26\n        /* \"#utility.yul\":109:114   */\n      dup2\n        /* \"#utility.yul\":92:115   */\n      tag_27\n      jump\t// in\n    tag_26:\n        /* \"#utility.yul\":87:90   */\n      dup3\n        /* \"#utility.yul\":80:116   */\n      mstore\n        /* \"#utility.yul\":7:122   */\n      pop\n      pop\n      jump\t// out\n        /* \"#utility.yul\":128:240   */\n    tag_28:\n        /* \"#utility.yul\":211:233   */\n      tag_30\n        /* \"#utility.yul\":227:232   */\n      dup2\n        /* \"#utility.yul\":211:233   */\n      tag_31\n      jump\t// in\n    tag_30:\n        /* \"#utility.yul\":206:209   */\n      dup3\n        /* \"#utility.yul\":199:234   */\n      mstore\n        /* \"#utility.yul\":128:240   */\n      pop\n      pop\n      jump\t// out\n        /* \"#utility.yul\":246:464   */\n    tag_17:\n        /* \"#utility.yul\":337:341   */\n      0x00\n        /* \"#utility.yul\":375:377   */\n      0x20\n        /* \"#utility.yul\":364:373   */\n      dup3\n        /* \"#utility.yul\":360:378   */\n      add\n        /* \"#utility.yul\":352:378   */\n      swap1\n      pop\n        /* \"#utility.yul\":388:457   */\n      tag_33\n        /* \"#utility.yul\":454:455   */\n      0x00\n        /* \"#utility.yul\":443:452   */\n      dup4\n        /* \"#utility.yul\":439:456   */\n      add\n        /* \"#utility.yul\":430:436   */\n      dup5\n        /* \"#utility.yul\":388:457   */\n      tag_24\n      jump\t// in\n    tag_33:\n        /* \"#utility.yul\":246:464   */\n      swap3\n      swap2\n      pop\n      pop\n      jump\t// out\n        /* \"#utility.yul\":470:684   */\n    tag_10:\n        /* \"#utility.yul\":559:563   */\n      0x00\n        /* \"#utility.yul\":597:599   */\n      0x20\n        /* \"#utility.yul\":586:595   */\n      dup3\n        /* \"#utility.yul\":582:600   */\n      add\n        /* \"#utility.yul\":574:600   */\n      swap1\n      pop\n        /* \"#utility.yul\":610:677   */\n      tag_35\n        /* \"#utility.yul\":674:675   */\n      0x00\n        /* \"#utility.yul\":663:672   */\n      dup4\n        /* \"#utility.yul\":659:676   */\n      add\n        /* \"#utility.yul\":650:656   */\n      dup5\n        /* \"#utility.yul\":610:677   */\n      tag_28\n      jump\t// in\n    tag_35:\n        /* \"#utility.yul\":470:684   */\n      swap3\n      swap2\n      pop\n      pop\n      jump\t// out\n        /* \"#utility.yul\":690:766   */\n    tag_27:\n        /* \"#utility.yul\":726:733   */\n      0x00\n        /* \"#utility.yul\":755:760   */\n      dup2\n        /* \"#utility.yul\":744:760   */\n      swap1\n      pop\n        /* \"#utility.yul\":690:766   */\n      swap2\n      swap1\n      pop\n      jump\t// out\n        /* \"#utility.yul\":772:858   */\n    tag_31:\n        /* \"#utility.yul\":807:814   */\n      0x00\n        /* \"#utility.yul\":847:851   */\n      0xff\n        /* \"#utility.yul\":840:845   */\n      dup3\n        /* \"#utility.yul\":836:852   */\n      and\n        /* \"#utility.yul\":825:852   */\n      swap1\n      pop\n        /* \"#utility.yul\":772:858   */\n      swap2\n      swap1\n      pop\n      jump\t// out\n\n    auxdata: 0xa264697066735822122001e96a58034d6f41901a12624871acb6fc105eef27aeb79b79cdb76a0036744e64736f6c63430008070033\n}\n",
				"bytecode": {
					"linkReferences": {},
					"object": "608060405260056000806101000a81548160ff021916908360ff1602179055507ffffffffffffffffffffffffffffffffffffffffffffffffffffffffffffffe4460015534801561004f57600080fd5b506101a18061005f6000396000f3fe608060405234801561001057600080fd5b506004361061004c5760003560e01c80634ddd108a14610051578063733924cd1461006f578063b7b2a6b81461008d578063f3f6962a146100ab575b600080fd5b6100596100c9565b6040516100669190610139565b60405180910390f35b6100776100da565b6040516100849190610139565b60405180910390f35b6100956100f0565b6040516100a2919061011e565b60405180910390f35b6100b36100fa565b6040516100c0919061011e565b60405180910390f35b60008054906101000a900460ff1681565b60008060009054906101000a900460ff16905090565b6000600154905090565b60015481565b61010981610154565b82525050565b6101188161015e565b82525050565b60006020820190506101336000830184610100565b92915050565b600060208201905061014e600083018461010f565b92915050565b6000819050919050565b600060ff8216905091905056fea264697066735822122001e96a58034d6f41901a12624871acb6fc105eef27aeb79b79cdb76a0036744e64736f6c63430008070033",
					"opcodes": "PUSH1 0x80 PUSH1 0x40 MSTORE PUSH1 0x5 PUSH1 0x0 DUP1 PUSH2 0x100 EXP DUP2 SLOAD DUP2 PUSH1 0xFF MUL NOT AND SWAP1 DUP4 PUSH1 0xFF AND MUL OR SWAP1 SSTORE POP PUSH32 0xFFFFFFFFFFFFFFFFFFFFFFFFFFFFFFFFFFFFFFFFFFFFFFFFFFFFFFFFFFFFFE44 PUSH1 0x1 SSTORE CALLVALUE DUP1 ISZERO PUSH2 0x4F JUMPI PUSH1 0x0 DUP1 REVERT JUMPDEST POP PUSH2 0x1A1 DUP1 PUSH2 0x5F PUSH1 0x0 CODECOPY PUSH1 0x0 RETURN INVALID PUSH1 0x80 PUSH1 0x40 MSTORE CALLVALUE DUP1 ISZERO PUSH2 0x10 JUMPI PUSH1 0x0 DUP1 REVERT JUMPDEST POP PUSH1 0x4 CALLDATASIZE LT PUSH2 0x4C JUMPI PUSH1 0x0 CALLDATALOAD PUSH1 0xE0 SHR DUP1 PUSH4 0x4DDD108A EQ PUSH2 0x51 JUMPI DUP1 PUSH4 0x733924CD EQ PUSH2 0x6F JUMPI DUP1 PUSH4 0xB7B2A6B8 EQ PUSH2 0x8D JUMPI DUP1 PUSH4 0xF3F6962A EQ PUSH2 0xAB JUMPI JUMPDEST PUSH1 0x0 DUP1 REVERT JUMPDEST PUSH2 0x59 PUSH2 0xC9 JUMP JUMPDEST PUSH1 0x40 MLOAD PUSH2 0x66 SWAP2 SWAP1 PUSH2 0x139 JUMP JUMPDEST PUSH1 0x40 MLOAD DUP1 SWAP2 SUB SWAP1 RETURN JUMPDEST PUSH2 0x77 PUSH2 0xDA JUMP JUMPDEST PUSH1 0x40 MLOAD PUSH2 0x84 SWAP2 SWAP1 PUSH2 0x139 JUMP JUMPDEST PUSH1 0x40 MLOAD DUP1 SWAP2 SUB SWAP1 RETURN JUMPDEST PUSH2 0x95 PUSH2 0xF0 JUMP JUMPDEST PUSH1 0x40 MLOAD PUSH2 0xA2 SWAP2 SWAP1 PUSH2 0x11E JUMP JUMPDEST PUSH1 0x40 MLOAD DUP1 SWAP2 SUB SWAP1 RETURN JUMPDEST PUSH2 0xB3 PUSH2 0xFA JUMP JUMPDEST PUSH1 0x40 MLOAD PUSH2 0xC0 SWAP2 SWAP1 PUSH2 0x11E JUMP JUMPDEST PUSH1 0x40 MLOAD DUP1 SWAP2 SUB SWAP1 RETURN JUMPDEST PUSH1 0x0 DUP1 SLOAD SWAP1 PUSH2 0x100 EXP SWAP1 DIV PUSH1 0xFF AND DUP2 JUMP JUMPDEST PUSH1 0x0 DUP1 PUSH1 0x0 SWAP1 SLOAD SWAP1 PUSH2 0x100 EXP SWAP1 DIV PUSH1 0xFF AND SWAP1 POP SWAP1 JUMP JUMPDEST PUSH1 0x0 PUSH1 0x1 SLOAD SWAP1 POP SWAP1 JUMP JUMPDEST PUSH1 0x1 SLOAD DUP2 JUMP JUMPDEST PUSH2 0x109 DUP2 PUSH2 0x154 JUMP JUMPDEST DUP3 MSTORE POP POP JUMP JUMPDEST PUSH2 0x118 DUP2 PUSH2 0x15E JUMP JUMPDEST DUP3 MSTORE POP POP JUMP JUMPDEST PUSH1 0x0 PUSH1 0x20 DUP3 ADD SWAP1 POP PUSH2 0x133 PUSH1 0x0 DUP4 ADD DUP5 PUSH2 0x100 JUMP JUMPDEST SWAP3 SWAP2 POP POP JUMP JUMPDEST PUSH1 0x0 PUSH1 0x20 DUP3 ADD SWAP1 POP PUSH2 0x14E PUSH1 0x0 DUP4 ADD DUP5 PUSH2 0x10F JUMP JUMPDEST SWAP3 SWAP2 POP POP JUMP JUMPDEST PUSH1 0x0 DUP2 SWAP1 POP SWAP2 SWAP1 POP JUMP JUMPDEST PUSH1 0x0 PUSH1 0xFF DUP3 AND SWAP1 POP SWAP2 SWAP1 POP JUMP INVALID LOG2 PUSH5 0x6970667358 0x22 SLT KECCAK256 ADD 0xE9 PUSH11 0x58034D6F41901A12624871 0xAC 0xB6 0xFC LT 0x5E 0xEF 0x27 0xAE 0xB7 SWAP12 PUSH26 0xCDB76A0036744E64736F6C634300080700330000000000000000 "
				},
				"gasEstimates": {
					"creation": {
						"codeDepositCost": "83400",
						"executionCost": "46508",
						"totalCost": "129908"
					},
					"external": {
						"fakemoney()": "2459",
						"money()": "2446",
						"negmoney()": "2473",
						"realmoney()": "2479"
					}
				},
				"methodIdentifiers": {
					"fakemoney()": "b7b2a6b8",
					"money()": "4ddd108a",
					"negmoney()": "f3f6962a",
					"realmoney()": "733924cd"
				}
			},
			"storageLayout": {
				"storage": [
					{
						"astId": 4,
						"contract": "integers.sol:local",
						"label": "money",
						"offset": 0,
						"slot": "0",
						"type": "t_uint8"
					},
					{
						"astId": 8,
						"contract": "integers.sol:local",
						"label": "negmoney",
						"offset": 0,
						"slot": "1",
						"type": "t_int256"
					}
				],
				"types": {
					"t_int256": {
						"encoding": "inplace",
						"label": "int256",
						"numberOfBytes": "32"
					},
					"t_uint8": {
						"encoding": "inplace",
						"label": "uint8",
						"numberOfBytes": "1"
					}
				}
			},
			"userdoc": {
				"kind": "user",
				"methods": {},
				"version": 1
			}
		}
	}
}