{
	"boolean.sol": {
		"Check": {
			"abi": [
				{
					"inputs": [
						{
							"internalType": "int256",
							"name": "a",
							"type": "int256"
						}
					],
					"name": "check",
					"outputs": [
						{
							"internalType": "string",
							"name": "",
							"type": "string"
						}
					],
					"stateMutability": "pure",
					"type": "function"
				},
				{
					"inputs": [],
					"name": "value",
					"outputs": [
						{
							"internalType": "bool",
							"name": "",
							"type": "bool"
						}
					],
					"stateMutability": "view",
					"type": "function"
				}
			],
			"devdoc": {
				"kind": "dev",
				"methods": {},
				"version": 1
			},
			"evm": {
				"assembly": "    /* \"boolean.sol\":75:478  contract Check ... */\n  mstore(0x40, 0x80)\n  callvalue\n  dup1\n  iszero\n  tag_1\n  jumpi\n  0x00\n  dup1\n  revert\ntag_1:\n  pop\n  dataSize(sub_0)\n  dup1\n  dataOffset(sub_0)\n  0x00\n  codecopy\n  0x00\n  return\nstop\n\nsub_0: assembly {\n        /* \"boolean.sol\":75:478  contract Check ... */\n      mstore(0x40, 0x80)\n      callvalue\n      dup1\n      iszero\n      tag_1\n      jumpi\n      0x00\n      dup1\n      revert\n    tag_1:\n      pop\n      jumpi(tag_2, lt(calldatasize, 0x04))\n      shr(0xe0, calldataload(0x00))\n      dup1\n      0x3fa4f245\n      eq\n      tag_3\n      jumpi\n      dup1\n      0x9943d669\n      eq\n      tag_4\n      jumpi\n    tag_2:\n      0x00\n      dup1\n      revert\n        /* \"boolean.sol\":97:114  bool public value */\n    tag_3:\n      tag_5\n      tag_6\n      jump\t// in\n    tag_5:\n      mload(0x40)\n      tag_7\n      swap2\n      swap1\n      tag_8\n      jump\t// in\n    tag_7:\n      mload(0x40)\n      dup1\n      swap2\n      sub\n      swap1\n      return\n        /* \"boolean.sol\":120:476  function check(int a) public pure returns(string memory)... */\n    tag_4:\n      tag_9\n      0x04\n      dup1\n      calldatasize\n      sub\n      dup2\n      add\n      swap1\n      tag_10\n      swap2\n      swap1\n      tag_11\n      jump\t// in\n    tag_10:\n      tag_12\n      jump\t// in\n    tag_9:\n      mload(0x40)\n      tag_13\n      swap2\n      swap1\n      tag_14\n      jump\t// in\n    tag_13:\n      mload(0x40)\n      dup1\n      swap2\n      sub\n      swap1\n      return\n        /* \"boolean.sol\":97:114  bool public value */\n    tag_6:\n      0x00\n      dup1\n      sload\n      swap1\n      0x0100\n      exp\n      swap1\n      div\n      0xff\n      and\n      dup2\n      jump\t// out\n        /* \"boolean.sol\":120:476  function check(int a) public pure returns(string memory)... */\n    tag_12:\n        /* \"boolean.sol\":162:175  string memory */\n      0x60\n        /* \"boolean.sol\":191:210  string memory value */\n      dup1\n        /* \"boolean.sol\":251:252  0 */\n      0x00\n        /* \"boolean.sol\":249:250  a */\n      dup4\n        /* \"boolean.sol\":249:252  a>0 */\n      sgt\n        /* \"boolean.sol\":245:446  if (a>0)... */\n      iszero\n      tag_16\n      jumpi\n        /* \"boolean.sol\":276:292  value =\"Greater\" */\n      mload(0x40)\n      dup1\n      0x40\n      add\n      0x40\n      mstore\n      dup1\n      0x07\n      dup2\n      mstore\n      0x20\n      add\n      0x4772656174657200000000000000000000000000000000000000000000000000\n      dup2\n      mstore\n      pop\n      swap1\n      pop\n        /* \"boolean.sol\":245:446  if (a>0)... */\n      jump(tag_17)\n    tag_16:\n        /* \"boolean.sol\":324:325  0 */\n      0x00\n        /* \"boolean.sol\":321:322  a */\n      dup4\n        /* \"boolean.sol\":321:325  a==0 */\n      eq\n        /* \"boolean.sol\":317:446  if (a==0)... */\n      iszero\n      tag_18\n      jumpi\n        /* \"boolean.sol\":349:364  value = \"Equal\" */\n      mload(0x40)\n      dup1\n      0x40\n      add\n      0x40\n      mstore\n      dup1\n      0x05\n      dup2\n      mstore\n      0x20\n      add\n      0x457175616c000000000000000000000000000000000000000000000000000000\n      dup2\n      mstore\n      pop\n      swap1\n      pop\n        /* \"boolean.sol\":317:446  if (a==0)... */\n      jump(tag_19)\n    tag_18:\n        /* \"boolean.sol\":416:435  value = \"Less than\" */\n      mload(0x40)\n      dup1\n      0x40\n      add\n      0x40\n      mstore\n      dup1\n      0x09\n      dup2\n      mstore\n      0x20\n      add\n      0x4c657373207468616e0000000000000000000000000000000000000000000000\n      dup2\n      mstore\n      pop\n      swap1\n      pop\n        /* \"boolean.sol\":317:446  if (a==0)... */\n    tag_19:\n        /* \"boolean.sol\":245:446  if (a>0)... */\n    tag_17:\n        /* \"boolean.sol\":463:468  value */\n      dup1\n        /* \"boolean.sol\":456:468  return value */\n      swap2\n      pop\n      pop\n        /* \"boolean.sol\":120:476  function check(int a) public pure returns(string memory)... */\n      swap2\n      swap1\n      pop\n      jump\t// out\n        /* \"#utility.yul\":7:144   */\n    tag_21:\n        /* \"#utility.yul\":52:57   */\n      0x00\n        /* \"#utility.yul\":90:96   */\n      dup2\n        /* \"#utility.yul\":77:97   */\n      calldataload\n        /* \"#utility.yul\":68:97   */\n      swap1\n      pop\n        /* \"#utility.yul\":106:138   */\n      tag_23\n        /* \"#utility.yul\":132:137   */\n      dup2\n        /* \"#utility.yul\":106:138   */\n      tag_24\n      jump\t// in\n    tag_23:\n        /* \"#utility.yul\":7:144   */\n      swap3\n      swap2\n      pop\n      pop\n      jump\t// out\n        /* \"#utility.yul\":150:477   */\n    tag_11:\n        /* \"#utility.yul\":208:214   */\n      0x00\n        /* \"#utility.yul\":257:259   */\n      0x20\n        /* \"#utility.yul\":245:254   */\n      dup3\n        /* \"#utility.yul\":236:243   */\n      dup5\n        /* \"#utility.yul\":232:255   */\n      sub\n        /* \"#utility.yul\":228:260   */\n      slt\n        /* \"#utility.yul\":225:344   */\n      iszero\n      tag_26\n      jumpi\n        /* \"#utility.yul\":263:342   */\n      tag_27\n      tag_28\n      jump\t// in\n    tag_27:\n        /* \"#utility.yul\":225:344   */\n    tag_26:\n        /* \"#utility.yul\":383:384   */\n      0x00\n        /* \"#utility.yul\":408:460   */\n      tag_29\n        /* \"#utility.yul\":452:459   */\n      dup5\n        /* \"#utility.yul\":443:449   */\n      dup3\n        /* \"#utility.yul\":432:441   */\n      dup6\n        /* \"#utility.yul\":428:450   */\n      add\n        /* \"#utility.yul\":408:460   */\n      tag_21\n      jump\t// in\n    tag_29:\n        /* \"#utility.yul\":398:460   */\n      swap2\n      pop\n        /* \"#utility.yul\":354:470   */\n      pop\n        /* \"#utility.yul\":150:477   */\n      swap3\n      swap2\n      pop\n      pop\n      jump\t// out\n        /* \"#utility.yul\":483:592   */\n    tag_30:\n        /* \"#utility.yul\":564:585   */\n      tag_32\n        /* \"#utility.yul\":579:584   */\n      dup2\n        /* \"#utility.yul\":564:585   */\n      tag_33\n      jump\t// in\n    tag_32:\n        /* \"#utility.yul\":559:562   */\n      dup3\n        /* \"#utility.yul\":552:586   */\n      mstore\n        /* \"#utility.yul\":483:592   */\n      pop\n      pop\n      jump\t// out\n        /* \"#utility.yul\":598:962   */\n    tag_34:\n        /* \"#utility.yul\":686:689   */\n      0x00\n        /* \"#utility.yul\":714:753   */\n      tag_36\n        /* \"#utility.yul\":747:752   */\n      dup3\n        /* \"#utility.yul\":714:753   */\n      tag_37\n      jump\t// in\n    tag_36:\n        /* \"#utility.yul\":769:840   */\n      tag_38\n        /* \"#utility.yul\":833:839   */\n      dup2\n        /* \"#utility.yul\":828:831   */\n      dup6\n        /* \"#utility.yul\":769:840   */\n      tag_39\n      jump\t// in\n    tag_38:\n        /* \"#utility.yul\":762:840   */\n      swap4\n      pop\n        /* \"#utility.yul\":849:901   */\n      tag_40\n        /* \"#utility.yul\":894:900   */\n      dup2\n        /* \"#utility.yul\":889:892   */\n      dup6\n        /* \"#utility.yul\":882:886   */\n      0x20\n        /* \"#utility.yul\":875:880   */\n      dup7\n        /* \"#utility.yul\":871:887   */\n      add\n        /* \"#utility.yul\":849:901   */\n      tag_41\n      jump\t// in\n    tag_40:\n        /* \"#utility.yul\":926:955   */\n      tag_42\n        /* \"#utility.yul\":948:954   */\n      dup2\n        /* \"#utility.yul\":926:955   */\n      tag_43\n      jump\t// in\n    tag_42:\n        /* \"#utility.yul\":921:924   */\n      dup5\n        /* \"#utility.yul\":917:956   */\n      add\n        /* \"#utility.yul\":910:956   */\n      swap2\n      pop\n        /* \"#utility.yul\":690:962   */\n      pop\n        /* \"#utility.yul\":598:962   */\n      swap3\n      swap2\n      pop\n      pop\n      jump\t// out\n        /* \"#utility.yul\":968:1178   */\n    tag_8:\n        /* \"#utility.yul\":1055:1059   */\n      0x00\n        /* \"#utility.yul\":1093:1095   */\n      0x20\n        /* \"#utility.yul\":1082:1091   */\n      dup3\n        /* \"#utility.yul\":1078:1096   */\n      add\n        /* \"#utility.yul\":1070:1096   */\n      swap1\n      pop\n        /* \"#utility.yul\":1106:1171   */\n      tag_45\n        /* \"#utility.yul\":1168:1169   */\n      0x00\n        /* \"#utility.yul\":1157:1166   */\n      dup4\n        /* \"#utility.yul\":1153:1170   */\n      add\n        /* \"#utility.yul\":1144:1150   */\n      dup5\n        /* \"#utility.yul\":1106:1171   */\n      tag_30\n      jump\t// in\n    tag_45:\n        /* \"#utility.yul\":968:1178   */\n      swap3\n      swap2\n      pop\n      pop\n      jump\t// out\n        /* \"#utility.yul\":1184:1497   */\n    tag_14:\n        /* \"#utility.yul\":1297:1301   */\n      0x00\n        /* \"#utility.yul\":1335:1337   */\n      0x20\n        /* \"#utility.yul\":1324:1333   */\n      dup3\n        /* \"#utility.yul\":1320:1338   */\n      add\n        /* \"#utility.yul\":1312:1338   */\n      swap1\n      pop\n        /* \"#utility.yul\":1384:1393   */\n      dup2\n        /* \"#utility.yul\":1378:1382   */\n      dup2\n        /* \"#utility.yul\":1374:1394   */\n      sub\n        /* \"#utility.yul\":1370:1371   */\n      0x00\n        /* \"#utility.yul\":1359:1368   */\n      dup4\n        /* \"#utility.yul\":1355:1372   */\n      add\n        /* \"#utility.yul\":1348:1395   */\n      mstore\n        /* \"#utility.yul\":1412:1490   */\n      tag_47\n        /* \"#utility.yul\":1485:1489   */\n      dup2\n        /* \"#utility.yul\":1476:1482   */\n      dup5\n        /* \"#utility.yul\":1412:1490   */\n      tag_34\n      jump\t// in\n    tag_47:\n        /* \"#utility.yul\":1404:1490   */\n      swap1\n      pop\n        /* \"#utility.yul\":1184:1497   */\n      swap3\n      swap2\n      pop\n      pop\n      jump\t// out\n        /* \"#utility.yul\":1584:1683   */\n    tag_37:\n        /* \"#utility.yul\":1636:1642   */\n      0x00\n        /* \"#utility.yul\":1670:1675   */\n      dup2\n        /* \"#utility.yul\":1664:1676   */\n      mload\n        /* \"#utility.yul\":1654:1676   */\n      swap1\n      pop\n        /* \"#utility.yul\":1584:1683   */\n      swap2\n      swap1\n      pop\n      jump\t// out\n        /* \"#utility.yul\":1689:1858   */\n    tag_39:\n        /* \"#utility.yul\":1773:1784   */\n      0x00\n        /* \"#utility.yul\":1807:1813   */\n      dup3\n        /* \"#utility.yul\":1802:1805   */\n      dup3\n        /* \"#utility.yul\":1795:1814   */\n      mstore\n        /* \"#utility.yul\":1847:1851   */\n      0x20\n        /* \"#utility.yul\":1842:1845   */\n      dup3\n        /* \"#utility.yul\":1838:1852   */\n      add\n        /* \"#utility.yul\":1823:1852   */\n      swap1\n      pop\n        /* \"#utility.yul\":1689:1858   */\n      swap3\n      swap2\n      pop\n      pop\n      jump\t// out\n        /* \"#utility.yul\":1864:1954   */\n    tag_33:\n        /* \"#utility.yul\":1898:1905   */\n      0x00\n        /* \"#utility.yul\":1941:1946   */\n      dup2\n        /* \"#utility.yul\":1934:1947   */\n      iszero\n        /* \"#utility.yul\":1927:1948   */\n      iszero\n        /* \"#utility.yul\":1916:1948   */\n      swap1\n      pop\n        /* \"#utility.yul\":1864:1954   */\n      swap2\n      swap1\n      pop\n      jump\t// out\n        /* \"#utility.yul\":1960:2036   */\n    tag_53:\n        /* \"#utility.yul\":1996:2003   */\n      0x00\n        /* \"#utility.yul\":2025:2030   */\n      dup2\n        /* \"#utility.yul\":2014:2030   */\n      swap1\n      pop\n        /* \"#utility.yul\":1960:2036   */\n      swap2\n      swap1\n      pop\n      jump\t// out\n        /* \"#utility.yul\":2042:2349   */\n    tag_41:\n        /* \"#utility.yul\":2110:2111   */\n      0x00\n        /* \"#utility.yul\":2120:2233   */\n    tag_56:\n        /* \"#utility.yul\":2134:2140   */\n      dup4\n        /* \"#utility.yul\":2131:2132   */\n      dup2\n        /* \"#utility.yul\":2128:2141   */\n      lt\n        /* \"#utility.yul\":2120:2233   */\n      iszero\n      tag_58\n      jumpi\n        /* \"#utility.yul\":2219:2220   */\n      dup1\n        /* \"#utility.yul\":2214:2217   */\n      dup3\n        /* \"#utility.yul\":2210:2221   */\n      add\n        /* \"#utility.yul\":2204:2222   */\n      mload\n        /* \"#utility.yul\":2200:2201   */\n      dup2\n        /* \"#utility.yul\":2195:2198   */\n      dup5\n        /* \"#utility.yul\":2191:2202   */\n      add\n        /* \"#utility.yul\":2184:2223   */\n      mstore\n        /* \"#utility.yul\":2156:2158   */\n      0x20\n        /* \"#utility.yul\":2153:2154   */\n      dup2\n        /* \"#utility.yul\":2149:2159   */\n      add\n        /* \"#utility.yul\":2144:2159   */\n      swap1\n      pop\n        /* \"#utility.yul\":2120:2233   */\n      jump(tag_56)\n    tag_58:\n        /* \"#utility.yul\":2251:2257   */\n      dup4\n        /* \"#utility.yul\":2248:2249   */\n      dup2\n        /* \"#utility.yul\":2245:2258   */\n      gt\n        /* \"#utility.yul\":2242:2343   */\n      iszero\n      tag_59\n      jumpi\n        /* \"#utility.yul\":2331:2332   */\n      0x00\n        /* \"#utility.yul\":2322:2328   */\n      dup5\n        /* \"#utility.yul\":2317:2320   */\n      dup5\n        /* \"#utility.yul\":2313:2329   */\n      add\n        /* \"#utility.yul\":2306:2333   */\n      mstore\n        /* \"#utility.yul\":2242:2343   */\n    tag_59:\n        /* \"#utility.yul\":2091:2349   */\n      pop\n        /* \"#utility.yul\":2042:2349   */\n      pop\n      pop\n      pop\n      jump\t// out\n        /* \"#utility.yul\":2478:2595   */\n    tag_28:\n        /* \"#utility.yul\":2587:2588   */\n      0x00\n        /* \"#utility.yul\":2584:2585   */\n      dup1\n        /* \"#utility.yul\":2577:2589   */\n      revert\n        /* \"#utility.yul\":2601:2703   */\n    tag_43:\n        /* \"#utility.yul\":2642:2648   */\n      0x00\n        /* \"#utility.yul\":2693:2695   */\n      0x1f\n        /* \"#utility.yul\":2689:2696   */\n      not\n        /* \"#utility.yul\":2684:2686   */\n      0x1f\n        /* \"#utility.yul\":2677:2682   */\n      dup4\n        /* \"#utility.yul\":2673:2687   */\n      add\n        /* \"#utility.yul\":2669:2697   */\n      and\n        /* \"#utility.yul\":2659:2697   */\n      swap1\n      pop\n        /* \"#utility.yul\":2601:2703   */\n      swap2\n      swap1\n      pop\n      jump\t// out\n        /* \"#utility.yul\":2709:2829   */\n    tag_24:\n        /* \"#utility.yul\":2781:2804   */\n      tag_65\n        /* \"#utility.yul\":2798:2803   */\n      dup2\n        /* \"#utility.yul\":2781:2804   */\n      tag_53\n      jump\t// in\n    tag_65:\n        /* \"#utility.yul\":2774:2779   */\n      dup2\n        /* \"#utility.yul\":2771:2805   */\n      eq\n        /* \"#utility.yul\":2761:2823   */\n      tag_66\n      jumpi\n        /* \"#utility.yul\":2819:2820   */\n      0x00\n        /* \"#utility.yul\":2816:2817   */\n      dup1\n        /* \"#utility.yul\":2809:2821   */\n      revert\n        /* \"#utility.yul\":2761:2823   */\n    tag_66:\n        /* \"#utility.yul\":2709:2829   */\n      pop\n      jump\t// out\n\n    auxdata: 0xa26469706673582212209a623b9f74104ef4ace20c61f98c9bdd475a684bdab659cf4dc7efda43d881df64736f6c63430008070033\n}\n",
				"bytecode": {
					"linkReferences": {},
					"object": "608060405234801561001057600080fd5b506102fb806100206000396000f3fe608060405234801561001057600080fd5b50600436106100365760003560e01c80633fa4f2451461003b5780639943d66914610059575b600080fd5b610043610089565b60405161005091906101f6565b60405180910390f35b610073600480360381019061006e9190610181565b61009a565b6040516100809190610211565b60405180910390f35b60008054906101000a900460ff1681565b60608060008313156100e3576040518060400160405280600781526020017f47726561746572000000000000000000000000000000000000000000000000008152509050610163565b6000831415610129576040518060400160405280600581526020017f457175616c0000000000000000000000000000000000000000000000000000008152509050610162565b6040518060400160405280600981526020017f4c657373207468616e000000000000000000000000000000000000000000000081525090505b5b80915050919050565b60008135905061017b816102ae565b92915050565b60006020828403121561019757610196610298565b5b60006101a58482850161016c565b91505092915050565b6101b78161024f565b82525050565b60006101c882610233565b6101d2818561023e565b93506101e2818560208601610265565b6101eb8161029d565b840191505092915050565b600060208201905061020b60008301846101ae565b92915050565b6000602082019050818103600083015261022b81846101bd565b905092915050565b600081519050919050565b600082825260208201905092915050565b60008115159050919050565b6000819050919050565b60005b83811015610283578082015181840152602081019050610268565b83811115610292576000848401525b50505050565b600080fd5b6000601f19601f8301169050919050565b6102b78161025b565b81146102c257600080fd5b5056fea26469706673582212209a623b9f74104ef4ace20c61f98c9bdd475a684bdab659cf4dc7efda43d881df64736f6c63430008070033",
					"opcodes": "PUSH1 0x80 PUSH1 0x40 MSTORE CALLVALUE DUP1 ISZERO PUSH2 0x10 JUMPI PUSH1 0x0 DUP1 REVERT JUMPDEST POP PUSH2 0x2FB DUP1 PUSH2 0x20 PUSH1 0x0 CODECOPY PUSH1 0x0 RETURN INVALID PUSH1 0x80 PUSH1 0x40 MSTORE CALLVALUE DUP1 ISZERO PUSH2 0x10 JUMPI PUSH1 0x0 DUP1 REVERT JUMPDEST POP PUSH1 0x4 CALLDATASIZE LT PUSH2 0x36 JUMPI PUSH1 0x0 CALLDATALOAD PUSH1 0xE0 SHR DUP1 PUSH4 0x3FA4F245 EQ PUSH2 0x3B JUMPI DUP1 PUSH4 0x9943D669 EQ PUSH2 0x59 JUMPI JUMPDEST PUSH1 0x0 DUP1 REVERT JUMPDEST PUSH2 0x43 PUSH2 0x89 JUMP JUMPDEST PUSH1 0x40 MLOAD PUSH2 0x50 SWAP2 SWAP1 PUSH2 0x1F6 JUMP JUMPDEST PUSH1 0x40 MLOAD DUP1 SWAP2 SUB SWAP1 RETURN JUMPDEST PUSH2 0x73 PUSH1 0x4 DUP1 CALLDATASIZE SUB DUP2 ADD SWAP1 PUSH2 0x6E SWAP2 SWAP1 PUSH2 0x181 JUMP JUMPDEST PUSH2 0x9A JUMP JUMPDEST PUSH1 0x40 MLOAD PUSH2 0x80 SWAP2 SWAP1 PUSH2 0x211 JUMP JUMPDEST PUSH1 0x40 MLOAD DUP1 SWAP2 SUB SWAP1 RETURN JUMPDEST PUSH1 0x0 DUP1 SLOAD SWAP1 PUSH2 0x100 EXP SWAP1 DIV PUSH1 0xFF AND DUP2 JUMP JUMPDEST PUSH1 0x60 DUP1 PUSH1 0x0 DUP4 SGT ISZERO PUSH2 0xE3 JUMPI PUSH1 0x40 MLOAD DUP1 PUSH1 0x40 ADD PUSH1 0x40 MSTORE DUP1 PUSH1 0x7 DUP2 MSTORE PUSH1 0x20 ADD PUSH32 0x4772656174657200000000000000000000000000000000000000000000000000 DUP2 MSTORE POP SWAP1 POP PUSH2 0x163 JUMP JUMPDEST PUSH1 0x0 DUP4 EQ ISZERO PUSH2 0x129 JUMPI PUSH1 0x40 MLOAD DUP1 PUSH1 0x40 ADD PUSH1 0x40 MSTORE DUP1 PUSH1 0x5 DUP2 MSTORE PUSH1 0x20 ADD PUSH32 0x457175616C000000000000000000000000000000000000000000000000000000 DUP2 MSTORE POP SWAP1 POP PUSH2 0x162 JUMP JUMPDEST PUSH1 0x40 MLOAD DUP1 PUSH1 0x40 ADD PUSH1 0x40 MSTORE DUP1 PUSH1 0x9 DUP2 MSTORE PUSH1 0x20 ADD PUSH32 0x4C657373207468616E0000000000000000000000000000000000000000000000 DUP2 MSTORE POP SWAP1 POP JUMPDEST JUMPDEST DUP1 SWAP2 POP POP SWAP2 SWAP1 POP JUMP JUMPDEST PUSH1 0x0 DUP2 CALLDATALOAD SWAP1 POP PUSH2 0x17B DUP2 PUSH2 0x2AE JUMP JUMPDEST SWAP3 SWAP2 POP POP JUMP JUMPDEST PUSH1 0x0 PUSH1 0x20 DUP3 DUP5 SUB SLT ISZERO PUSH2 0x197 JUMPI PUSH2 0x196 PUSH2 0x298 JUMP JUMPDEST JUMPDEST PUSH1 0x0 PUSH2 0x1A5 DUP5 DUP3 DUP6 ADD PUSH2 0x16C JUMP JUMPDEST SWAP2 POP POP SWAP3 SWAP2 POP POP JUMP JUMPDEST PUSH2 0x1B7 DUP2 PUSH2 0x24F JUMP JUMPDEST DUP3 MSTORE POP POP JUMP JUMPDEST PUSH1 0x0 PUSH2 0x1C8 DUP3 PUSH2 0x233 JUMP JUMPDEST PUSH2 0x1D2 DUP2 DUP6 PUSH2 0x23E JUMP JUMPDEST SWAP4 POP PUSH2 0x1E2 DUP2 DUP6 PUSH1 0x20 DUP7 ADD PUSH2 0x265 JUMP JUMPDEST PUSH2 0x1EB DUP2 PUSH2 0x29D JUMP JUMPDEST DUP5 ADD SWAP2 POP POP SWAP3 SWAP2 POP POP JUMP JUMPDEST PUSH1 0x0 PUSH1 0x20 DUP3 ADD SWAP1 POP PUSH2 0x20B PUSH1 0x0 DUP4 ADD DUP5 PUSH2 0x1AE JUMP JUMPDEST SWAP3 SWAP2 POP POP JUMP JUMPDEST PUSH1 0x0 PUSH1 0x20 DUP3 ADD SWAP1 POP DUP2 DUP2 SUB PUSH1 0x0 DUP4 ADD MSTORE PUSH2 0x22B DUP2 DUP5 PUSH2 0x1BD JUMP JUMPDEST SWAP1 POP SWAP3 SWAP2 POP POP JUMP JUMPDEST PUSH1 0x0 DUP2 MLOAD SWAP1 POP SWAP2 SWAP1 POP JUMP JUMPDEST PUSH1 0x0 DUP3 DUP3 MSTORE PUSH1 0x20 DUP3 ADD SWAP1 POP SWAP3 SWAP2 POP POP JUMP JUMPDEST PUSH1 0x0 DUP2 ISZERO ISZERO SWAP1 POP SWAP2 SWAP1 POP JUMP JUMPDEST PUSH1 0x0 DUP2 SWAP1 POP SWAP2 SWAP1 POP JUMP JUMPDEST PUSH1 0x0 JUMPDEST DUP4 DUP2 LT ISZERO PUSH2 0x283 JUMPI DUP1 DUP3 ADD MLOAD DUP2 DUP5 ADD MSTORE PUSH1 0x20 DUP2 ADD SWAP1 POP PUSH2 0x268 JUMP JUMPDEST DUP4 DUP2 GT ISZERO PUSH2 0x292 JUMPI PUSH1 0x0 DUP5 DUP5 ADD MSTORE JUMPDEST POP POP POP POP JUMP JUMPDEST PUSH1 0x0 DUP1 REVERT JUMPDEST PUSH1 0x0 PUSH1 0x1F NOT PUSH1 0x1F DUP4 ADD AND SWAP1 POP SWAP2 SWAP1 POP JUMP JUMPDEST PUSH2 0x2B7 DUP2 PUSH2 0x25B JUMP JUMPDEST DUP2 EQ PUSH2 0x2C2 JUMPI PUSH1 0x0 DUP1 REVERT JUMPDEST POP JUMP INVALID LOG2 PUSH5 0x6970667358 0x22 SLT KECCAK256 SWAP11 PUSH3 0x3B9F74 LT 0x4E DELEGATECALL 0xAC 0xE2 0xC PUSH2 0xF98C SWAP12 0xDD SELFBALANCE GAS PUSH9 0x4BDAB659CF4DC7EFDA NUMBER 0xD8 DUP2 0xDF PUSH5 0x736F6C6343 STOP ADDMOD SMOD STOP CALLER "
				},
				"gasEstimates": {
					"creation": {
						"codeDepositCost": "152600",
						"executionCost": "196",
						"totalCost": "152796"
					},
					"external": {
						"check(int256)": "infinite",
						"value()": "2446"
					}
				},
				"methodIdentifiers": {
					"check(int256)": "9943d669",
					"value()": "3fa4f245"
				}
			},
			"storageLayout": {
				"storage": [
					{
						"astId": 3,
						"contract": "boolean.sol:Check",
						"label": "value",
						"offset": 0,
						"slot": "0",
						"type": "t_bool"
					}
				],
				"types": {
					"t_bool": {
						"encoding": "inplace",
						"label": "bool",
						"numberOfBytes": "1"
					}
				}
			},
			"userdoc": {
				"kind": "user",
				"methods": {},
				"version": 1
			}
		}
	}
}