{
	"enum.sol": {
		"state": {
			"abi": [
				{
					"inputs": [],
					"name": "lottery",
					"outputs": [
						{
							"internalType": "uint256",
							"name": "",
							"type": "uint256"
						}
					],
					"stateMutability": "view",
					"type": "function"
				},
				{
					"inputs": [],
					"name": "u1",
					"outputs": [
						{
							"internalType": "enum state.user",
							"name": "",
							"type": "uint8"
						}
					],
					"stateMutability": "view",
					"type": "function"
				}
			],
			"devdoc": {
				"kind": "dev",
				"methods": {},
				"version": 1
			},
			"evm": {
				"assembly": "    /* \"enum.sol\":73:228  contract state... */\n  mstore(0x40, 0x80)\n    /* \"enum.sol\":172:186  user.challenge */\n  0x04\n    /* \"enum.sol\":155:186  user public u1 = user.challenge */\n  0x00\n  dup1\n  0x0100\n  exp\n  dup2\n  sload\n  dup2\n  0xff\n  mul\n  not\n  and\n  swap1\n  dup4\n  0x04\n  dup2\n  gt\n  iszero\n  tag_1\n  jumpi\n  tag_2\n  tag_3\n  jump\t// in\ntag_2:\ntag_1:\n  mul\n  or\n  swap1\n  sstore\n  pop\n    /* \"enum.sol\":214:219  10000 */\n  0x2710\n    /* \"enum.sol\":192:219  uint public lottery = 10000 */\n  0x01\n  sstore\n    /* \"enum.sol\":73:228  contract state... */\n  callvalue\n  dup1\n  iszero\n  tag_4\n  jumpi\n  0x00\n  dup1\n  revert\ntag_4:\n  pop\n  jump(tag_5)\n    /* \"#utility.yul\":7:187   */\ntag_3:\n    /* \"#utility.yul\":55:132   */\n  0x4e487b7100000000000000000000000000000000000000000000000000000000\n    /* \"#utility.yul\":52:53   */\n  0x00\n    /* \"#utility.yul\":45:133   */\n  mstore\n    /* \"#utility.yul\":152:156   */\n  0x21\n    /* \"#utility.yul\":149:150   */\n  0x04\n    /* \"#utility.yul\":142:157   */\n  mstore\n    /* \"#utility.yul\":176:180   */\n  0x24\n    /* \"#utility.yul\":173:174   */\n  0x00\n    /* \"#utility.yul\":166:181   */\n  revert\n    /* \"enum.sol\":73:228  contract state... */\ntag_5:\n  dataSize(sub_0)\n  dup1\n  dataOffset(sub_0)\n  0x00\n  codecopy\n  0x00\n  return\nstop\n\nsub_0: assembly {\n        /* \"enum.sol\":73:228  contract state... */\n      mstore(0x40, 0x80)\n      callvalue\n      dup1\n      iszero\n      tag_1\n      jumpi\n      0x00\n      dup1\n      revert\n    tag_1:\n      pop\n      jumpi(tag_2, lt(calldatasize, 0x04))\n      shr(0xe0, calldataload(0x00))\n      dup1\n      0x1aa35610\n      eq\n      tag_3\n      jumpi\n      dup1\n      0xba13a572\n      eq\n      tag_4\n      jumpi\n    tag_2:\n      0x00\n      dup1\n      revert\n        /* \"enum.sol\":155:186  user public u1 = user.challenge */\n    tag_3:\n      tag_5\n      tag_6\n      jump\t// in\n    tag_5:\n      mload(0x40)\n      tag_7\n      swap2\n      swap1\n      tag_8\n      jump\t// in\n    tag_7:\n      mload(0x40)\n      dup1\n      swap2\n      sub\n      swap1\n      return\n        /* \"enum.sol\":192:219  uint public lottery = 10000 */\n    tag_4:\n      tag_9\n      tag_10\n      jump\t// in\n    tag_9:\n      mload(0x40)\n      tag_11\n      swap2\n      swap1\n      tag_12\n      jump\t// in\n    tag_11:\n      mload(0x40)\n      dup1\n      swap2\n      sub\n      swap1\n      return\n        /* \"enum.sol\":155:186  user public u1 = user.challenge */\n    tag_6:\n      0x00\n      dup1\n      sload\n      swap1\n      0x0100\n      exp\n      swap1\n      div\n      0xff\n      and\n      dup2\n      jump\t// out\n        /* \"enum.sol\":192:219  uint public lottery = 10000 */\n    tag_10:\n      sload(0x01)\n      dup2\n      jump\t// out\n        /* \"#utility.yul\":7:146   */\n    tag_14:\n        /* \"#utility.yul\":98:139   */\n      tag_16\n        /* \"#utility.yul\":133:138   */\n      dup2\n        /* \"#utility.yul\":98:139   */\n      tag_17\n      jump\t// in\n    tag_16:\n        /* \"#utility.yul\":93:96   */\n      dup3\n        /* \"#utility.yul\":86:140   */\n      mstore\n        /* \"#utility.yul\":7:146   */\n      pop\n      pop\n      jump\t// out\n        /* \"#utility.yul\":152:270   */\n    tag_18:\n        /* \"#utility.yul\":239:263   */\n      tag_20\n        /* \"#utility.yul\":257:262   */\n      dup2\n        /* \"#utility.yul\":239:263   */\n      tag_21\n      jump\t// in\n    tag_20:\n        /* \"#utility.yul\":234:237   */\n      dup3\n        /* \"#utility.yul\":227:264   */\n      mstore\n        /* \"#utility.yul\":152:270   */\n      pop\n      pop\n      jump\t// out\n        /* \"#utility.yul\":276:506   */\n    tag_8:\n        /* \"#utility.yul\":373:377   */\n      0x00\n        /* \"#utility.yul\":411:413   */\n      0x20\n        /* \"#utility.yul\":400:409   */\n      dup3\n        /* \"#utility.yul\":396:414   */\n      add\n        /* \"#utility.yul\":388:414   */\n      swap1\n      pop\n        /* \"#utility.yul\":424:499   */\n      tag_23\n        /* \"#utility.yul\":496:497   */\n      0x00\n        /* \"#utility.yul\":485:494   */\n      dup4\n        /* \"#utility.yul\":481:498   */\n      add\n        /* \"#utility.yul\":472:478   */\n      dup5\n        /* \"#utility.yul\":424:499   */\n      tag_14\n      jump\t// in\n    tag_23:\n        /* \"#utility.yul\":276:506   */\n      swap3\n      swap2\n      pop\n      pop\n      jump\t// out\n        /* \"#utility.yul\":512:734   */\n    tag_12:\n        /* \"#utility.yul\":605:609   */\n      0x00\n        /* \"#utility.yul\":643:645   */\n      0x20\n        /* \"#utility.yul\":632:641   */\n      dup3\n        /* \"#utility.yul\":628:646   */\n      add\n        /* \"#utility.yul\":620:646   */\n      swap1\n      pop\n        /* \"#utility.yul\":656:727   */\n      tag_25\n        /* \"#utility.yul\":724:725   */\n      0x00\n        /* \"#utility.yul\":713:722   */\n      dup4\n        /* \"#utility.yul\":709:726   */\n      add\n        /* \"#utility.yul\":700:706   */\n      dup5\n        /* \"#utility.yul\":656:727   */\n      tag_18\n      jump\t// in\n    tag_25:\n        /* \"#utility.yul\":512:734   */\n      swap3\n      swap2\n      pop\n      pop\n      jump\t// out\n        /* \"#utility.yul\":740:863   */\n    tag_26:\n        /* \"#utility.yul\":783:790   */\n      0x00\n        /* \"#utility.yul\":812:817   */\n      dup2\n        /* \"#utility.yul\":801:817   */\n      swap1\n      pop\n        /* \"#utility.yul\":818:857   */\n      tag_28\n        /* \"#utility.yul\":851:856   */\n      dup3\n        /* \"#utility.yul\":818:857   */\n      tag_29\n      jump\t// in\n    tag_28:\n        /* \"#utility.yul\":740:863   */\n      swap2\n      swap1\n      pop\n      jump\t// out\n        /* \"#utility.yul\":869:946   */\n    tag_21:\n        /* \"#utility.yul\":906:913   */\n      0x00\n        /* \"#utility.yul\":935:940   */\n      dup2\n        /* \"#utility.yul\":924:940   */\n      swap1\n      pop\n        /* \"#utility.yul\":869:946   */\n      swap2\n      swap1\n      pop\n      jump\t// out\n        /* \"#utility.yul\":952:1075   */\n    tag_17:\n        /* \"#utility.yul\":1006:1015   */\n      0x00\n        /* \"#utility.yul\":1039:1069   */\n      tag_32\n        /* \"#utility.yul\":1063:1068   */\n      dup3\n        /* \"#utility.yul\":1039:1069   */\n      tag_26\n      jump\t// in\n    tag_32:\n        /* \"#utility.yul\":1026:1069   */\n      swap1\n      pop\n        /* \"#utility.yul\":952:1075   */\n      swap2\n      swap1\n      pop\n      jump\t// out\n        /* \"#utility.yul\":1081:1261   */\n    tag_33:\n        /* \"#utility.yul\":1129:1206   */\n      0x4e487b7100000000000000000000000000000000000000000000000000000000\n        /* \"#utility.yul\":1126:1127   */\n      0x00\n        /* \"#utility.yul\":1119:1207   */\n      mstore\n        /* \"#utility.yul\":1226:1230   */\n      0x21\n        /* \"#utility.yul\":1223:1224   */\n      0x04\n        /* \"#utility.yul\":1216:1231   */\n      mstore\n        /* \"#utility.yul\":1250:1254   */\n      0x24\n        /* \"#utility.yul\":1247:1248   */\n      0x00\n        /* \"#utility.yul\":1240:1255   */\n      revert\n        /* \"#utility.yul\":1267:1378   */\n    tag_29:\n        /* \"#utility.yul\":1346:1347   */\n      0x05\n        /* \"#utility.yul\":1339:1344   */\n      dup2\n        /* \"#utility.yul\":1336:1348   */\n      lt\n        /* \"#utility.yul\":1326:1372   */\n      tag_36\n      jumpi\n        /* \"#utility.yul\":1352:1370   */\n      tag_37\n      tag_33\n      jump\t// in\n    tag_37:\n        /* \"#utility.yul\":1326:1372   */\n    tag_36:\n        /* \"#utility.yul\":1267:1378   */\n      pop\n      jump\t// out\n\n    auxdata: 0xa264697066735822122086540fcc833e0cc1f91968ef1651c46b64509da7c5f09cbbc53e474ba6a2caf764736f6c63430008070033\n}\n",
				"bytecode": {
					"linkReferences": {},
					"object": "608060405260046000806101000a81548160ff0219169083600481111561002957610028610046565b5b021790555061271060015534801561004057600080fd5b50610075565b7f4e487b7100000000000000000000000000000000000000000000000000000000600052602160045260246000fd5b61018a806100846000396000f3fe608060405234801561001057600080fd5b50600436106100365760003560e01c80631aa356101461003b578063ba13a57214610059575b600080fd5b610043610077565b60405161005091906100ac565b60405180910390f35b610061610088565b60405161006e91906100c7565b60405180910390f35b60008054906101000a900460ff1681565b60015481565b610097816100ff565b82525050565b6100a6816100f5565b82525050565b60006020820190506100c1600083018461008e565b92915050565b60006020820190506100dc600083018461009d565b92915050565b60008190506100f082610140565b919050565b6000819050919050565b600061010a826100e2565b9050919050565b7f4e487b7100000000000000000000000000000000000000000000000000000000600052602160045260246000fd5b6005811061015157610150610111565b5b5056fea264697066735822122086540fcc833e0cc1f91968ef1651c46b64509da7c5f09cbbc53e474ba6a2caf764736f6c63430008070033",
					"opcodes": "PUSH1 0x80 PUSH1 0x40 MSTORE PUSH1 0x4 PUSH1 0x0 DUP1 PUSH2 0x100 EXP DUP2 SLOAD DUP2 PUSH1 0xFF MUL NOT AND SWAP1 DUP4 PUSH1 0x4 DUP2 GT ISZERO PUSH2 0x29 JUMPI PUSH2 0x28 PUSH2 0x46 JUMP JUMPDEST JUMPDEST MUL OR SWAP1 SSTORE POP PUSH2 0x2710 PUSH1 0x1 SSTORE CALLVALUE DUP1 ISZERO PUSH2 0x40 JUMPI PUSH1 0x0 DUP1 REVERT JUMPDEST POP PUSH2 0x75 JUMP JUMPDEST PUSH32 0x4E487B7100000000000000000000000000000000000000000000000000000000 PUSH1 0x0 MSTORE PUSH1 0x21 PUSH1 0x4 MSTORE PUSH1 0x24 PUSH1 0x0 REVERT JUMPDEST PUSH2 0x18A DUP1 PUSH2 0x84 PUSH1 0x0 CODECOPY PUSH1 0x0 RETURN INVALID PUSH1 0x80 PUSH1 0x40 MSTORE CALLVALUE DUP1 ISZERO PUSH2 0x10 JUMPI PUSH1 0x0 DUP1 REVERT JUMPDEST POP PUSH1 0x4 CALLDATASIZE LT PUSH2 0x36 JUMPI PUSH1 0x0 CALLDATALOAD PUSH1 0xE0 SHR DUP1 PUSH4 0x1AA35610 EQ PUSH2 0x3B JUMPI DUP1 PUSH4 0xBA13A572 EQ PUSH2 0x59 JUMPI JUMPDEST PUSH1 0x0 DUP1 REVERT JUMPDEST PUSH2 0x43 PUSH2 0x77 JUMP JUMPDEST PUSH1 0x40 MLOAD PUSH2 0x50 SWAP2 SWAP1 PUSH2 0xAC JUMP JUMPDEST PUSH1 0x40 MLOAD DUP1 SWAP2 SUB SWAP1 RETURN JUMPDEST PUSH2 0x61 PUSH2 0x88 JUMP JUMPDEST PUSH1 0x40 MLOAD PUSH2 0x6E SWAP2 SWAP1 PUSH2 0xC7 JUMP JUMPDEST PUSH1 0x40 MLOAD DUP1 SWAP2 SUB SWAP1 RETURN JUMPDEST PUSH1 0x0 DUP1 SLOAD SWAP1 PUSH2 0x100 EXP SWAP1 DIV PUSH1 0xFF AND DUP2 JUMP JUMPDEST PUSH1 0x1 SLOAD DUP2 JUMP JUMPDEST PUSH2 0x97 DUP2 PUSH2 0xFF JUMP JUMPDEST DUP3 MSTORE POP POP JUMP JUMPDEST PUSH2 0xA6 DUP2 PUSH2 0xF5 JUMP JUMPDEST DUP3 MSTORE POP POP JUMP JUMPDEST PUSH1 0x0 PUSH1 0x20 DUP3 ADD SWAP1 POP PUSH2 0xC1 PUSH1 0x0 DUP4 ADD DUP5 PUSH2 0x8E JUMP JUMPDEST SWAP3 SWAP2 POP POP JUMP JUMPDEST PUSH1 0x0 PUSH1 0x20 DUP3 ADD SWAP1 POP PUSH2 0xDC PUSH1 0x0 DUP4 ADD DUP5 PUSH2 0x9D JUMP JUMPDEST SWAP3 SWAP2 POP POP JUMP JUMPDEST PUSH1 0x0 DUP2 SWAP1 POP PUSH2 0xF0 DUP3 PUSH2 0x140 JUMP JUMPDEST SWAP2 SWAP1 POP JUMP JUMPDEST PUSH1 0x0 DUP2 SWAP1 POP SWAP2 SWAP1 POP JUMP JUMPDEST PUSH1 0x0 PUSH2 0x10A DUP3 PUSH2 0xE2 JUMP JUMPDEST SWAP1 POP SWAP2 SWAP1 POP JUMP JUMPDEST PUSH32 0x4E487B7100000000000000000000000000000000000000000000000000000000 PUSH1 0x0 MSTORE PUSH1 0x21 PUSH1 0x4 MSTORE PUSH1 0x24 PUSH1 0x0 REVERT JUMPDEST PUSH1 0x5 DUP2 LT PUSH2 0x151 JUMPI PUSH2 0x150 PUSH2 0x111 JUMP JUMPDEST JUMPDEST POP JUMP INVALID LOG2 PUSH5 0x6970667358 0x22 SLT KECCAK256 DUP7 SLOAD 0xF 0xCC DUP4 RETURNDATACOPY 0xC 0xC1 0xF9 NOT PUSH9 0xEF1651C46B64509DA7 0xC5 CREATE SWAP13 0xBB 0xC5 RETURNDATACOPY SELFBALANCE 0x4B 0xA6 LOG2 0xCA 0xF7 PUSH5 0x736F6C6343 STOP ADDMOD SMOD STOP CALLER "
				},
				"gasEstimates": {
					"creation": {
						"codeDepositCost": "78800",
						"executionCost": "46534",
						"totalCost": "125334"
					},
					"external": {
						"lottery()": "2429",
						"u1()": "2535"
					}
				},
				"methodIdentifiers": {
					"lottery()": "ba13a572",
					"u1()": "1aa35610"
				}
			},
			"storageLayout": {
				"storage": [
					{
						"astId": 12,
						"contract": "enum.sol:state",
						"label": "u1",
						"offset": 0,
						"slot": "0",
						"type": "t_enum(user)7"
					},
					{
						"astId": 15,
						"contract": "enum.sol:state",
						"label": "lottery",
						"offset": 0,
						"slot": "1",
						"type": "t_uint256"
					}
				],
				"types": {
					"t_enum(user)7": {
						"encoding": "inplace",
						"label": "enum state.user",
						"numberOfBytes": "1"
					},
					"t_uint256": {
						"encoding": "inplace",
						"label": "uint256",
						"numberOfBytes": "32"
					}
				}
			},
			"userdoc": {
				"kind": "user",
				"methods": {},
				"version": 1
			}
		}
	}
}