{
	"struct.sol": {
		"data": {
			"abi": [
				{
					"inputs": [
						{
							"internalType": "uint256",
							"name": "_rollno",
							"type": "uint256"
						},
						{
							"internalType": "uint256",
							"name": "_seatno",
							"type": "uint256"
						},
						{
							"internalType": "string",
							"name": "_name",
							"type": "string"
						}
					],
					"stateMutability": "nonpayable",
					"type": "constructor"
				},
				{
					"inputs": [],
					"name": "s1",
					"outputs": [
						{
							"internalType": "uint256",
							"name": "rollno",
							"type": "uint256"
						},
						{
							"internalType": "uint256",
							"name": "seatno",
							"type": "uint256"
						},
						{
							"internalType": "string",
							"name": "name",
							"type": "string"
						}
					],
					"stateMutability": "view",
					"type": "function"
				}
			],
			"devdoc": {
				"kind": "dev",
				"methods": {},
				"version": 1
			},
			"evm": {
				"assembly": "    /* \"struct.sol\":145:323  contract data... */\n  mstore(0x40, 0x80)\n    /* \"struct.sol\":189:320  constructor(uint _rollno, uint _seatno, string memory _name)... */\n  callvalue\n  dup1\n  iszero\n  tag_1\n  jumpi\n  0x00\n  dup1\n  revert\ntag_1:\n  pop\n  mload(0x40)\n  sub(codesize, bytecodeSize)\n  dup1\n  bytecodeSize\n  dup4\n  codecopy\n  dup2\n  dup2\n  add\n  0x40\n  mstore\n  dup2\n  add\n  swap1\n  tag_2\n  swap2\n  swap1\n  tag_3\n  jump\t// in\ntag_2:\n    /* \"struct.sol\":276:283  _rollno */\n  dup3\n    /* \"struct.sol\":264:266  s1 */\n  0x00\n    /* \"struct.sol\":264:273  s1.rollno */\n  dup1\n  add\n    /* \"struct.sol\":264:283  s1.rollno = _rollno */\n  dup2\n  swap1\n  sstore\n  pop\n    /* \"struct.sol\":305:312  _seatno */\n  dup2\n    /* \"struct.sol\":293:295  s1 */\n  0x00\n    /* \"struct.sol\":293:302  s1.seatno */\n  0x01\n  add\n    /* \"struct.sol\":293:312  s1.seatno = _seatno */\n  dup2\n  swap1\n  sstore\n  pop\n    /* \"struct.sol\":189:320  constructor(uint _rollno, uint _seatno, string memory _name)... */\n  pop\n  pop\n  pop\n    /* \"struct.sol\":145:323  contract data... */\n  jump(tag_6)\n    /* \"#utility.yul\":7:428   */\ntag_8:\n    /* \"#utility.yul\":96:101   */\n  0x00\n    /* \"#utility.yul\":121:187   */\n  tag_10\n    /* \"#utility.yul\":137:186   */\n  tag_11\n    /* \"#utility.yul\":179:185   */\n  dup5\n    /* \"#utility.yul\":137:186   */\n  tag_12\n  jump\t// in\ntag_11:\n    /* \"#utility.yul\":121:187   */\n  tag_13\n  jump\t// in\ntag_10:\n    /* \"#utility.yul\":112:187   */\n  swap1\n  pop\n    /* \"#utility.yul\":210:216   */\n  dup3\n    /* \"#utility.yul\":203:208   */\n  dup2\n    /* \"#utility.yul\":196:217   */\n  mstore\n    /* \"#utility.yul\":248:252   */\n  0x20\n    /* \"#utility.yul\":241:246   */\n  dup2\n    /* \"#utility.yul\":237:253   */\n  add\n    /* \"#utility.yul\":286:289   */\n  dup5\n    /* \"#utility.yul\":277:283   */\n  dup5\n    /* \"#utility.yul\":272:275   */\n  dup5\n    /* \"#utility.yul\":268:284   */\n  add\n    /* \"#utility.yul\":265:290   */\n  gt\n    /* \"#utility.yul\":262:374   */\n  iszero\n  tag_14\n  jumpi\n    /* \"#utility.yul\":293:372   */\n  tag_15\n  tag_16\n  jump\t// in\ntag_15:\n    /* \"#utility.yul\":262:374   */\ntag_14:\n    /* \"#utility.yul\":383:422   */\n  tag_17\n    /* \"#utility.yul\":415:421   */\n  dup5\n    /* \"#utility.yul\":410:413   */\n  dup3\n    /* \"#utility.yul\":405:408   */\n  dup6\n    /* \"#utility.yul\":383:422   */\n  tag_18\n  jump\t// in\ntag_17:\n    /* \"#utility.yul\":102:428   */\n  pop\n    /* \"#utility.yul\":7:428   */\n  swap4\n  swap3\n  pop\n  pop\n  pop\n  jump\t// out\n    /* \"#utility.yul\":448:803   */\ntag_19:\n    /* \"#utility.yul\":515:520   */\n  0x00\n    /* \"#utility.yul\":564:567   */\n  dup3\n    /* \"#utility.yul\":557:561   */\n  0x1f\n    /* \"#utility.yul\":549:555   */\n  dup4\n    /* \"#utility.yul\":545:562   */\n  add\n    /* \"#utility.yul\":541:568   */\n  slt\n    /* \"#utility.yul\":531:653   */\n  tag_21\n  jumpi\n    /* \"#utility.yul\":572:651   */\n  tag_22\n  tag_23\n  jump\t// in\ntag_22:\n    /* \"#utility.yul\":531:653   */\ntag_21:\n    /* \"#utility.yul\":682:688   */\n  dup2\n    /* \"#utility.yul\":676:689   */\n  mload\n    /* \"#utility.yul\":707:797   */\n  tag_24\n    /* \"#utility.yul\":793:796   */\n  dup5\n    /* \"#utility.yul\":785:791   */\n  dup3\n    /* \"#utility.yul\":778:782   */\n  0x20\n    /* \"#utility.yul\":770:776   */\n  dup7\n    /* \"#utility.yul\":766:783   */\n  add\n    /* \"#utility.yul\":707:797   */\n  tag_8\n  jump\t// in\ntag_24:\n    /* \"#utility.yul\":698:797   */\n  swap2\n  pop\n    /* \"#utility.yul\":521:803   */\n  pop\n    /* \"#utility.yul\":448:803   */\n  swap3\n  swap2\n  pop\n  pop\n  jump\t// out\n    /* \"#utility.yul\":809:952   */\ntag_25:\n    /* \"#utility.yul\":866:871   */\n  0x00\n    /* \"#utility.yul\":897:903   */\n  dup2\n    /* \"#utility.yul\":891:904   */\n  mload\n    /* \"#utility.yul\":882:904   */\n  swap1\n  pop\n    /* \"#utility.yul\":913:946   */\n  tag_27\n    /* \"#utility.yul\":940:945   */\n  dup2\n    /* \"#utility.yul\":913:946   */\n  tag_28\n  jump\t// in\ntag_27:\n    /* \"#utility.yul\":809:952   */\n  swap3\n  swap2\n  pop\n  pop\n  jump\t// out\n    /* \"#utility.yul\":958:1794   */\ntag_3:\n    /* \"#utility.yul\":1056:1062   */\n  0x00\n    /* \"#utility.yul\":1064:1070   */\n  dup1\n    /* \"#utility.yul\":1072:1078   */\n  0x00\n    /* \"#utility.yul\":1121:1123   */\n  0x60\n    /* \"#utility.yul\":1109:1118   */\n  dup5\n    /* \"#utility.yul\":1100:1107   */\n  dup7\n    /* \"#utility.yul\":1096:1119   */\n  sub\n    /* \"#utility.yul\":1092:1124   */\n  slt\n    /* \"#utility.yul\":1089:1208   */\n  iszero\n  tag_30\n  jumpi\n    /* \"#utility.yul\":1127:1206   */\n  tag_31\n  tag_32\n  jump\t// in\ntag_31:\n    /* \"#utility.yul\":1089:1208   */\ntag_30:\n    /* \"#utility.yul\":1247:1248   */\n  0x00\n    /* \"#utility.yul\":1272:1336   */\n  tag_33\n    /* \"#utility.yul\":1328:1335   */\n  dup7\n    /* \"#utility.yul\":1319:1325   */\n  dup3\n    /* \"#utility.yul\":1308:1317   */\n  dup8\n    /* \"#utility.yul\":1304:1326   */\n  add\n    /* \"#utility.yul\":1272:1336   */\n  tag_25\n  jump\t// in\ntag_33:\n    /* \"#utility.yul\":1262:1336   */\n  swap4\n  pop\n    /* \"#utility.yul\":1218:1346   */\n  pop\n    /* \"#utility.yul\":1385:1387   */\n  0x20\n    /* \"#utility.yul\":1411:1475   */\n  tag_34\n    /* \"#utility.yul\":1467:1474   */\n  dup7\n    /* \"#utility.yul\":1458:1464   */\n  dup3\n    /* \"#utility.yul\":1447:1456   */\n  dup8\n    /* \"#utility.yul\":1443:1465   */\n  add\n    /* \"#utility.yul\":1411:1475   */\n  tag_25\n  jump\t// in\ntag_34:\n    /* \"#utility.yul\":1401:1475   */\n  swap3\n  pop\n    /* \"#utility.yul\":1356:1485   */\n  pop\n    /* \"#utility.yul\":1545:1547   */\n  0x40\n    /* \"#utility.yul\":1534:1543   */\n  dup5\n    /* \"#utility.yul\":1530:1548   */\n  add\n    /* \"#utility.yul\":1524:1549   */\n  mload\n    /* \"#utility.yul\":1576:1594   */\n  0xffffffffffffffff\n    /* \"#utility.yul\":1568:1574   */\n  dup2\n    /* \"#utility.yul\":1565:1595   */\n  gt\n    /* \"#utility.yul\":1562:1679   */\n  iszero\n  tag_35\n  jumpi\n    /* \"#utility.yul\":1598:1677   */\n  tag_36\n  tag_37\n  jump\t// in\ntag_36:\n    /* \"#utility.yul\":1562:1679   */\ntag_35:\n    /* \"#utility.yul\":1703:1777   */\n  tag_38\n    /* \"#utility.yul\":1769:1776   */\n  dup7\n    /* \"#utility.yul\":1760:1766   */\n  dup3\n    /* \"#utility.yul\":1749:1758   */\n  dup8\n    /* \"#utility.yul\":1745:1767   */\n  add\n    /* \"#utility.yul\":1703:1777   */\n  tag_19\n  jump\t// in\ntag_38:\n    /* \"#utility.yul\":1693:1777   */\n  swap2\n  pop\n    /* \"#utility.yul\":1495:1787   */\n  pop\n    /* \"#utility.yul\":958:1794   */\n  swap3\n  pop\n  swap3\n  pop\n  swap3\n  jump\t// out\n    /* \"#utility.yul\":1800:1929   */\ntag_13:\n    /* \"#utility.yul\":1834:1840   */\n  0x00\n    /* \"#utility.yul\":1861:1881   */\n  tag_40\n  tag_41\n  jump\t// in\ntag_40:\n    /* \"#utility.yul\":1851:1881   */\n  swap1\n  pop\n    /* \"#utility.yul\":1890:1923   */\n  tag_42\n    /* \"#utility.yul\":1918:1922   */\n  dup3\n    /* \"#utility.yul\":1910:1916   */\n  dup3\n    /* \"#utility.yul\":1890:1923   */\n  tag_43\n  jump\t// in\ntag_42:\n    /* \"#utility.yul\":1800:1929   */\n  swap2\n  swap1\n  pop\n  jump\t// out\n    /* \"#utility.yul\":1935:2010   */\ntag_41:\n    /* \"#utility.yul\":1968:1974   */\n  0x00\n    /* \"#utility.yul\":2001:2003   */\n  0x40\n    /* \"#utility.yul\":1995:2004   */\n  mload\n    /* \"#utility.yul\":1985:2004   */\n  swap1\n  pop\n    /* \"#utility.yul\":1935:2010   */\n  swap1\n  jump\t// out\n    /* \"#utility.yul\":2016:2324   */\ntag_12:\n    /* \"#utility.yul\":2078:2082   */\n  0x00\n    /* \"#utility.yul\":2168:2186   */\n  0xffffffffffffffff\n    /* \"#utility.yul\":2160:2166   */\n  dup3\n    /* \"#utility.yul\":2157:2187   */\n  gt\n    /* \"#utility.yul\":2154:2210   */\n  iszero\n  tag_46\n  jumpi\n    /* \"#utility.yul\":2190:2208   */\n  tag_47\n  tag_48\n  jump\t// in\ntag_47:\n    /* \"#utility.yul\":2154:2210   */\ntag_46:\n    /* \"#utility.yul\":2228:2257   */\n  tag_49\n    /* \"#utility.yul\":2250:2256   */\n  dup3\n    /* \"#utility.yul\":2228:2257   */\n  tag_50\n  jump\t// in\ntag_49:\n    /* \"#utility.yul\":2220:2257   */\n  swap1\n  pop\n    /* \"#utility.yul\":2312:2316   */\n  0x20\n    /* \"#utility.yul\":2306:2310   */\n  dup2\n    /* \"#utility.yul\":2302:2317   */\n  add\n    /* \"#utility.yul\":2294:2317   */\n  swap1\n  pop\n    /* \"#utility.yul\":2016:2324   */\n  swap2\n  swap1\n  pop\n  jump\t// out\n    /* \"#utility.yul\":2330:2407   */\ntag_51:\n    /* \"#utility.yul\":2367:2374   */\n  0x00\n    /* \"#utility.yul\":2396:2401   */\n  dup2\n    /* \"#utility.yul\":2385:2401   */\n  swap1\n  pop\n    /* \"#utility.yul\":2330:2407   */\n  swap2\n  swap1\n  pop\n  jump\t// out\n    /* \"#utility.yul\":2413:2720   */\ntag_18:\n    /* \"#utility.yul\":2481:2482   */\n  0x00\n    /* \"#utility.yul\":2491:2604   */\ntag_54:\n    /* \"#utility.yul\":2505:2511   */\n  dup4\n    /* \"#utility.yul\":2502:2503   */\n  dup2\n    /* \"#utility.yul\":2499:2512   */\n  lt\n    /* \"#utility.yul\":2491:2604   */\n  iszero\n  tag_56\n  jumpi\n    /* \"#utility.yul\":2590:2591   */\n  dup1\n    /* \"#utility.yul\":2585:2588   */\n  dup3\n    /* \"#utility.yul\":2581:2592   */\n  add\n    /* \"#utility.yul\":2575:2593   */\n  mload\n    /* \"#utility.yul\":2571:2572   */\n  dup2\n    /* \"#utility.yul\":2566:2569   */\n  dup5\n    /* \"#utility.yul\":2562:2573   */\n  add\n    /* \"#utility.yul\":2555:2594   */\n  mstore\n    /* \"#utility.yul\":2527:2529   */\n  0x20\n    /* \"#utility.yul\":2524:2525   */\n  dup2\n    /* \"#utility.yul\":2520:2530   */\n  add\n    /* \"#utility.yul\":2515:2530   */\n  swap1\n  pop\n    /* \"#utility.yul\":2491:2604   */\n  jump(tag_54)\ntag_56:\n    /* \"#utility.yul\":2622:2628   */\n  dup4\n    /* \"#utility.yul\":2619:2620   */\n  dup2\n    /* \"#utility.yul\":2616:2629   */\n  gt\n    /* \"#utility.yul\":2613:2714   */\n  iszero\n  tag_57\n  jumpi\n    /* \"#utility.yul\":2702:2703   */\n  0x00\n    /* \"#utility.yul\":2693:2699   */\n  dup5\n    /* \"#utility.yul\":2688:2691   */\n  dup5\n    /* \"#utility.yul\":2684:2700   */\n  add\n    /* \"#utility.yul\":2677:2704   */\n  mstore\n    /* \"#utility.yul\":2613:2714   */\ntag_57:\n    /* \"#utility.yul\":2462:2720   */\n  pop\n    /* \"#utility.yul\":2413:2720   */\n  pop\n  pop\n  pop\n  jump\t// out\n    /* \"#utility.yul\":2726:3007   */\ntag_43:\n    /* \"#utility.yul\":2809:2836   */\n  tag_59\n    /* \"#utility.yul\":2831:2835   */\n  dup3\n    /* \"#utility.yul\":2809:2836   */\n  tag_50\n  jump\t// in\ntag_59:\n    /* \"#utility.yul\":2801:2807   */\n  dup2\n    /* \"#utility.yul\":2797:2837   */\n  add\n    /* \"#utility.yul\":2939:2945   */\n  dup2\n    /* \"#utility.yul\":2927:2937   */\n  dup2\n    /* \"#utility.yul\":2924:2946   */\n  lt\n    /* \"#utility.yul\":2903:2921   */\n  0xffffffffffffffff\n    /* \"#utility.yul\":2891:2901   */\n  dup3\n    /* \"#utility.yul\":2888:2922   */\n  gt\n    /* \"#utility.yul\":2885:2947   */\n  or\n    /* \"#utility.yul\":2882:2970   */\n  iszero\n  tag_60\n  jumpi\n    /* \"#utility.yul\":2950:2968   */\n  tag_61\n  tag_48\n  jump\t// in\ntag_61:\n    /* \"#utility.yul\":2882:2970   */\ntag_60:\n    /* \"#utility.yul\":2990:3000   */\n  dup1\n    /* \"#utility.yul\":2986:2988   */\n  0x40\n    /* \"#utility.yul\":2979:3001   */\n  mstore\n    /* \"#utility.yul\":2769:3007   */\n  pop\n    /* \"#utility.yul\":2726:3007   */\n  pop\n  pop\n  jump\t// out\n    /* \"#utility.yul\":3013:3193   */\ntag_48:\n    /* \"#utility.yul\":3061:3138   */\n  0x4e487b7100000000000000000000000000000000000000000000000000000000\n    /* \"#utility.yul\":3058:3059   */\n  0x00\n    /* \"#utility.yul\":3051:3139   */\n  mstore\n    /* \"#utility.yul\":3158:3162   */\n  0x41\n    /* \"#utility.yul\":3155:3156   */\n  0x04\n    /* \"#utility.yul\":3148:3163   */\n  mstore\n    /* \"#utility.yul\":3182:3186   */\n  0x24\n    /* \"#utility.yul\":3179:3180   */\n  0x00\n    /* \"#utility.yul\":3172:3187   */\n  revert\n    /* \"#utility.yul\":3199:3316   */\ntag_23:\n    /* \"#utility.yul\":3308:3309   */\n  0x00\n    /* \"#utility.yul\":3305:3306   */\n  dup1\n    /* \"#utility.yul\":3298:3310   */\n  revert\n    /* \"#utility.yul\":3322:3439   */\ntag_16:\n    /* \"#utility.yul\":3431:3432   */\n  0x00\n    /* \"#utility.yul\":3428:3429   */\n  dup1\n    /* \"#utility.yul\":3421:3433   */\n  revert\n    /* \"#utility.yul\":3445:3562   */\ntag_37:\n    /* \"#utility.yul\":3554:3555   */\n  0x00\n    /* \"#utility.yul\":3551:3552   */\n  dup1\n    /* \"#utility.yul\":3544:3556   */\n  revert\n    /* \"#utility.yul\":3568:3685   */\ntag_32:\n    /* \"#utility.yul\":3677:3678   */\n  0x00\n    /* \"#utility.yul\":3674:3675   */\n  dup1\n    /* \"#utility.yul\":3667:3679   */\n  revert\n    /* \"#utility.yul\":3691:3793   */\ntag_50:\n    /* \"#utility.yul\":3732:3738   */\n  0x00\n    /* \"#utility.yul\":3783:3785   */\n  0x1f\n    /* \"#utility.yul\":3779:3786   */\n  not\n    /* \"#utility.yul\":3774:3776   */\n  0x1f\n    /* \"#utility.yul\":3767:3772   */\n  dup4\n    /* \"#utility.yul\":3763:3777   */\n  add\n    /* \"#utility.yul\":3759:3787   */\n  and\n    /* \"#utility.yul\":3749:3787   */\n  swap1\n  pop\n    /* \"#utility.yul\":3691:3793   */\n  swap2\n  swap1\n  pop\n  jump\t// out\n    /* \"#utility.yul\":3799:3921   */\ntag_28:\n    /* \"#utility.yul\":3872:3896   */\n  tag_69\n    /* \"#utility.yul\":3890:3895   */\n  dup2\n    /* \"#utility.yul\":3872:3896   */\n  tag_51\n  jump\t// in\ntag_69:\n    /* \"#utility.yul\":3865:3870   */\n  dup2\n    /* \"#utility.yul\":3862:3897   */\n  eq\n    /* \"#utility.yul\":3852:3915   */\n  tag_70\n  jumpi\n    /* \"#utility.yul\":3911:3912   */\n  0x00\n    /* \"#utility.yul\":3908:3909   */\n  dup1\n    /* \"#utility.yul\":3901:3913   */\n  revert\n    /* \"#utility.yul\":3852:3915   */\ntag_70:\n    /* \"#utility.yul\":3799:3921   */\n  pop\n  jump\t// out\n    /* \"struct.sol\":145:323  contract data... */\ntag_6:\n  dataSize(sub_0)\n  dup1\n  dataOffset(sub_0)\n  0x00\n  codecopy\n  0x00\n  return\nstop\n\nsub_0: assembly {\n        /* \"struct.sol\":145:323  contract data... */\n      mstore(0x40, 0x80)\n      callvalue\n      dup1\n      iszero\n      tag_1\n      jumpi\n      0x00\n      dup1\n      revert\n    tag_1:\n      pop\n      jumpi(tag_2, lt(calldatasize, 0x04))\n      shr(0xe0, calldataload(0x00))\n      dup1\n      0x6cc014de\n      eq\n      tag_3\n      jumpi\n    tag_2:\n      0x00\n      dup1\n      revert\n        /* \"struct.sol\":165:182  student public s1 */\n    tag_3:\n      tag_4\n      tag_5\n      jump\t// in\n    tag_4:\n      mload(0x40)\n      tag_6\n      swap4\n      swap3\n      swap2\n      swap1\n      tag_7\n      jump\t// in\n    tag_6:\n      mload(0x40)\n      dup1\n      swap2\n      sub\n      swap1\n      return\n    tag_5:\n      0x00\n      dup1\n      0x00\n      add\n      sload\n      swap1\n      dup1\n      0x01\n      add\n      sload\n      swap1\n      dup1\n      0x02\n      add\n      dup1\n      sload\n      tag_8\n      swap1\n      tag_9\n      jump\t// in\n    tag_8:\n      dup1\n      0x1f\n      add\n      0x20\n      dup1\n      swap2\n      div\n      mul\n      0x20\n      add\n      mload(0x40)\n      swap1\n      dup2\n      add\n      0x40\n      mstore\n      dup1\n      swap3\n      swap2\n      swap1\n      dup2\n      dup2\n      mstore\n      0x20\n      add\n      dup3\n      dup1\n      sload\n      tag_10\n      swap1\n      tag_9\n      jump\t// in\n    tag_10:\n      dup1\n      iszero\n      tag_11\n      jumpi\n      dup1\n      0x1f\n      lt\n      tag_12\n      jumpi\n      0x0100\n      dup1\n      dup4\n      sload\n      div\n      mul\n      dup4\n      mstore\n      swap2\n      0x20\n      add\n      swap2\n      jump(tag_11)\n    tag_12:\n      dup3\n      add\n      swap2\n      swap1\n      0x00\n      mstore\n      keccak256(0x00, 0x20)\n      swap1\n    tag_13:\n      dup2\n      sload\n      dup2\n      mstore\n      swap1\n      0x01\n      add\n      swap1\n      0x20\n      add\n      dup1\n      dup4\n      gt\n      tag_13\n      jumpi\n      dup3\n      swap1\n      sub\n      0x1f\n      and\n      dup3\n      add\n      swap2\n    tag_11:\n      pop\n      pop\n      pop\n      pop\n      pop\n      swap1\n      pop\n      dup4\n      jump\t// out\n        /* \"#utility.yul\":7:371   */\n    tag_15:\n        /* \"#utility.yul\":95:98   */\n      0x00\n        /* \"#utility.yul\":123:162   */\n      tag_17\n        /* \"#utility.yul\":156:161   */\n      dup3\n        /* \"#utility.yul\":123:162   */\n      tag_18\n      jump\t// in\n    tag_17:\n        /* \"#utility.yul\":178:249   */\n      tag_19\n        /* \"#utility.yul\":242:248   */\n      dup2\n        /* \"#utility.yul\":237:240   */\n      dup6\n        /* \"#utility.yul\":178:249   */\n      tag_20\n      jump\t// in\n    tag_19:\n        /* \"#utility.yul\":171:249   */\n      swap4\n      pop\n        /* \"#utility.yul\":258:310   */\n      tag_21\n        /* \"#utility.yul\":303:309   */\n      dup2\n        /* \"#utility.yul\":298:301   */\n      dup6\n        /* \"#utility.yul\":291:295   */\n      0x20\n        /* \"#utility.yul\":284:289   */\n      dup7\n        /* \"#utility.yul\":280:296   */\n      add\n        /* \"#utility.yul\":258:310   */\n      tag_22\n      jump\t// in\n    tag_21:\n        /* \"#utility.yul\":335:364   */\n      tag_23\n        /* \"#utility.yul\":357:363   */\n      dup2\n        /* \"#utility.yul\":335:364   */\n      tag_24\n      jump\t// in\n    tag_23:\n        /* \"#utility.yul\":330:333   */\n      dup5\n        /* \"#utility.yul\":326:365   */\n      add\n        /* \"#utility.yul\":319:365   */\n      swap2\n      pop\n        /* \"#utility.yul\":99:371   */\n      pop\n        /* \"#utility.yul\":7:371   */\n      swap3\n      swap2\n      pop\n      pop\n      jump\t// out\n        /* \"#utility.yul\":377:495   */\n    tag_25:\n        /* \"#utility.yul\":464:488   */\n      tag_27\n        /* \"#utility.yul\":482:487   */\n      dup2\n        /* \"#utility.yul\":464:488   */\n      tag_28\n      jump\t// in\n    tag_27:\n        /* \"#utility.yul\":459:462   */\n      dup3\n        /* \"#utility.yul\":452:489   */\n      mstore\n        /* \"#utility.yul\":377:495   */\n      pop\n      pop\n      jump\t// out\n        /* \"#utility.yul\":501:1034   */\n    tag_7:\n        /* \"#utility.yul\":670:674   */\n      0x00\n        /* \"#utility.yul\":708:710   */\n      0x60\n        /* \"#utility.yul\":697:706   */\n      dup3\n        /* \"#utility.yul\":693:711   */\n      add\n        /* \"#utility.yul\":685:711   */\n      swap1\n      pop\n        /* \"#utility.yul\":721:792   */\n      tag_30\n        /* \"#utility.yul\":789:790   */\n      0x00\n        /* \"#utility.yul\":778:787   */\n      dup4\n        /* \"#utility.yul\":774:791   */\n      add\n        /* \"#utility.yul\":765:771   */\n      dup7\n        /* \"#utility.yul\":721:792   */\n      tag_25\n      jump\t// in\n    tag_30:\n        /* \"#utility.yul\":802:874   */\n      tag_31\n        /* \"#utility.yul\":870:872   */\n      0x20\n        /* \"#utility.yul\":859:868   */\n      dup4\n        /* \"#utility.yul\":855:873   */\n      add\n        /* \"#utility.yul\":846:852   */\n      dup6\n        /* \"#utility.yul\":802:874   */\n      tag_25\n      jump\t// in\n    tag_31:\n        /* \"#utility.yul\":921:930   */\n      dup2\n        /* \"#utility.yul\":915:919   */\n      dup2\n        /* \"#utility.yul\":911:931   */\n      sub\n        /* \"#utility.yul\":906:908   */\n      0x40\n        /* \"#utility.yul\":895:904   */\n      dup4\n        /* \"#utility.yul\":891:909   */\n      add\n        /* \"#utility.yul\":884:932   */\n      mstore\n        /* \"#utility.yul\":949:1027   */\n      tag_32\n        /* \"#utility.yul\":1022:1026   */\n      dup2\n        /* \"#utility.yul\":1013:1019   */\n      dup5\n        /* \"#utility.yul\":949:1027   */\n      tag_15\n      jump\t// in\n    tag_32:\n        /* \"#utility.yul\":941:1027   */\n      swap1\n      pop\n        /* \"#utility.yul\":501:1034   */\n      swap5\n      swap4\n      pop\n      pop\n      pop\n      pop\n      jump\t// out\n        /* \"#utility.yul\":1040:1139   */\n    tag_18:\n        /* \"#utility.yul\":1092:1098   */\n      0x00\n        /* \"#utility.yul\":1126:1131   */\n      dup2\n        /* \"#utility.yul\":1120:1132   */\n      mload\n        /* \"#utility.yul\":1110:1132   */\n      swap1\n      pop\n        /* \"#utility.yul\":1040:1139   */\n      swap2\n      swap1\n      pop\n      jump\t// out\n        /* \"#utility.yul\":1145:1314   */\n    tag_20:\n        /* \"#utility.yul\":1229:1240   */\n      0x00\n        /* \"#utility.yul\":1263:1269   */\n      dup3\n        /* \"#utility.yul\":1258:1261   */\n      dup3\n        /* \"#utility.yul\":1251:1270   */\n      mstore\n        /* \"#utility.yul\":1303:1307   */\n      0x20\n        /* \"#utility.yul\":1298:1301   */\n      dup3\n        /* \"#utility.yul\":1294:1308   */\n      add\n        /* \"#utility.yul\":1279:1308   */\n      swap1\n      pop\n        /* \"#utility.yul\":1145:1314   */\n      swap3\n      swap2\n      pop\n      pop\n      jump\t// out\n        /* \"#utility.yul\":1320:1397   */\n    tag_28:\n        /* \"#utility.yul\":1357:1364   */\n      0x00\n        /* \"#utility.yul\":1386:1391   */\n      dup2\n        /* \"#utility.yul\":1375:1391   */\n      swap1\n      pop\n        /* \"#utility.yul\":1320:1397   */\n      swap2\n      swap1\n      pop\n      jump\t// out\n        /* \"#utility.yul\":1403:1710   */\n    tag_22:\n        /* \"#utility.yul\":1471:1472   */\n      0x00\n        /* \"#utility.yul\":1481:1594   */\n    tag_37:\n        /* \"#utility.yul\":1495:1501   */\n      dup4\n        /* \"#utility.yul\":1492:1493   */\n      dup2\n        /* \"#utility.yul\":1489:1502   */\n      lt\n        /* \"#utility.yul\":1481:1594   */\n      iszero\n      tag_39\n      jumpi\n        /* \"#utility.yul\":1580:1581   */\n      dup1\n        /* \"#utility.yul\":1575:1578   */\n      dup3\n        /* \"#utility.yul\":1571:1582   */\n      add\n        /* \"#utility.yul\":1565:1583   */\n      mload\n        /* \"#utility.yul\":1561:1562   */\n      dup2\n        /* \"#utility.yul\":1556:1559   */\n      dup5\n        /* \"#utility.yul\":1552:1563   */\n      add\n        /* \"#utility.yul\":1545:1584   */\n      mstore\n        /* \"#utility.yul\":1517:1519   */\n      0x20\n        /* \"#utility.yul\":1514:1515   */\n      dup2\n        /* \"#utility.yul\":1510:1520   */\n      add\n        /* \"#utility.yul\":1505:1520   */\n      swap1\n      pop\n        /* \"#utility.yul\":1481:1594   */\n      jump(tag_37)\n    tag_39:\n        /* \"#utility.yul\":1612:1618   */\n      dup4\n        /* \"#utility.yul\":1609:1610   */\n      dup2\n        /* \"#utility.yul\":1606:1619   */\n      gt\n        /* \"#utility.yul\":1603:1704   */\n      iszero\n      tag_40\n      jumpi\n        /* \"#utility.yul\":1692:1693   */\n      0x00\n        /* \"#utility.yul\":1683:1689   */\n      dup5\n        /* \"#utility.yul\":1678:1681   */\n      dup5\n        /* \"#utility.yul\":1674:1690   */\n      add\n        /* \"#utility.yul\":1667:1694   */\n      mstore\n        /* \"#utility.yul\":1603:1704   */\n    tag_40:\n        /* \"#utility.yul\":1452:1710   */\n      pop\n        /* \"#utility.yul\":1403:1710   */\n      pop\n      pop\n      pop\n      jump\t// out\n        /* \"#utility.yul\":1716:2036   */\n    tag_9:\n        /* \"#utility.yul\":1760:1766   */\n      0x00\n        /* \"#utility.yul\":1797:1798   */\n      0x02\n        /* \"#utility.yul\":1791:1795   */\n      dup3\n        /* \"#utility.yul\":1787:1799   */\n      div\n        /* \"#utility.yul\":1777:1799   */\n      swap1\n      pop\n        /* \"#utility.yul\":1844:1845   */\n      0x01\n        /* \"#utility.yul\":1838:1842   */\n      dup3\n        /* \"#utility.yul\":1834:1846   */\n      and\n        /* \"#utility.yul\":1865:1883   */\n      dup1\n        /* \"#utility.yul\":1855:1936   */\n      tag_42\n      jumpi\n        /* \"#utility.yul\":1921:1925   */\n      0x7f\n        /* \"#utility.yul\":1913:1919   */\n      dup3\n        /* \"#utility.yul\":1909:1926   */\n      and\n        /* \"#utility.yul\":1899:1926   */\n      swap2\n      pop\n        /* \"#utility.yul\":1855:1936   */\n    tag_42:\n        /* \"#utility.yul\":1983:1985   */\n      0x20\n        /* \"#utility.yul\":1975:1981   */\n      dup3\n        /* \"#utility.yul\":1972:1986   */\n      lt\n        /* \"#utility.yul\":1952:1970   */\n      dup2\n        /* \"#utility.yul\":1949:1987   */\n      eq\n        /* \"#utility.yul\":1946:2030   */\n      iszero\n      tag_43\n      jumpi\n        /* \"#utility.yul\":2002:2020   */\n      tag_44\n      tag_45\n      jump\t// in\n    tag_44:\n        /* \"#utility.yul\":1946:2030   */\n    tag_43:\n        /* \"#utility.yul\":1767:2036   */\n      pop\n        /* \"#utility.yul\":1716:2036   */\n      swap2\n      swap1\n      pop\n      jump\t// out\n        /* \"#utility.yul\":2042:2222   */\n    tag_45:\n        /* \"#utility.yul\":2090:2167   */\n      0x4e487b7100000000000000000000000000000000000000000000000000000000\n        /* \"#utility.yul\":2087:2088   */\n      0x00\n        /* \"#utility.yul\":2080:2168   */\n      mstore\n        /* \"#utility.yul\":2187:2191   */\n      0x22\n        /* \"#utility.yul\":2184:2185   */\n      0x04\n        /* \"#utility.yul\":2177:2192   */\n      mstore\n        /* \"#utility.yul\":2211:2215   */\n      0x24\n        /* \"#utility.yul\":2208:2209   */\n      0x00\n        /* \"#utility.yul\":2201:2216   */\n      revert\n        /* \"#utility.yul\":2228:2330   */\n    tag_24:\n        /* \"#utility.yul\":2269:2275   */\n      0x00\n        /* \"#utility.yul\":2320:2322   */\n      0x1f\n        /* \"#utility.yul\":2316:2323   */\n      not\n        /* \"#utility.yul\":2311:2313   */\n      0x1f\n        /* \"#utility.yul\":2304:2309   */\n      dup4\n        /* \"#utility.yul\":2300:2314   */\n      add\n        /* \"#utility.yul\":2296:2324   */\n      and\n        /* \"#utility.yul\":2286:2324   */\n      swap1\n      pop\n        /* \"#utility.yul\":2228:2330   */\n      swap2\n      swap1\n      pop\n      jump\t// out\n\n    auxdata: 0xa2646970667358221220306322c816800b336e80fcc2763f46f0d3846ecd2214f7f3e532c7ce863efe9964736f6c63430008070033\n}\n",
				"bytecode": {
					"linkReferences": {},
					"object": "608060405234801561001057600080fd5b506040516104f63803806104f6833981810160405281019061003291906100d2565b82600080018190555081600060010181905550505050610270565b600061006061005b84610166565b610141565b90508281526020810184848401111561007c5761007b610239565b5b6100878482856101a1565b509392505050565b600082601f8301126100a4576100a3610234565b5b81516100b484826020860161004d565b91505092915050565b6000815190506100cc81610259565b92915050565b6000806000606084860312156100eb576100ea610243565b5b60006100f9868287016100bd565b935050602061010a868287016100bd565b925050604084015167ffffffffffffffff81111561012b5761012a61023e565b5b6101378682870161008f565b9150509250925092565b600061014b61015c565b905061015782826101d4565b919050565b6000604051905090565b600067ffffffffffffffff82111561018157610180610205565b5b61018a82610248565b9050602081019050919050565b6000819050919050565b60005b838110156101bf5780820151818401526020810190506101a4565b838111156101ce576000848401525b50505050565b6101dd82610248565b810181811067ffffffffffffffff821117156101fc576101fb610205565b5b80604052505050565b7f4e487b7100000000000000000000000000000000000000000000000000000000600052604160045260246000fd5b600080fd5b600080fd5b600080fd5b600080fd5b6000601f19601f8301169050919050565b61026281610197565b811461026d57600080fd5b50565b6102778061027f6000396000f3fe608060405234801561001057600080fd5b506004361061002b5760003560e01c80636cc014de14610030575b600080fd5b610038610050565b60405161004793929190610138565b60405180910390f35b600080600001549080600101549080600201805461006d906101cf565b80601f0160208091040260200160405190810160405280929190818152602001828054610099906101cf565b80156100e65780601f106100bb576101008083540402835291602001916100e6565b820191906000526020600020905b8154815290600101906020018083116100c957829003601f168201915b5050505050905083565b60006100fb82610176565b6101058185610181565b935061011581856020860161019c565b61011e81610230565b840191505092915050565b61013281610192565b82525050565b600060608201905061014d6000830186610129565b61015a6020830185610129565b818103604083015261016c81846100f0565b9050949350505050565b600081519050919050565b600082825260208201905092915050565b6000819050919050565b60005b838110156101ba57808201518184015260208101905061019f565b838111156101c9576000848401525b50505050565b600060028204905060018216806101e757607f821691505b602082108114156101fb576101fa610201565b5b50919050565b7f4e487b7100000000000000000000000000000000000000000000000000000000600052602260045260246000fd5b6000601f19601f830116905091905056fea2646970667358221220306322c816800b336e80fcc2763f46f0d3846ecd2214f7f3e532c7ce863efe9964736f6c63430008070033",
					"opcodes": "PUSH1 0x80 PUSH1 0x40 MSTORE CALLVALUE DUP1 ISZERO PUSH2 0x10 JUMPI PUSH1 0x0 DUP1 REVERT JUMPDEST POP PUSH1 0x40 MLOAD PUSH2 0x4F6 CODESIZE SUB DUP1 PUSH2 0x4F6 DUP4 CODECOPY DUP2 DUP2 ADD PUSH1 0x40 MSTORE DUP2 ADD SWAP1 PUSH2 0x32 SWAP2 SWAP1 PUSH2 0xD2 JUMP JUMPDEST DUP3 PUSH1 0x0 DUP1 ADD DUP2 SWAP1 SSTORE POP DUP2 PUSH1 0x0 PUSH1 0x1 ADD DUP2 SWAP1 SSTORE POP POP POP POP PUSH2 0x270 JUMP JUMPDEST PUSH1 0x0 PUSH2 0x60 PUSH2 0x5B DUP5 PUSH2 0x166 JUMP JUMPDEST PUSH2 0x141 JUMP JUMPDEST SWAP1 POP DUP3 DUP2 MSTORE PUSH1 0x20 DUP2 ADD DUP5 DUP5 DUP5 ADD GT ISZERO PUSH2 0x7C JUMPI PUSH2 0x7B PUSH2 0x239 JUMP JUMPDEST JUMPDEST PUSH2 0x87 DUP5 DUP3 DUP6 PUSH2 0x1A1 JUMP JUMPDEST POP SWAP4 SWAP3 POP POP POP JUMP JUMPDEST PUSH1 0x0 DUP3 PUSH1 0x1F DUP4 ADD SLT PUSH2 0xA4 JUMPI PUSH2 0xA3 PUSH2 0x234 JUMP JUMPDEST JUMPDEST DUP2 MLOAD PUSH2 0xB4 DUP5 DUP3 PUSH1 0x20 DUP7 ADD PUSH2 0x4D JUMP JUMPDEST SWAP2 POP POP SWAP3 SWAP2 POP POP JUMP JUMPDEST PUSH1 0x0 DUP2 MLOAD SWAP1 POP PUSH2 0xCC DUP2 PUSH2 0x259 JUMP JUMPDEST SWAP3 SWAP2 POP POP JUMP JUMPDEST PUSH1 0x0 DUP1 PUSH1 0x0 PUSH1 0x60 DUP5 DUP7 SUB SLT ISZERO PUSH2 0xEB JUMPI PUSH2 0xEA PUSH2 0x243 JUMP JUMPDEST JUMPDEST PUSH1 0x0 PUSH2 0xF9 DUP7 DUP3 DUP8 ADD PUSH2 0xBD JUMP JUMPDEST SWAP4 POP POP PUSH1 0x20 PUSH2 0x10A DUP7 DUP3 DUP8 ADD PUSH2 0xBD JUMP JUMPDEST SWAP3 POP POP PUSH1 0x40 DUP5 ADD MLOAD PUSH8 0xFFFFFFFFFFFFFFFF DUP2 GT ISZERO PUSH2 0x12B JUMPI PUSH2 0x12A PUSH2 0x23E JUMP JUMPDEST JUMPDEST PUSH2 0x137 DUP7 DUP3 DUP8 ADD PUSH2 0x8F JUMP JUMPDEST SWAP2 POP POP SWAP3 POP SWAP3 POP SWAP3 JUMP JUMPDEST PUSH1 0x0 PUSH2 0x14B PUSH2 0x15C JUMP JUMPDEST SWAP1 POP PUSH2 0x157 DUP3 DUP3 PUSH2 0x1D4 JUMP JUMPDEST SWAP2 SWAP1 POP JUMP JUMPDEST PUSH1 0x0 PUSH1 0x40 MLOAD SWAP1 POP SWAP1 JUMP JUMPDEST PUSH1 0x0 PUSH8 0xFFFFFFFFFFFFFFFF DUP3 GT ISZERO PUSH2 0x181 JUMPI PUSH2 0x180 PUSH2 0x205 JUMP JUMPDEST JUMPDEST PUSH2 0x18A DUP3 PUSH2 0x248 JUMP JUMPDEST SWAP1 POP PUSH1 0x20 DUP2 ADD SWAP1 POP SWAP2 SWAP1 POP JUMP JUMPDEST PUSH1 0x0 DUP2 SWAP1 POP SWAP2 SWAP1 POP JUMP JUMPDEST PUSH1 0x0 JUMPDEST DUP4 DUP2 LT ISZERO PUSH2 0x1BF JUMPI DUP1 DUP3 ADD MLOAD DUP2 DUP5 ADD MSTORE PUSH1 0x20 DUP2 ADD SWAP1 POP PUSH2 0x1A4 JUMP JUMPDEST DUP4 DUP2 GT ISZERO PUSH2 0x1CE JUMPI PUSH1 0x0 DUP5 DUP5 ADD MSTORE JUMPDEST POP POP POP POP JUMP JUMPDEST PUSH2 0x1DD DUP3 PUSH2 0x248 JUMP JUMPDEST DUP2 ADD DUP2 DUP2 LT PUSH8 0xFFFFFFFFFFFFFFFF DUP3 GT OR ISZERO PUSH2 0x1FC JUMPI PUSH2 0x1FB PUSH2 0x205 JUMP JUMPDEST JUMPDEST DUP1 PUSH1 0x40 MSTORE POP POP POP JUMP JUMPDEST PUSH32 0x4E487B7100000000000000000000000000000000000000000000000000000000 PUSH1 0x0 MSTORE PUSH1 0x41 PUSH1 0x4 MSTORE PUSH1 0x24 PUSH1 0x0 REVERT JUMPDEST PUSH1 0x0 DUP1 REVERT JUMPDEST PUSH1 0x0 DUP1 REVERT JUMPDEST PUSH1 0x0 DUP1 REVERT JUMPDEST PUSH1 0x0 DUP1 REVERT JUMPDEST PUSH1 0x0 PUSH1 0x1F NOT PUSH1 0x1F DUP4 ADD AND SWAP1 POP SWAP2 SWAP1 POP JUMP JUMPDEST PUSH2 0x262 DUP2 PUSH2 0x197 JUMP JUMPDEST DUP2 EQ PUSH2 0x26D JUMPI PUSH1 0x0 DUP1 REVERT JUMPDEST POP JUMP JUMPDEST PUSH2 0x277 DUP1 PUSH2 0x27F PUSH1 0x0 CODECOPY PUSH1 0x0 RETURN INVALID PUSH1 0x80 PUSH1 0x40 MSTORE CALLVALUE DUP1 ISZERO PUSH2 0x10 JUMPI PUSH1 0x0 DUP1 REVERT JUMPDEST POP PUSH1 0x4 CALLDATASIZE LT PUSH2 0x2B JUMPI PUSH1 0x0 CALLDATALOAD PUSH1 0xE0 SHR DUP1 PUSH4 0x6CC014DE EQ PUSH2 0x30 JUMPI JUMPDEST PUSH1 0x0 DUP1 REVERT JUMPDEST PUSH2 0x38 PUSH2 0x50 JUMP JUMPDEST PUSH1 0x40 MLOAD PUSH2 0x47 SWAP4 SWAP3 SWAP2 SWAP1 PUSH2 0x138 JUMP JUMPDEST PUSH1 0x40 MLOAD DUP1 SWAP2 SUB SWAP1 RETURN JUMPDEST PUSH1 0x0 DUP1 PUSH1 0x0 ADD SLOAD SWAP1 DUP1 PUSH1 0x1 ADD SLOAD SWAP1 DUP1 PUSH1 0x2 ADD DUP1 SLOAD PUSH2 0x6D SWAP1 PUSH2 0x1CF JUMP JUMPDEST DUP1 PUSH1 0x1F ADD PUSH1 0x20 DUP1 SWAP2 DIV MUL PUSH1 0x20 ADD PUSH1 0x40 MLOAD SWAP1 DUP2 ADD PUSH1 0x40 MSTORE DUP1 SWAP3 SWAP2 SWAP1 DUP2 DUP2 MSTORE PUSH1 0x20 ADD DUP3 DUP1 SLOAD PUSH2 0x99 SWAP1 PUSH2 0x1CF JUMP JUMPDEST DUP1 ISZERO PUSH2 0xE6 JUMPI DUP1 PUSH1 0x1F LT PUSH2 0xBB JUMPI PUSH2 0x100 DUP1 DUP4 SLOAD DIV MUL DUP4 MSTORE SWAP2 PUSH1 0x20 ADD SWAP2 PUSH2 0xE6 JUMP JUMPDEST DUP3 ADD SWAP2 SWAP1 PUSH1 0x0 MSTORE PUSH1 0x20 PUSH1 0x0 KECCAK256 SWAP1 JUMPDEST DUP2 SLOAD DUP2 MSTORE SWAP1 PUSH1 0x1 ADD SWAP1 PUSH1 0x20 ADD DUP1 DUP4 GT PUSH2 0xC9 JUMPI DUP3 SWAP1 SUB PUSH1 0x1F AND DUP3 ADD SWAP2 JUMPDEST POP POP POP POP POP SWAP1 POP DUP4 JUMP JUMPDEST PUSH1 0x0 PUSH2 0xFB DUP3 PUSH2 0x176 JUMP JUMPDEST PUSH2 0x105 DUP2 DUP6 PUSH2 0x181 JUMP JUMPDEST SWAP4 POP PUSH2 0x115 DUP2 DUP6 PUSH1 0x20 DUP7 ADD PUSH2 0x19C JUMP JUMPDEST PUSH2 0x11E DUP2 PUSH2 0x230 JUMP JUMPDEST DUP5 ADD SWAP2 POP POP SWAP3 SWAP2 POP POP JUMP JUMPDEST PUSH2 0x132 DUP2 PUSH2 0x192 JUMP JUMPDEST DUP3 MSTORE POP POP JUMP JUMPDEST PUSH1 0x0 PUSH1 0x60 DUP3 ADD SWAP1 POP PUSH2 0x14D PUSH1 0x0 DUP4 ADD DUP7 PUSH2 0x129 JUMP JUMPDEST PUSH2 0x15A PUSH1 0x20 DUP4 ADD DUP6 PUSH2 0x129 JUMP JUMPDEST DUP2 DUP2 SUB PUSH1 0x40 DUP4 ADD MSTORE PUSH2 0x16C DUP2 DUP5 PUSH2 0xF0 JUMP JUMPDEST SWAP1 POP SWAP5 SWAP4 POP POP POP POP JUMP JUMPDEST PUSH1 0x0 DUP2 MLOAD SWAP1 POP SWAP2 SWAP1 POP JUMP JUMPDEST PUSH1 0x0 DUP3 DUP3 MSTORE PUSH1 0x20 DUP3 ADD SWAP1 POP SWAP3 SWAP2 POP POP JUMP JUMPDEST PUSH1 0x0 DUP2 SWAP1 POP SWAP2 SWAP1 POP JUMP JUMPDEST PUSH1 0x0 JUMPDEST DUP4 DUP2 LT ISZERO PUSH2 0x1BA JUMPI DUP1 DUP3 ADD MLOAD DUP2 DUP5 ADD MSTORE PUSH1 0x20 DUP2 ADD SWAP1 POP PUSH2 0x19F JUMP JUMPDEST DUP4 DUP2 GT ISZERO PUSH2 0x1C9 JUMPI PUSH1 0x0 DUP5 DUP5 ADD MSTORE JUMPDEST POP POP POP POP JUMP JUMPDEST PUSH1 0x0 PUSH1 0x2 DUP3 DIV SWAP1 POP PUSH1 0x1 DUP3 AND DUP1 PUSH2 0x1E7 JUMPI PUSH1 0x7F DUP3 AND SWAP2 POP JUMPDEST PUSH1 0x20 DUP3 LT DUP2 EQ ISZERO PUSH2 0x1FB JUMPI PUSH2 0x1FA PUSH2 0x201 JUMP JUMPDEST JUMPDEST POP SWAP2 SWAP1 POP JUMP JUMPDEST PUSH32 0x4E487B7100000000000000000000000000000000000000000000000000000000 PUSH1 0x0 MSTORE PUSH1 0x22 PUSH1 0x4 MSTORE PUSH1 0x24 PUSH1 0x0 REVERT JUMPDEST PUSH1 0x0 PUSH1 0x1F NOT PUSH1 0x1F DUP4 ADD AND SWAP1 POP SWAP2 SWAP1 POP JUMP INVALID LOG2 PUSH5 0x6970667358 0x22 SLT KECCAK256 ADDRESS PUSH4 0x22C81680 SIGNEXTEND CALLER PUSH15 0x80FCC2763F46F0D3846ECD2214F7F3 0xE5 ORIGIN 0xC7 0xCE DUP7 RETURNDATACOPY INVALID SWAP10 PUSH5 0x736F6C6343 STOP ADDMOD SMOD STOP CALLER "
				},
				"gasEstimates": {
					"creation": {
						"codeDepositCost": "126200",
						"executionCost": "infinite",
						"totalCost": "infinite"
					},
					"external": {
						"s1()": "infinite"
					}
				},
				"methodIdentifiers": {
					"s1()": "6cc014de"
				}
			},
			"storageLayout": {
				"storage": [
					{
						"astId": 11,
						"contract": "struct.sol:data",
						"label": "s1",
						"offset": 0,
						"slot": "0",
						"type": "t_struct(student)8_storage"
					}
				],
				"types": {
					"t_string_storage": {
						"encoding": "bytes",
						"label": "string",
						"numberOfBytes": "32"
					},
					"t_struct(student)8_storage": {
						"encoding": "inplace",
						"label": "struct student",
						"members": [
							{
								"astId": 3,
								"contract": "struct.sol:data",
								"label": "rollno",
								"offset": 0,
								"slot": "0",
								"type": "t_uint256"
							},
							{
								"astId": 5,
								"contract": "struct.sol:data",
								"label": "seatno",
								"offset": 0,
								"slot": "1",
								"type": "t_uint256"
							},
							{
								"astId": 7,
								"contract": "struct.sol:data",
								"label": "name",
								"offset": 0,
								"slot": "2",
								"type": "t_string_storage"
							}
						],
						"numberOfBytes": "96"
					},
					"t_uint256": {
						"encoding": "inplace",
						"label": "uint256",
						"numberOfBytes": "32"
					}
				}
			},
			"userdoc": {
				"kind": "user",
				"methods": {},
				"version": 1
			}
		}
	}
}