{
	"byte_dynamic_array.sol": {
		"byte_dynamic_arrat": {
			"abi": [
				{
					"inputs": [],
					"name": "arr",
					"outputs": [
						{
							"internalType": "bytes",
							"name": "",
							"type": "bytes"
						}
					],
					"stateMutability": "view",
					"type": "function"
				}
			],
			"devdoc": {
				"kind": "dev",
				"methods": {},
				"version": 1
			},
			"evm": {
				"assembly": "    /* \"byte_dynamic_array.sol\":73:126  contract byte_dynamic_arrat... */\n  mstore(0x40, 0x80)\n  callvalue\n  dup1\n  iszero\n  tag_1\n  jumpi\n  0x00\n  dup1\n  revert\ntag_1:\n  pop\n  dataSize(sub_0)\n  dup1\n  dataOffset(sub_0)\n  0x00\n  codecopy\n  0x00\n  return\nstop\n\nsub_0: assembly {\n        /* \"byte_dynamic_array.sol\":73:126  contract byte_dynamic_arrat... */\n      mstore(0x40, 0x80)\n      callvalue\n      dup1\n      iszero\n      tag_1\n      jumpi\n      0x00\n      dup1\n      revert\n    tag_1:\n      pop\n      jumpi(tag_2, lt(calldatasize, 0x04))\n      shr(0xe0, calldataload(0x00))\n      dup1\n      0xe81d53cf\n      eq\n      tag_3\n      jumpi\n    tag_2:\n      0x00\n      dup1\n      revert\n        /* \"byte_dynamic_array.sol\":107:123  bytes public arr */\n    tag_3:\n      tag_4\n      tag_5\n      jump\t// in\n    tag_4:\n      mload(0x40)\n      tag_6\n      swap2\n      swap1\n      tag_7\n      jump\t// in\n    tag_6:\n      mload(0x40)\n      dup1\n      swap2\n      sub\n      swap1\n      return\n    tag_5:\n      0x00\n      dup1\n      sload\n      tag_8\n      swap1\n      tag_9\n      jump\t// in\n    tag_8:\n      dup1\n      0x1f\n      add\n      0x20\n      dup1\n      swap2\n      div\n      mul\n      0x20\n      add\n      mload(0x40)\n      swap1\n      dup2\n      add\n      0x40\n      mstore\n      dup1\n      swap3\n      swap2\n      swap1\n      dup2\n      dup2\n      mstore\n      0x20\n      add\n      dup3\n      dup1\n      sload\n      tag_10\n      swap1\n      tag_9\n      jump\t// in\n    tag_10:\n      dup1\n      iszero\n      tag_11\n      jumpi\n      dup1\n      0x1f\n      lt\n      tag_12\n      jumpi\n      0x0100\n      dup1\n      dup4\n      sload\n      div\n      mul\n      dup4\n      mstore\n      swap2\n      0x20\n      add\n      swap2\n      jump(tag_11)\n    tag_12:\n      dup3\n      add\n      swap2\n      swap1\n      0x00\n      mstore\n      keccak256(0x00, 0x20)\n      swap1\n    tag_13:\n      dup2\n      sload\n      dup2\n      mstore\n      swap1\n      0x01\n      add\n      swap1\n      0x20\n      add\n      dup1\n      dup4\n      gt\n      tag_13\n      jumpi\n      dup3\n      swap1\n      sub\n      0x1f\n      and\n      dup3\n      add\n      swap2\n    tag_11:\n      pop\n      pop\n      pop\n      pop\n      pop\n      dup2\n      jump\t// out\n        /* \"#utility.yul\":7:367   */\n    tag_15:\n        /* \"#utility.yul\":93:96   */\n      0x00\n        /* \"#utility.yul\":121:159   */\n      tag_17\n        /* \"#utility.yul\":153:158   */\n      dup3\n        /* \"#utility.yul\":121:159   */\n      tag_18\n      jump\t// in\n    tag_17:\n        /* \"#utility.yul\":175:245   */\n      tag_19\n        /* \"#utility.yul\":238:244   */\n      dup2\n        /* \"#utility.yul\":233:236   */\n      dup6\n        /* \"#utility.yul\":175:245   */\n      tag_20\n      jump\t// in\n    tag_19:\n        /* \"#utility.yul\":168:245   */\n      swap4\n      pop\n        /* \"#utility.yul\":254:306   */\n      tag_21\n        /* \"#utility.yul\":299:305   */\n      dup2\n        /* \"#utility.yul\":294:297   */\n      dup6\n        /* \"#utility.yul\":287:291   */\n      0x20\n        /* \"#utility.yul\":280:285   */\n      dup7\n        /* \"#utility.yul\":276:292   */\n      add\n        /* \"#utility.yul\":254:306   */\n      tag_22\n      jump\t// in\n    tag_21:\n        /* \"#utility.yul\":331:360   */\n      tag_23\n        /* \"#utility.yul\":353:359   */\n      dup2\n        /* \"#utility.yul\":331:360   */\n      tag_24\n      jump\t// in\n    tag_23:\n        /* \"#utility.yul\":326:329   */\n      dup5\n        /* \"#utility.yul\":322:361   */\n      add\n        /* \"#utility.yul\":315:361   */\n      swap2\n      pop\n        /* \"#utility.yul\":97:367   */\n      pop\n        /* \"#utility.yul\":7:367   */\n      swap3\n      swap2\n      pop\n      pop\n      jump\t// out\n        /* \"#utility.yul\":373:682   */\n    tag_7:\n        /* \"#utility.yul\":484:488   */\n      0x00\n        /* \"#utility.yul\":522:524   */\n      0x20\n        /* \"#utility.yul\":511:520   */\n      dup3\n        /* \"#utility.yul\":507:525   */\n      add\n        /* \"#utility.yul\":499:525   */\n      swap1\n      pop\n        /* \"#utility.yul\":571:580   */\n      dup2\n        /* \"#utility.yul\":565:569   */\n      dup2\n        /* \"#utility.yul\":561:581   */\n      sub\n        /* \"#utility.yul\":557:558   */\n      0x00\n        /* \"#utility.yul\":546:555   */\n      dup4\n        /* \"#utility.yul\":542:559   */\n      add\n        /* \"#utility.yul\":535:582   */\n      mstore\n        /* \"#utility.yul\":599:675   */\n      tag_26\n        /* \"#utility.yul\":670:674   */\n      dup2\n        /* \"#utility.yul\":661:667   */\n      dup5\n        /* \"#utility.yul\":599:675   */\n      tag_15\n      jump\t// in\n    tag_26:\n        /* \"#utility.yul\":591:675   */\n      swap1\n      pop\n        /* \"#utility.yul\":373:682   */\n      swap3\n      swap2\n      pop\n      pop\n      jump\t// out\n        /* \"#utility.yul\":688:786   */\n    tag_18:\n        /* \"#utility.yul\":739:745   */\n      0x00\n        /* \"#utility.yul\":773:778   */\n      dup2\n        /* \"#utility.yul\":767:779   */\n      mload\n        /* \"#utility.yul\":757:779   */\n      swap1\n      pop\n        /* \"#utility.yul\":688:786   */\n      swap2\n      swap1\n      pop\n      jump\t// out\n        /* \"#utility.yul\":792:960   */\n    tag_20:\n        /* \"#utility.yul\":875:886   */\n      0x00\n        /* \"#utility.yul\":909:915   */\n      dup3\n        /* \"#utility.yul\":904:907   */\n      dup3\n        /* \"#utility.yul\":897:916   */\n      mstore\n        /* \"#utility.yul\":949:953   */\n      0x20\n        /* \"#utility.yul\":944:947   */\n      dup3\n        /* \"#utility.yul\":940:954   */\n      add\n        /* \"#utility.yul\":925:954   */\n      swap1\n      pop\n        /* \"#utility.yul\":792:960   */\n      swap3\n      swap2\n      pop\n      pop\n      jump\t// out\n        /* \"#utility.yul\":966:1273   */\n    tag_22:\n        /* \"#utility.yul\":1034:1035   */\n      0x00\n        /* \"#utility.yul\":1044:1157   */\n    tag_30:\n        /* \"#utility.yul\":1058:1064   */\n      dup4\n        /* \"#utility.yul\":1055:1056   */\n      dup2\n        /* \"#utility.yul\":1052:1065   */\n      lt\n        /* \"#utility.yul\":1044:1157   */\n      iszero\n      tag_32\n      jumpi\n        /* \"#utility.yul\":1143:1144   */\n      dup1\n        /* \"#utility.yul\":1138:1141   */\n      dup3\n        /* \"#utility.yul\":1134:1145   */\n      add\n        /* \"#utility.yul\":1128:1146   */\n      mload\n        /* \"#utility.yul\":1124:1125   */\n      dup2\n        /* \"#utility.yul\":1119:1122   */\n      dup5\n        /* \"#utility.yul\":1115:1126   */\n      add\n        /* \"#utility.yul\":1108:1147   */\n      mstore\n        /* \"#utility.yul\":1080:1082   */\n      0x20\n        /* \"#utility.yul\":1077:1078   */\n      dup2\n        /* \"#utility.yul\":1073:1083   */\n      add\n        /* \"#utility.yul\":1068:1083   */\n      swap1\n      pop\n        /* \"#utility.yul\":1044:1157   */\n      jump(tag_30)\n    tag_32:\n        /* \"#utility.yul\":1175:1181   */\n      dup4\n        /* \"#utility.yul\":1172:1173   */\n      dup2\n        /* \"#utility.yul\":1169:1182   */\n      gt\n        /* \"#utility.yul\":1166:1267   */\n      iszero\n      tag_33\n      jumpi\n        /* \"#utility.yul\":1255:1256   */\n      0x00\n        /* \"#utility.yul\":1246:1252   */\n      dup5\n        /* \"#utility.yul\":1241:1244   */\n      dup5\n        /* \"#utility.yul\":1237:1253   */\n      add\n        /* \"#utility.yul\":1230:1257   */\n      mstore\n        /* \"#utility.yul\":1166:1267   */\n    tag_33:\n        /* \"#utility.yul\":1015:1273   */\n      pop\n        /* \"#utility.yul\":966:1273   */\n      pop\n      pop\n      pop\n      jump\t// out\n        /* \"#utility.yul\":1279:1599   */\n    tag_9:\n        /* \"#utility.yul\":1323:1329   */\n      0x00\n        /* \"#utility.yul\":1360:1361   */\n      0x02\n        /* \"#utility.yul\":1354:1358   */\n      dup3\n        /* \"#utility.yul\":1350:1362   */\n      div\n        /* \"#utility.yul\":1340:1362   */\n      swap1\n      pop\n        /* \"#utility.yul\":1407:1408   */\n      0x01\n        /* \"#utility.yul\":1401:1405   */\n      dup3\n        /* \"#utility.yul\":1397:1409   */\n      and\n        /* \"#utility.yul\":1428:1446   */\n      dup1\n        /* \"#utility.yul\":1418:1499   */\n      tag_35\n      jumpi\n        /* \"#utility.yul\":1484:1488   */\n      0x7f\n        /* \"#utility.yul\":1476:1482   */\n      dup3\n        /* \"#utility.yul\":1472:1489   */\n      and\n        /* \"#utility.yul\":1462:1489   */\n      swap2\n      pop\n        /* \"#utility.yul\":1418:1499   */\n    tag_35:\n        /* \"#utility.yul\":1546:1548   */\n      0x20\n        /* \"#utility.yul\":1538:1544   */\n      dup3\n        /* \"#utility.yul\":1535:1549   */\n      lt\n        /* \"#utility.yul\":1515:1533   */\n      dup2\n        /* \"#utility.yul\":1512:1550   */\n      eq\n        /* \"#utility.yul\":1509:1593   */\n      iszero\n      tag_36\n      jumpi\n        /* \"#utility.yul\":1565:1583   */\n      tag_37\n      tag_38\n      jump\t// in\n    tag_37:\n        /* \"#utility.yul\":1509:1593   */\n    tag_36:\n        /* \"#utility.yul\":1330:1599   */\n      pop\n        /* \"#utility.yul\":1279:1599   */\n      swap2\n      swap1\n      pop\n      jump\t// out\n        /* \"#utility.yul\":1605:1785   */\n    tag_38:\n        /* \"#utility.yul\":1653:1730   */\n      0x4e487b7100000000000000000000000000000000000000000000000000000000\n        /* \"#utility.yul\":1650:1651   */\n      0x00\n        /* \"#utility.yul\":1643:1731   */\n      mstore\n        /* \"#utility.yul\":1750:1754   */\n      0x22\n        /* \"#utility.yul\":1747:1748   */\n      0x04\n        /* \"#utility.yul\":1740:1755   */\n      mstore\n        /* \"#utility.yul\":1774:1778   */\n      0x24\n        /* \"#utility.yul\":1771:1772   */\n      0x00\n        /* \"#utility.yul\":1764:1779   */\n      revert\n        /* \"#utility.yul\":1791:1893   */\n    tag_24:\n        /* \"#utility.yul\":1832:1838   */\n      0x00\n        /* \"#utility.yul\":1883:1885   */\n      0x1f\n        /* \"#utility.yul\":1879:1886   */\n      not\n        /* \"#utility.yul\":1874:1876   */\n      0x1f\n        /* \"#utility.yul\":1867:1872   */\n      dup4\n        /* \"#utility.yul\":1863:1877   */\n      add\n        /* \"#utility.yul\":1859:1887   */\n      and\n        /* \"#utility.yul\":1849:1887   */\n      swap1\n      pop\n        /* \"#utility.yul\":1791:1893   */\n      swap2\n      swap1\n      pop\n      jump\t// out\n\n    auxdata: 0xa264697066735822122010e8d17d3ed0c2c0a35e86ebfe265cedaa3967d5a4735f64044b392068b7cb5664736f6c63430008070033\n}\n",
				"bytecode": {
					"linkReferences": {},
					"object": "608060405234801561001057600080fd5b5061022e806100206000396000f3fe608060405234801561001057600080fd5b506004361061002b5760003560e01c8063e81d53cf14610030575b600080fd5b61003861004e565b6040516100459190610115565b60405180910390f35b6000805461005b90610186565b80601f016020809104026020016040519081016040528092919081815260200182805461008790610186565b80156100d45780601f106100a9576101008083540402835291602001916100d4565b820191906000526020600020905b8154815290600101906020018083116100b757829003601f168201915b505050505081565b60006100e782610137565b6100f18185610142565b9350610101818560208601610153565b61010a816101e7565b840191505092915050565b6000602082019050818103600083015261012f81846100dc565b905092915050565b600081519050919050565b600082825260208201905092915050565b60005b83811015610171578082015181840152602081019050610156565b83811115610180576000848401525b50505050565b6000600282049050600182168061019e57607f821691505b602082108114156101b2576101b16101b8565b5b50919050565b7f4e487b7100000000000000000000000000000000000000000000000000000000600052602260045260246000fd5b6000601f19601f830116905091905056fea264697066735822122010e8d17d3ed0c2c0a35e86ebfe265cedaa3967d5a4735f64044b392068b7cb5664736f6c63430008070033",
					"opcodes": "PUSH1 0x80 PUSH1 0x40 MSTORE CALLVALUE DUP1 ISZERO PUSH2 0x10 JUMPI PUSH1 0x0 DUP1 REVERT JUMPDEST POP PUSH2 0x22E DUP1 PUSH2 0x20 PUSH1 0x0 CODECOPY PUSH1 0x0 RETURN INVALID PUSH1 0x80 PUSH1 0x40 MSTORE CALLVALUE DUP1 ISZERO PUSH2 0x10 JUMPI PUSH1 0x0 DUP1 REVERT JUMPDEST POP PUSH1 0x4 CALLDATASIZE LT PUSH2 0x2B JUMPI PUSH1 0x0 CALLDATALOAD PUSH1 0xE0 SHR DUP1 PUSH4 0xE81D53CF EQ PUSH2 0x30 JUMPI JUMPDEST PUSH1 0x0 DUP1 REVERT JUMPDEST PUSH2 0x38 PUSH2 0x4E JUMP JUMPDEST PUSH1 0x40 MLOAD PUSH2 0x45 SWAP2 SWAP1 PUSH2 0x115 JUMP JUMPDEST PUSH1 0x40 MLOAD DUP1 SWAP2 SUB SWAP1 RETURN JUMPDEST PUSH1 0x0 DUP1 SLOAD PUSH2 0x5B SWAP1 PUSH2 0x186 JUMP JUMPDEST DUP1 PUSH1 0x1F ADD PUSH1 0x20 DUP1 SWAP2 DIV MUL PUSH1 0x20 ADD PUSH1 0x40 MLOAD SWAP1 DUP2 ADD PUSH1 0x40 MSTORE DUP1 SWAP3 SWAP2 SWAP1 DUP2 DUP2 MSTORE PUSH1 0x20 ADD DUP3 DUP1 SLOAD PUSH2 0x87 SWAP1 PUSH2 0x186 JUMP JUMPDEST DUP1 ISZERO PUSH2 0xD4 JUMPI DUP1 PUSH1 0x1F LT PUSH2 0xA9 JUMPI PUSH2 0x100 DUP1 DUP4 SLOAD DIV MUL DUP4 MSTORE SWAP2 PUSH1 0x20 ADD SWAP2 PUSH2 0xD4 JUMP JUMPDEST DUP3 ADD SWAP2 SWAP1 PUSH1 0x0 MSTORE PUSH1 0x20 PUSH1 0x0 KECCAK256 SWAP1 JUMPDEST DUP2 SLOAD DUP2 MSTORE SWAP1 PUSH1 0x1 ADD SWAP1 PUSH1 0x20 ADD DUP1 DUP4 GT PUSH2 0xB7 JUMPI DUP3 SWAP1 SUB PUSH1 0x1F AND DUP3 ADD SWAP2 JUMPDEST POP POP POP POP POP DUP2 JUMP JUMPDEST PUSH1 0x0 PUSH2 0xE7 DUP3 PUSH2 0x137 JUMP JUMPDEST PUSH2 0xF1 DUP2 DUP6 PUSH2 0x142 JUMP JUMPDEST SWAP4 POP PUSH2 0x101 DUP2 DUP6 PUSH1 0x20 DUP7 ADD PUSH2 0x153 JUMP JUMPDEST PUSH2 0x10A DUP2 PUSH2 0x1E7 JUMP JUMPDEST DUP5 ADD SWAP2 POP POP SWAP3 SWAP2 POP POP JUMP JUMPDEST PUSH1 0x0 PUSH1 0x20 DUP3 ADD SWAP1 POP DUP2 DUP2 SUB PUSH1 0x0 DUP4 ADD MSTORE PUSH2 0x12F DUP2 DUP5 PUSH2 0xDC JUMP JUMPDEST SWAP1 POP SWAP3 SWAP2 POP POP JUMP JUMPDEST PUSH1 0x0 DUP2 MLOAD SWAP1 POP SWAP2 SWAP1 POP JUMP JUMPDEST PUSH1 0x0 DUP3 DUP3 MSTORE PUSH1 0x20 DUP3 ADD SWAP1 POP SWAP3 SWAP2 POP POP JUMP JUMPDEST PUSH1 0x0 JUMPDEST DUP4 DUP2 LT ISZERO PUSH2 0x171 JUMPI DUP1 DUP3 ADD MLOAD DUP2 DUP5 ADD MSTORE PUSH1 0x20 DUP2 ADD SWAP1 POP PUSH2 0x156 JUMP JUMPDEST DUP4 DUP2 GT ISZERO PUSH2 0x180 JUMPI PUSH1 0x0 DUP5 DUP5 ADD MSTORE JUMPDEST POP POP POP POP JUMP JUMPDEST PUSH1 0x0 PUSH1 0x2 DUP3 DIV SWAP1 POP PUSH1 0x1 DUP3 AND DUP1 PUSH2 0x19E JUMPI PUSH1 0x7F DUP3 AND SWAP2 POP JUMPDEST PUSH1 0x20 DUP3 LT DUP2 EQ ISZERO PUSH2 0x1B2 JUMPI PUSH2 0x1B1 PUSH2 0x1B8 JUMP JUMPDEST JUMPDEST POP SWAP2 SWAP1 POP JUMP JUMPDEST PUSH32 0x4E487B7100000000000000000000000000000000000000000000000000000000 PUSH1 0x0 MSTORE PUSH1 0x22 PUSH1 0x4 MSTORE PUSH1 0x24 PUSH1 0x0 REVERT JUMPDEST PUSH1 0x0 PUSH1 0x1F NOT PUSH1 0x1F DUP4 ADD AND SWAP1 POP SWAP2 SWAP1 POP JUMP INVALID LOG2 PUSH5 0x6970667358 0x22 SLT KECCAK256 LT 0xE8 0xD1 PUSH30 0x3ED0C2C0A35E86EBFE265CEDAA3967D5A4735F64044B392068B7CB566473 PUSH16 0x6C634300080700330000000000000000 "
				},
				"gasEstimates": {
					"creation": {
						"codeDepositCost": "111600",
						"executionCost": "159",
						"totalCost": "111759"
					},
					"external": {
						"arr()": "infinite"
					}
				},
				"methodIdentifiers": {
					"arr()": "e81d53cf"
				}
			},
			"storageLayout": {
				"storage": [
					{
						"astId": 3,
						"contract": "byte_dynamic_array.sol:byte_dynamic_arrat",
						"label": "arr",
						"offset": 0,
						"slot": "0",
						"type": "t_bytes_storage"
					}
				],
				"types": {
					"t_bytes_storage": {
						"encoding": "bytes",
						"label": "bytes",
						"numberOfBytes": "32"
					}
				}
			},
			"userdoc": {
				"kind": "user",
				"methods": {},
				"version": 1
			}
		}
	}
}