{
	"integers.sol": {
		"local": {
			"abi": [
				{
					"inputs": [],
					"name": "fakemoney",
					"outputs": [
						{
							"internalType": "int256",
							"name": "",
							"type": "int256"
						}
					],
					"stateMutability": "view",
					"type": "function"
				},
				{
					"inputs": [],
					"name": "realmoney",
					"outputs": [
						{
							"internalType": "uint8",
							"name": "",
							"type": "uint8"
						}
					],
					"stateMutability": "view",
					"type": "function"
				}
			],
			"devdoc": {
				"kind": "dev",
				"methods": {},
				"version": 1
			},
			"evm": {
				"assembly": "    /* \"integers.sol\":73:301  contract local {... */\n  mstore(0x40, 0x80)\n    /* \"integers.sol\":106:107  5 */\n  0x05\n    /* \"integers.sol\":94:107  uint8 money=5 */\n  0x00\n  dup1\n  0x0100\n  exp\n  dup2\n  sload\n  dup2\n  0xff\n  mul\n  not\n  and\n  swap1\n  dup4\n  0xff\n  and\n  mul\n  or\n  swap1\n  sstore\n  pop\n    /* \"integers.sol\":129:133  -444 */\n  0xfffffffffffffffffffffffffffffffffffffffffffffffffffffffffffffe44\n    /* \"integers.sol\":113:133  int256 negmoney=-444 */\n  0x01\n  sstore\n    /* \"integers.sol\":73:301  contract local {... */\n  callvalue\n  dup1\n  iszero\n  tag_1\n  jumpi\n  0x00\n  dup1\n  revert\ntag_1:\n  pop\n  dataSize(sub_0)\n  dup1\n  dataOffset(sub_0)\n  0x00\n  codecopy\n  0x00\n  return\nstop\n\nsub_0: assembly {\n        /* \"integers.sol\":73:301  contract local {... */\n      mstore(0x40, 0x80)\n      callvalue\n      dup1\n      iszero\n      tag_1\n      jumpi\n      0x00\n      dup1\n      revert\n    tag_1:\n      pop\n      jumpi(tag_2, lt(calldatasize, 0x04))\n      shr(0xe0, calldataload(0x00))\n      dup1\n      0x733924cd\n      eq\n      tag_3\n      jumpi\n      dup1\n      0xb7b2a6b8\n      eq\n      tag_4\n      jumpi\n    tag_2:\n      0x00\n      dup1\n      revert\n        /* \"integers.sol\":141:224  function realmoney() public view returns (uint8)... */\n    tag_3:\n      tag_5\n      tag_6\n      jump\t// in\n    tag_5:\n      mload(0x40)\n      tag_7\n      swap2\n      swap1\n      tag_8\n      jump\t// in\n    tag_7:\n      mload(0x40)\n      dup1\n      swap2\n      sub\n      swap1\n      return\n        /* \"integers.sol\":229:299  function fakemoney() public view returns (int256)... */\n    tag_4:\n      tag_9\n      tag_10\n      jump\t// in\n    tag_9:\n      mload(0x40)\n      tag_11\n      swap2\n      swap1\n      tag_12\n      jump\t// in\n    tag_11:\n      mload(0x40)\n      dup1\n      swap2\n      sub\n      swap1\n      return\n        /* \"integers.sol\":141:224  function realmoney() public view returns (uint8)... */\n    tag_6:\n        /* \"integers.sol\":183:188  uint8 */\n      0x00\n        /* \"integers.sol\":211:216  money */\n      dup1\n      0x00\n      swap1\n      sload\n      swap1\n      0x0100\n      exp\n      swap1\n      div\n      0xff\n      and\n        /* \"integers.sol\":204:216  return money */\n      swap1\n      pop\n        /* \"integers.sol\":141:224  function realmoney() public view returns (uint8)... */\n      swap1\n      jump\t// out\n        /* \"integers.sol\":229:299  function fakemoney() public view returns (int256)... */\n    tag_10:\n        /* \"integers.sol\":271:277  int256 */\n      0x00\n        /* \"integers.sol\":229:299  function fakemoney() public view returns (int256)... */\n      swap1\n      jump\t// out\n        /* \"#utility.yul\":7:122   */\n    tag_16:\n        /* \"#utility.yul\":92:115   */\n      tag_18\n        /* \"#utility.yul\":109:114   */\n      dup2\n        /* \"#utility.yul\":92:115   */\n      tag_19\n      jump\t// in\n    tag_18:\n        /* \"#utility.yul\":87:90   */\n      dup3\n        /* \"#utility.yul\":80:116   */\n      mstore\n        /* \"#utility.yul\":7:122   */\n      pop\n      pop\n      jump\t// out\n        /* \"#utility.yul\":128:240   */\n    tag_20:\n        /* \"#utility.yul\":211:233   */\n      tag_22\n        /* \"#utility.yul\":227:232   */\n      dup2\n        /* \"#utility.yul\":211:233   */\n      tag_23\n      jump\t// in\n    tag_22:\n        /* \"#utility.yul\":206:209   */\n      dup3\n        /* \"#utility.yul\":199:234   */\n      mstore\n        /* \"#utility.yul\":128:240   */\n      pop\n      pop\n      jump\t// out\n        /* \"#utility.yul\":246:464   */\n    tag_12:\n        /* \"#utility.yul\":337:341   */\n      0x00\n        /* \"#utility.yul\":375:377   */\n      0x20\n        /* \"#utility.yul\":364:373   */\n      dup3\n        /* \"#utility.yul\":360:378   */\n      add\n        /* \"#utility.yul\":352:378   */\n      swap1\n      pop\n        /* \"#utility.yul\":388:457   */\n      tag_25\n        /* \"#utility.yul\":454:455   */\n      0x00\n        /* \"#utility.yul\":443:452   */\n      dup4\n        /* \"#utility.yul\":439:456   */\n      add\n        /* \"#utility.yul\":430:436   */\n      dup5\n        /* \"#utility.yul\":388:457   */\n      tag_16\n      jump\t// in\n    tag_25:\n        /* \"#utility.yul\":246:464   */\n      swap3\n      swap2\n      pop\n      pop\n      jump\t// out\n        /* \"#utility.yul\":470:684   */\n    tag_8:\n        /* \"#utility.yul\":559:563   */\n      0x00\n        /* \"#utility.yul\":597:599   */\n      0x20\n        /* \"#utility.yul\":586:595   */\n      dup3\n        /* \"#utility.yul\":582:600   */\n      add\n        /* \"#utility.yul\":574:600   */\n      swap1\n      pop\n        /* \"#utility.yul\":610:677   */\n      tag_27\n        /* \"#utility.yul\":674:675   */\n      0x00\n        /* \"#utility.yul\":663:672   */\n      dup4\n        /* \"#utility.yul\":659:676   */\n      add\n        /* \"#utility.yul\":650:656   */\n      dup5\n        /* \"#utility.yul\":610:677   */\n      tag_20\n      jump\t// in\n    tag_27:\n        /* \"#utility.yul\":470:684   */\n      swap3\n      swap2\n      pop\n      pop\n      jump\t// out\n        /* \"#utility.yul\":690:766   */\n    tag_19:\n        /* \"#utility.yul\":726:733   */\n      0x00\n        /* \"#utility.yul\":755:760   */\n      dup2\n        /* \"#utility.yul\":744:760   */\n      swap1\n      pop\n        /* \"#utility.yul\":690:766   */\n      swap2\n      swap1\n      pop\n      jump\t// out\n        /* \"#utility.yul\":772:858   */\n    tag_23:\n        /* \"#utility.yul\":807:814   */\n      0x00\n        /* \"#utility.yul\":847:851   */\n      0xff\n        /* \"#utility.yul\":840:845   */\n      dup3\n        /* \"#utility.yul\":836:852   */\n      and\n        /* \"#utility.yul\":825:852   */\n      swap1\n      pop\n        /* \"#utility.yul\":772:858   */\n      swap2\n      swap1\n      pop\n      jump\t// out\n\n    auxdata: 0xa264697066735822122066c1390f6d13d076298bb4d74c462aa04f9a161f27fc1e920eb5ca5414544aac64736f6c63430008070033\n}\n",
				"bytecode": {
					"linkReferences": {},
					"object": "608060405260056000806101000a81548160ff021916908360ff1602179055507ffffffffffffffffffffffffffffffffffffffffffffffffffffffffffffffe4460015534801561004f57600080fd5b5061011f8061005f6000396000f3fe6080604052348015600f57600080fd5b506004361060325760003560e01c8063733924cd146037578063b7b2a6b8146051575b600080fd5b603d606b565b6040516048919060b9565b60405180910390f35b60576081565b6040516062919060a0565b60405180910390f35b60008060009054906101000a900460ff16905090565b600090565b608d8160d2565b82525050565b609a8160dc565b82525050565b600060208201905060b360008301846086565b92915050565b600060208201905060cc60008301846093565b92915050565b6000819050919050565b600060ff8216905091905056fea264697066735822122066c1390f6d13d076298bb4d74c462aa04f9a161f27fc1e920eb5ca5414544aac64736f6c63430008070033",
					"opcodes": "PUSH1 0x80 PUSH1 0x40 MSTORE PUSH1 0x5 PUSH1 0x0 DUP1 PUSH2 0x100 EXP DUP2 SLOAD DUP2 PUSH1 0xFF MUL NOT AND SWAP1 DUP4 PUSH1 0xFF AND MUL OR SWAP1 SSTORE POP PUSH32 0xFFFFFFFFFFFFFFFFFFFFFFFFFFFFFFFFFFFFFFFFFFFFFFFFFFFFFFFFFFFFFE44 PUSH1 0x1 SSTORE CALLVALUE DUP1 ISZERO PUSH2 0x4F JUMPI PUSH1 0x0 DUP1 REVERT JUMPDEST POP PUSH2 0x11F DUP1 PUSH2 0x5F PUSH1 0x0 CODECOPY PUSH1 0x0 RETURN INVALID PUSH1 0x80 PUSH1 0x40 MSTORE CALLVALUE DUP1 ISZERO PUSH1 0xF JUMPI PUSH1 0x0 DUP1 REVERT JUMPDEST POP PUSH1 0x4 CALLDATASIZE LT PUSH1 0x32 JUMPI PUSH1 0x0 CALLDATALOAD PUSH1 0xE0 SHR DUP1 PUSH4 0x733924CD EQ PUSH1 0x37 JUMPI DUP1 PUSH4 0xB7B2A6B8 EQ PUSH1 0x51 JUMPI JUMPDEST PUSH1 0x0 DUP1 REVERT JUMPDEST PUSH1 0x3D PUSH1 0x6B JUMP JUMPDEST PUSH1 0x40 MLOAD PUSH1 0x48 SWAP2 SWAP1 PUSH1 0xB9 JUMP JUMPDEST PUSH1 0x40 MLOAD DUP1 SWAP2 SUB SWAP1 RETURN JUMPDEST PUSH1 0x57 PUSH1 0x81 JUMP JUMPDEST PUSH1 0x40 MLOAD PUSH1 0x62 SWAP2 SWAP1 PUSH1 0xA0 JUMP JUMPDEST PUSH1 0x40 MLOAD DUP1 SWAP2 SUB SWAP1 RETURN JUMPDEST PUSH1 0x0 DUP1 PUSH1 0x0 SWAP1 SLOAD SWAP1 PUSH2 0x100 EXP SWAP1 DIV PUSH1 0xFF AND SWAP1 POP SWAP1 JUMP JUMPDEST PUSH1 0x0 SWAP1 JUMP JUMPDEST PUSH1 0x8D DUP2 PUSH1 0xD2 JUMP JUMPDEST DUP3 MSTORE POP POP JUMP JUMPDEST PUSH1 0x9A DUP2 PUSH1 0xDC JUMP JUMPDEST DUP3 MSTORE POP POP JUMP JUMPDEST PUSH1 0x0 PUSH1 0x20 DUP3 ADD SWAP1 POP PUSH1 0xB3 PUSH1 0x0 DUP4 ADD DUP5 PUSH1 0x86 JUMP JUMPDEST SWAP3 SWAP2 POP POP JUMP JUMPDEST PUSH1 0x0 PUSH1 0x20 DUP3 ADD SWAP1 POP PUSH1 0xCC PUSH1 0x0 DUP4 ADD DUP5 PUSH1 0x93 JUMP JUMPDEST SWAP3 SWAP2 POP POP JUMP JUMPDEST PUSH1 0x0 DUP2 SWAP1 POP SWAP2 SWAP1 POP JUMP JUMPDEST PUSH1 0x0 PUSH1 0xFF DUP3 AND SWAP1 POP SWAP2 SWAP1 POP JUMP INVALID LOG2 PUSH5 0x6970667358 0x22 SLT KECCAK256 PUSH7 0xC1390F6D13D076 0x29 DUP12 0xB4 0xD7 0x4C CHAINID 0x2A LOG0 0x4F SWAP11 AND 0x1F 0x27 0xFC 0x1E SWAP3 0xE 0xB5 0xCA SLOAD EQ SLOAD 0x4A 0xAC PUSH5 0x736F6C6343 STOP ADDMOD SMOD STOP CALLER "
				},
				"gasEstimates": {
					"creation": {
						"codeDepositCost": "57400",
						"executionCost": "46478",
						"totalCost": "103878"
					},
					"external": {
						"fakemoney()": "329",
						"realmoney()": "2457"
					}
				},
				"methodIdentifiers": {
					"fakemoney()": "b7b2a6b8",
					"realmoney()": "733924cd"
				}
			},
			"storageLayout": {
				"storage": [
					{
						"astId": 4,
						"contract": "integers.sol:local",
						"label": "money",
						"offset": 0,
						"slot": "0",
						"type": "t_uint8"
					},
					{
						"astId": 8,
						"contract": "integers.sol:local",
						"label": "negmoney",
						"offset": 0,
						"slot": "1",
						"type": "t_int256"
					}
				],
				"types": {
					"t_int256": {
						"encoding": "inplace",
						"label": "int256",
						"numberOfBytes": "32"
					},
					"t_uint8": {
						"encoding": "inplace",
						"label": "uint8",
						"numberOfBytes": "1"
					}
				}
			},
			"userdoc": {
				"kind": "user",
				"methods": {},
				"version": 1
			}
		}
	}
}