{
	"contract_bal.sol": {
		"pay": {
			"abi": [
				{
					"inputs": [],
					"name": "pay_ether",
					"outputs": [],
					"stateMutability": "payable",
					"type": "function"
				}
			],
			"devdoc": {
				"kind": "dev",
				"methods": {},
				"version": 1
			},
			"evm": {
				"assembly": "    /* \"contract_bal.sol\":73:151  contract pay ... */\n  mstore(0x40, 0x80)\n  callvalue\n  dup1\n  iszero\n  tag_1\n  jumpi\n  0x00\n  dup1\n  revert\ntag_1:\n  pop\n  dataSize(sub_0)\n  dup1\n  dataOffset(sub_0)\n  0x00\n  codecopy\n  0x00\n  return\nstop\n\nsub_0: assembly {\n        /* \"contract_bal.sol\":73:151  contract pay ... */\n      mstore(0x40, 0x80)\n      jumpi(tag_1, lt(calldatasize, 0x04))\n      shr(0xe0, calldataload(0x00))\n      dup1\n      0x2dc16deb\n      eq\n      tag_2\n      jumpi\n    tag_1:\n      0x00\n      dup1\n      revert\n        /* \"contract_bal.sol\":93:149  function pay_ether() public payable... */\n    tag_2:\n      tag_3\n      tag_4\n      jump\t// in\n    tag_3:\n      stop\n    tag_4:\n      jump\t// out\n\n    auxdata: 0xa26469706673582212203ca0e14c7534da7da28237ea52a9ef1a48d0620c66dad86e70a716c4c0598b1064736f6c63430008070033\n}\n",
				"bytecode": {
					"linkReferences": {},
					"object": "6080604052348015600f57600080fd5b50606180601d6000396000f3fe608060405260043610601c5760003560e01c80632dc16deb146021575b600080fd5b60276029565b005b56fea26469706673582212203ca0e14c7534da7da28237ea52a9ef1a48d0620c66dad86e70a716c4c0598b1064736f6c63430008070033",
					"opcodes": "PUSH1 0x80 PUSH1 0x40 MSTORE CALLVALUE DUP1 ISZERO PUSH1 0xF JUMPI PUSH1 0x0 DUP1 REVERT JUMPDEST POP PUSH1 0x61 DUP1 PUSH1 0x1D PUSH1 0x0 CODECOPY PUSH1 0x0 RETURN INVALID PUSH1 0x80 PUSH1 0x40 MSTORE PUSH1 0x4 CALLDATASIZE LT PUSH1 0x1C JUMPI PUSH1 0x0 CALLDATALOAD PUSH1 0xE0 SHR DUP1 PUSH4 0x2DC16DEB EQ PUSH1 0x21 JUMPI JUMPDEST PUSH1 0x0 DUP1 REVERT JUMPDEST PUSH1 0x27 PUSH1 0x29 JUMP JUMPDEST STOP JUMPDEST JUMP INVALID LOG2 PUSH5 0x6970667358 0x22 SLT KECCAK256 EXTCODECOPY LOG0 0xE1 0x4C PUSH22 0x34DA7DA28237EA52A9EF1A48D0620C66DAD86E70A716 0xC4 0xC0 MSIZE DUP12 LT PUSH5 0x736F6C6343 STOP ADDMOD SMOD STOP CALLER "
				},
				"deployedBytecode": {
					"immutableReferences": {},
					"linkReferences": {},
					"object": "608060405260043610601c5760003560e01c80632dc16deb146021575b600080fd5b60276029565b005b56fea26469706673582212203ca0e14c7534da7da28237ea52a9ef1a48d0620c66dad86e70a716c4c0598b1064736f6c63430008070033",
					"opcodes": "PUSH1 0x80 PUSH1 0x40 MSTORE PUSH1 0x4 CALLDATASIZE LT PUSH1 0x1C JUMPI PUSH1 0x0 CALLDATALOAD PUSH1 0xE0 SHR DUP1 PUSH4 0x2DC16DEB EQ PUSH1 0x21 JUMPI JUMPDEST PUSH1 0x0 DUP1 REVERT JUMPDEST PUSH1 0x27 PUSH1 0x29 JUMP JUMPDEST STOP JUMPDEST JUMP INVALID LOG2 PUSH5 0x6970667358 0x22 SLT KECCAK256 EXTCODECOPY LOG0 0xE1 0x4C PUSH22 0x34DA7DA28237EA52A9EF1A48D0620C66DAD86E70A716 0xC4 0xC0 MSIZE DUP12 LT PUSH5 0x736F6C6343 STOP ADDMOD SMOD STOP CALLER "
				},
				"gasEstimates": {
					"creation": {
						"codeDepositCost": "19400",
						"executionCost": "75",
						"totalCost": "19475"
					},
					"external": {
						"pay_ether()": "98"
					}
				},
				"methodIdentifiers": {
					"pay_ether()": "2dc16deb"
				}
			},
			"storageLayout": {
				"storage": [],
				"types": null
			},
			"userdoc": {
				"kind": "user",
				"methods": {},
				"version": 1
			}
		}
	}
}