{
	"dynamic_array.sol": {
		"dynamic_array": {
			"abi": [
				{
					"inputs": [
						{
							"internalType": "uint256",
							"name": "",
							"type": "uint256"
						}
					],
					"name": "dy_arr",
					"outputs": [
						{
							"internalType": "uint256",
							"name": "",
							"type": "uint256"
						}
					],
					"stateMutability": "view",
					"type": "function"
				},
				{
					"inputs": [
						{
							"internalType": "uint256",
							"name": "item",
							"type": "uint256"
						}
					],
					"name": "po_element",
					"outputs": [],
					"stateMutability": "nonpayable",
					"type": "function"
				},
				{
					"inputs": [
						{
							"internalType": "uint256",
							"name": "item",
							"type": "uint256"
						}
					],
					"name": "push_element",
					"outputs": [],
					"stateMutability": "nonpayable",
					"type": "function"
				}
			],
			"devdoc": {
				"kind": "dev",
				"methods": {},
				"version": 1
			},
			"evm": {
				"assembly": "    /* \"dynamic_array.sol\":74:296  contract dynamic_array ... */\n  mstore(0x40, 0x80)\n  callvalue\n  dup1\n  iszero\n  tag_1\n  jumpi\n  0x00\n  dup1\n  revert\ntag_1:\n  pop\n  dataSize(sub_0)\n  dup1\n  dataOffset(sub_0)\n  0x00\n  codecopy\n  0x00\n  return\nstop\n\nsub_0: assembly {\n        /* \"dynamic_array.sol\":74:296  contract dynamic_array ... */\n      mstore(0x40, 0x80)\n      callvalue\n      dup1\n      iszero\n      tag_1\n      jumpi\n      0x00\n      dup1\n      revert\n    tag_1:\n      pop\n      jumpi(tag_2, lt(calldatasize, 0x04))\n      shr(0xe0, calldataload(0x00))\n      dup1\n      0x16022cad\n      eq\n      tag_3\n      jumpi\n      dup1\n      0x7e9b64a4\n      eq\n      tag_4\n      jumpi\n      dup1\n      0xfd525cf5\n      eq\n      tag_5\n      jumpi\n    tag_2:\n      0x00\n      dup1\n      revert\n        /* \"dynamic_array.sol\":104:125  uint [] public dy_arr */\n    tag_3:\n      tag_6\n      0x04\n      dup1\n      calldatasize\n      sub\n      dup2\n      add\n      swap1\n      tag_7\n      swap2\n      swap1\n      tag_8\n      jump\t// in\n    tag_7:\n      tag_9\n      jump\t// in\n    tag_6:\n      mload(0x40)\n      tag_10\n      swap2\n      swap1\n      tag_11\n      jump\t// in\n    tag_10:\n      mload(0x40)\n      dup1\n      swap2\n      sub\n      swap1\n      return\n        /* \"dynamic_array.sol\":217:293  function po_element(uint item) public... */\n    tag_4:\n      tag_12\n      0x04\n      dup1\n      calldatasize\n      sub\n      dup2\n      add\n      swap1\n      tag_13\n      swap2\n      swap1\n      tag_8\n      jump\t// in\n    tag_13:\n      tag_14\n      jump\t// in\n    tag_12:\n      stop\n        /* \"dynamic_array.sol\":133:211  function push_element(uint item) public... */\n    tag_5:\n      tag_15\n      0x04\n      dup1\n      calldatasize\n      sub\n      dup2\n      add\n      swap1\n      tag_16\n      swap2\n      swap1\n      tag_8\n      jump\t// in\n    tag_16:\n      tag_17\n      jump\t// in\n    tag_15:\n      stop\n        /* \"dynamic_array.sol\":104:125  uint [] public dy_arr */\n    tag_9:\n      0x00\n      dup2\n      dup2\n      sload\n      dup2\n      lt\n      tag_18\n      jumpi\n      0x00\n      dup1\n      revert\n    tag_18:\n      swap1\n      0x00\n      mstore\n      keccak256(0x00, 0x20)\n      add\n      0x00\n      swap2\n      pop\n      swap1\n      pop\n      sload\n      dup2\n      jump\t// out\n        /* \"dynamic_array.sol\":217:293  function po_element(uint item) public... */\n    tag_14:\n        /* \"dynamic_array.sol\":269:275  dy_arr */\n      0x00\n        /* \"dynamic_array.sol\":281:285  item */\n      dup2\n        /* \"dynamic_array.sol\":269:286  dy_arr.push(item) */\n      swap1\n      dup1\n      0x01\n      dup2\n      sload\n      add\n      dup1\n      dup3\n      sstore\n      dup1\n      swap2\n      pop\n      pop\n      0x01\n      swap1\n      sub\n      swap1\n      0x00\n      mstore\n      keccak256(0x00, 0x20)\n      add\n      0x00\n      swap1\n      swap2\n      swap1\n      swap2\n      swap1\n      swap2\n      pop\n      sstore\n        /* \"dynamic_array.sol\":217:293  function po_element(uint item) public... */\n      pop\n      jump\t// out\n        /* \"dynamic_array.sol\":133:211  function push_element(uint item) public... */\n    tag_17:\n        /* \"dynamic_array.sol\":187:193  dy_arr */\n      0x00\n        /* \"dynamic_array.sol\":199:203  item */\n      dup2\n        /* \"dynamic_array.sol\":187:204  dy_arr.push(item) */\n      swap1\n      dup1\n      0x01\n      dup2\n      sload\n      add\n      dup1\n      dup3\n      sstore\n      dup1\n      swap2\n      pop\n      pop\n      0x01\n      swap1\n      sub\n      swap1\n      0x00\n      mstore\n      keccak256(0x00, 0x20)\n      add\n      0x00\n      swap1\n      swap2\n      swap1\n      swap2\n      swap1\n      swap2\n      pop\n      sstore\n        /* \"dynamic_array.sol\":133:211  function push_element(uint item) public... */\n      pop\n      jump\t// out\n        /* \"#utility.yul\":7:146   */\n    tag_25:\n        /* \"#utility.yul\":53:58   */\n      0x00\n        /* \"#utility.yul\":91:97   */\n      dup2\n        /* \"#utility.yul\":78:98   */\n      calldataload\n        /* \"#utility.yul\":69:98   */\n      swap1\n      pop\n        /* \"#utility.yul\":107:140   */\n      tag_27\n        /* \"#utility.yul\":134:139   */\n      dup2\n        /* \"#utility.yul\":107:140   */\n      tag_28\n      jump\t// in\n    tag_27:\n        /* \"#utility.yul\":7:146   */\n      swap3\n      swap2\n      pop\n      pop\n      jump\t// out\n        /* \"#utility.yul\":152:481   */\n    tag_8:\n        /* \"#utility.yul\":211:217   */\n      0x00\n        /* \"#utility.yul\":260:262   */\n      0x20\n        /* \"#utility.yul\":248:257   */\n      dup3\n        /* \"#utility.yul\":239:246   */\n      dup5\n        /* \"#utility.yul\":235:258   */\n      sub\n        /* \"#utility.yul\":231:263   */\n      slt\n        /* \"#utility.yul\":228:347   */\n      iszero\n      tag_30\n      jumpi\n        /* \"#utility.yul\":266:345   */\n      tag_31\n      tag_32\n      jump\t// in\n    tag_31:\n        /* \"#utility.yul\":228:347   */\n    tag_30:\n        /* \"#utility.yul\":386:387   */\n      0x00\n        /* \"#utility.yul\":411:464   */\n      tag_33\n        /* \"#utility.yul\":456:463   */\n      dup5\n        /* \"#utility.yul\":447:453   */\n      dup3\n        /* \"#utility.yul\":436:445   */\n      dup6\n        /* \"#utility.yul\":432:454   */\n      add\n        /* \"#utility.yul\":411:464   */\n      tag_25\n      jump\t// in\n    tag_33:\n        /* \"#utility.yul\":401:464   */\n      swap2\n      pop\n        /* \"#utility.yul\":357:474   */\n      pop\n        /* \"#utility.yul\":152:481   */\n      swap3\n      swap2\n      pop\n      pop\n      jump\t// out\n        /* \"#utility.yul\":487:605   */\n    tag_34:\n        /* \"#utility.yul\":574:598   */\n      tag_36\n        /* \"#utility.yul\":592:597   */\n      dup2\n        /* \"#utility.yul\":574:598   */\n      tag_37\n      jump\t// in\n    tag_36:\n        /* \"#utility.yul\":569:572   */\n      dup3\n        /* \"#utility.yul\":562:599   */\n      mstore\n        /* \"#utility.yul\":487:605   */\n      pop\n      pop\n      jump\t// out\n        /* \"#utility.yul\":611:833   */\n    tag_11:\n        /* \"#utility.yul\":704:708   */\n      0x00\n        /* \"#utility.yul\":742:744   */\n      0x20\n        /* \"#utility.yul\":731:740   */\n      dup3\n        /* \"#utility.yul\":727:745   */\n      add\n        /* \"#utility.yul\":719:745   */\n      swap1\n      pop\n        /* \"#utility.yul\":755:826   */\n      tag_39\n        /* \"#utility.yul\":823:824   */\n      0x00\n        /* \"#utility.yul\":812:821   */\n      dup4\n        /* \"#utility.yul\":808:825   */\n      add\n        /* \"#utility.yul\":799:805   */\n      dup5\n        /* \"#utility.yul\":755:826   */\n      tag_34\n      jump\t// in\n    tag_39:\n        /* \"#utility.yul\":611:833   */\n      swap3\n      swap2\n      pop\n      pop\n      jump\t// out\n        /* \"#utility.yul\":920:997   */\n    tag_37:\n        /* \"#utility.yul\":957:964   */\n      0x00\n        /* \"#utility.yul\":986:991   */\n      dup2\n        /* \"#utility.yul\":975:991   */\n      swap1\n      pop\n        /* \"#utility.yul\":920:997   */\n      swap2\n      swap1\n      pop\n      jump\t// out\n        /* \"#utility.yul\":1126:1243   */\n    tag_32:\n        /* \"#utility.yul\":1235:1236   */\n      0x00\n        /* \"#utility.yul\":1232:1233   */\n      dup1\n        /* \"#utility.yul\":1225:1237   */\n      revert\n        /* \"#utility.yul\":1249:1371   */\n    tag_28:\n        /* \"#utility.yul\":1322:1346   */\n      tag_47\n        /* \"#utility.yul\":1340:1345   */\n      dup2\n        /* \"#utility.yul\":1322:1346   */\n      tag_37\n      jump\t// in\n    tag_47:\n        /* \"#utility.yul\":1315:1320   */\n      dup2\n        /* \"#utility.yul\":1312:1347   */\n      eq\n        /* \"#utility.yul\":1302:1365   */\n      tag_48\n      jumpi\n        /* \"#utility.yul\":1361:1362   */\n      0x00\n        /* \"#utility.yul\":1358:1359   */\n      dup1\n        /* \"#utility.yul\":1351:1363   */\n      revert\n        /* \"#utility.yul\":1302:1365   */\n    tag_48:\n        /* \"#utility.yul\":1249:1371   */\n      pop\n      jump\t// out\n\n    auxdata: 0xa264697066735822122065e915c5ffc28f8cbd0c461022c87f03997c87cbfbb1f9f256feab707975467a64736f6c63430008070033\n}\n",
				"bytecode": {
					"linkReferences": {},
					"object": "608060405234801561001057600080fd5b506101f2806100206000396000f3fe608060405234801561001057600080fd5b50600436106100415760003560e01c806316022cad146100465780637e9b64a414610076578063fd525cf514610092575b600080fd5b610060600480360381019061005b919061013f565b6100ae565b60405161006d919061017b565b60405180910390f35b610090600480360381019061008b919061013f565b6100d2565b005b6100ac60048036038101906100a7919061013f565b6100fe565b005b600081815481106100be57600080fd5b906000526020600020016000915090505481565b600081908060018154018082558091505060019003906000526020600020016000909190919091505550565b600081908060018154018082558091505060019003906000526020600020016000909190919091505550565b600081359050610139816101a5565b92915050565b600060208284031215610155576101546101a0565b5b60006101638482850161012a565b91505092915050565b61017581610196565b82525050565b6000602082019050610190600083018461016c565b92915050565b6000819050919050565b600080fd5b6101ae81610196565b81146101b957600080fd5b5056fea264697066735822122065e915c5ffc28f8cbd0c461022c87f03997c87cbfbb1f9f256feab707975467a64736f6c63430008070033",
					"opcodes": "PUSH1 0x80 PUSH1 0x40 MSTORE CALLVALUE DUP1 ISZERO PUSH2 0x10 JUMPI PUSH1 0x0 DUP1 REVERT JUMPDEST POP PUSH2 0x1F2 DUP1 PUSH2 0x20 PUSH1 0x0 CODECOPY PUSH1 0x0 RETURN INVALID PUSH1 0x80 PUSH1 0x40 MSTORE CALLVALUE DUP1 ISZERO PUSH2 0x10 JUMPI PUSH1 0x0 DUP1 REVERT JUMPDEST POP PUSH1 0x4 CALLDATASIZE LT PUSH2 0x41 JUMPI PUSH1 0x0 CALLDATALOAD PUSH1 0xE0 SHR DUP1 PUSH4 0x16022CAD EQ PUSH2 0x46 JUMPI DUP1 PUSH4 0x7E9B64A4 EQ PUSH2 0x76 JUMPI DUP1 PUSH4 0xFD525CF5 EQ PUSH2 0x92 JUMPI JUMPDEST PUSH1 0x0 DUP1 REVERT JUMPDEST PUSH2 0x60 PUSH1 0x4 DUP1 CALLDATASIZE SUB DUP2 ADD SWAP1 PUSH2 0x5B SWAP2 SWAP1 PUSH2 0x13F JUMP JUMPDEST PUSH2 0xAE JUMP JUMPDEST PUSH1 0x40 MLOAD PUSH2 0x6D SWAP2 SWAP1 PUSH2 0x17B JUMP JUMPDEST PUSH1 0x40 MLOAD DUP1 SWAP2 SUB SWAP1 RETURN JUMPDEST PUSH2 0x90 PUSH1 0x4 DUP1 CALLDATASIZE SUB DUP2 ADD SWAP1 PUSH2 0x8B SWAP2 SWAP1 PUSH2 0x13F JUMP JUMPDEST PUSH2 0xD2 JUMP JUMPDEST STOP JUMPDEST PUSH2 0xAC PUSH1 0x4 DUP1 CALLDATASIZE SUB DUP2 ADD SWAP1 PUSH2 0xA7 SWAP2 SWAP1 PUSH2 0x13F JUMP JUMPDEST PUSH2 0xFE JUMP JUMPDEST STOP JUMPDEST PUSH1 0x0 DUP2 DUP2 SLOAD DUP2 LT PUSH2 0xBE JUMPI PUSH1 0x0 DUP1 REVERT JUMPDEST SWAP1 PUSH1 0x0 MSTORE PUSH1 0x20 PUSH1 0x0 KECCAK256 ADD PUSH1 0x0 SWAP2 POP SWAP1 POP SLOAD DUP2 JUMP JUMPDEST PUSH1 0x0 DUP2 SWAP1 DUP1 PUSH1 0x1 DUP2 SLOAD ADD DUP1 DUP3 SSTORE DUP1 SWAP2 POP POP PUSH1 0x1 SWAP1 SUB SWAP1 PUSH1 0x0 MSTORE PUSH1 0x20 PUSH1 0x0 KECCAK256 ADD PUSH1 0x0 SWAP1 SWAP2 SWAP1 SWAP2 SWAP1 SWAP2 POP SSTORE POP JUMP JUMPDEST PUSH1 0x0 DUP2 SWAP1 DUP1 PUSH1 0x1 DUP2 SLOAD ADD DUP1 DUP3 SSTORE DUP1 SWAP2 POP POP PUSH1 0x1 SWAP1 SUB SWAP1 PUSH1 0x0 MSTORE PUSH1 0x20 PUSH1 0x0 KECCAK256 ADD PUSH1 0x0 SWAP1 SWAP2 SWAP1 SWAP2 SWAP1 SWAP2 POP SSTORE POP JUMP JUMPDEST PUSH1 0x0 DUP2 CALLDATALOAD SWAP1 POP PUSH2 0x139 DUP2 PUSH2 0x1A5 JUMP JUMPDEST SWAP3 SWAP2 POP POP JUMP JUMPDEST PUSH1 0x0 PUSH1 0x20 DUP3 DUP5 SUB SLT ISZERO PUSH2 0x155 JUMPI PUSH2 0x154 PUSH2 0x1A0 JUMP JUMPDEST JUMPDEST PUSH1 0x0 PUSH2 0x163 DUP5 DUP3 DUP6 ADD PUSH2 0x12A JUMP JUMPDEST SWAP2 POP POP SWAP3 SWAP2 POP POP JUMP JUMPDEST PUSH2 0x175 DUP2 PUSH2 0x196 JUMP JUMPDEST DUP3 MSTORE POP POP JUMP JUMPDEST PUSH1 0x0 PUSH1 0x20 DUP3 ADD SWAP1 POP PUSH2 0x190 PUSH1 0x0 DUP4 ADD DUP5 PUSH2 0x16C JUMP JUMPDEST SWAP3 SWAP2 POP POP JUMP JUMPDEST PUSH1 0x0 DUP2 SWAP1 POP SWAP2 SWAP1 POP JUMP JUMPDEST PUSH1 0x0 DUP1 REVERT JUMPDEST PUSH2 0x1AE DUP2 PUSH2 0x196 JUMP JUMPDEST DUP2 EQ PUSH2 0x1B9 JUMPI PUSH1 0x0 DUP1 REVERT JUMPDEST POP JUMP INVALID LOG2 PUSH5 0x6970667358 0x22 SLT KECCAK256 PUSH6 0xE915C5FFC28F DUP13 0xBD 0xC CHAINID LT 0x22 0xC8 PUSH32 0x3997C87CBFBB1F9F256FEAB707975467A64736F6C6343000807003300000000 "
				},
				"gasEstimates": {
					"creation": {
						"codeDepositCost": "99600",
						"executionCost": "147",
						"totalCost": "99747"
					},
					"external": {
						"dy_arr(uint256)": "infinite",
						"po_element(uint256)": "46829",
						"push_element(uint256)": "46851"
					}
				},
				"methodIdentifiers": {
					"dy_arr(uint256)": "16022cad",
					"po_element(uint256)": "7e9b64a4",
					"push_element(uint256)": "fd525cf5"
				}
			},
			"storageLayout": {
				"storage": [
					{
						"astId": 4,
						"contract": "dynamic_array.sol:dynamic_array",
						"label": "dy_arr",
						"offset": 0,
						"slot": "0",
						"type": "t_array(t_uint256)dyn_storage"
					}
				],
				"types": {
					"t_array(t_uint256)dyn_storage": {
						"base": "t_uint256",
						"encoding": "dynamic_array",
						"label": "uint256[]",
						"numberOfBytes": "32"
					},
					"t_uint256": {
						"encoding": "inplace",
						"label": "uint256",
						"numberOfBytes": "32"
					}
				}
			},
			"userdoc": {
				"kind": "user",
				"methods": {},
				"version": 1
			}
		}
	}
}