{
	"integers.sol": {
		"local": {
			"abi": [
				{
					"inputs": [],
					"name": "getmoney",
					"outputs": [
						{
							"internalType": "uint8",
							"name": "",
							"type": "uint8"
						}
					],
					"stateMutability": "view",
					"type": "function"
				}
			],
			"devdoc": {
				"kind": "dev",
				"methods": {},
				"version": 1
			},
			"evm": {
				"assembly": "    /* \"integers.sol\":73:225  contract local {... */\n  mstore(0x40, 0x80)\n    /* \"integers.sol\":106:107  5 */\n  0x05\n    /* \"integers.sol\":94:107  uint8 money=5 */\n  0x00\n  dup1\n  0x0100\n  exp\n  dup2\n  sload\n  dup2\n  0xff\n  mul\n  not\n  and\n  swap1\n  dup4\n  0xff\n  and\n  mul\n  or\n  swap1\n  sstore\n  pop\n    /* \"integers.sol\":129:133  -444 */\n  0xfffffffffffffffffffffffffffffffffffffffffffffffffffffffffffffe44\n    /* \"integers.sol\":113:133  int256 negmoney=-444 */\n  0x01\n  sstore\n    /* \"integers.sol\":73:225  contract local {... */\n  callvalue\n  dup1\n  iszero\n  tag_1\n  jumpi\n  0x00\n  dup1\n  revert\ntag_1:\n  pop\n  dataSize(sub_0)\n  dup1\n  dataOffset(sub_0)\n  0x00\n  codecopy\n  0x00\n  return\nstop\n\nsub_0: assembly {\n        /* \"integers.sol\":73:225  contract local {... */\n      mstore(0x40, 0x80)\n      callvalue\n      dup1\n      iszero\n      tag_1\n      jumpi\n      0x00\n      dup1\n      revert\n    tag_1:\n      pop\n      jumpi(tag_2, lt(calldatasize, 0x04))\n      shr(0xe0, calldataload(0x00))\n      dup1\n      0x822e7411\n      eq\n      tag_3\n      jumpi\n    tag_2:\n      0x00\n      dup1\n      revert\n        /* \"integers.sol\":141:223  function getmoney() public view returns (uint8)... */\n    tag_3:\n      tag_4\n      tag_5\n      jump\t// in\n    tag_4:\n      mload(0x40)\n      tag_6\n      swap2\n      swap1\n      tag_7\n      jump\t// in\n    tag_6:\n      mload(0x40)\n      dup1\n      swap2\n      sub\n      swap1\n      return\n    tag_5:\n        /* \"integers.sol\":182:187  uint8 */\n      0x00\n        /* \"integers.sol\":210:215  money */\n      dup1\n      0x00\n      swap1\n      sload\n      swap1\n      0x0100\n      exp\n      swap1\n      div\n      0xff\n      and\n        /* \"integers.sol\":203:215  return money */\n      swap1\n      pop\n        /* \"integers.sol\":141:223  function getmoney() public view returns (uint8)... */\n      swap1\n      jump\t// out\n        /* \"#utility.yul\":7:119   */\n    tag_10:\n        /* \"#utility.yul\":90:112   */\n      tag_12\n        /* \"#utility.yul\":106:111   */\n      dup2\n        /* \"#utility.yul\":90:112   */\n      tag_13\n      jump\t// in\n    tag_12:\n        /* \"#utility.yul\":85:88   */\n      dup3\n        /* \"#utility.yul\":78:113   */\n      mstore\n        /* \"#utility.yul\":7:119   */\n      pop\n      pop\n      jump\t// out\n        /* \"#utility.yul\":125:339   */\n    tag_7:\n        /* \"#utility.yul\":214:218   */\n      0x00\n        /* \"#utility.yul\":252:254   */\n      0x20\n        /* \"#utility.yul\":241:250   */\n      dup3\n        /* \"#utility.yul\":237:255   */\n      add\n        /* \"#utility.yul\":229:255   */\n      swap1\n      pop\n        /* \"#utility.yul\":265:332   */\n      tag_15\n        /* \"#utility.yul\":329:330   */\n      0x00\n        /* \"#utility.yul\":318:327   */\n      dup4\n        /* \"#utility.yul\":314:331   */\n      add\n        /* \"#utility.yul\":305:311   */\n      dup5\n        /* \"#utility.yul\":265:332   */\n      tag_10\n      jump\t// in\n    tag_15:\n        /* \"#utility.yul\":125:339   */\n      swap3\n      swap2\n      pop\n      pop\n      jump\t// out\n        /* \"#utility.yul\":345:431   */\n    tag_13:\n        /* \"#utility.yul\":380:387   */\n      0x00\n        /* \"#utility.yul\":420:424   */\n      0xff\n        /* \"#utility.yul\":413:418   */\n      dup3\n        /* \"#utility.yul\":409:425   */\n      and\n        /* \"#utility.yul\":398:425   */\n      swap1\n      pop\n        /* \"#utility.yul\":345:431   */\n      swap2\n      swap1\n      pop\n      jump\t// out\n\n    auxdata: 0xa2646970667358221220dd3bf94db9cfafb187689eed9485771f37342c09704e0268d5bfb01f5d9e345b64736f6c63430008070033\n}\n",
				"bytecode": {
					"linkReferences": {},
					"object": "608060405260056000806101000a81548160ff021916908360ff1602179055507ffffffffffffffffffffffffffffffffffffffffffffffffffffffffffffffe4460015534801561004f57600080fd5b5060c68061005e6000396000f3fe6080604052348015600f57600080fd5b506004361060285760003560e01c8063822e741114602d575b600080fd5b60336047565b604051603e9190606a565b60405180910390f35b60008060009054906101000a900460ff16905090565b6064816083565b82525050565b6000602082019050607d6000830184605d565b92915050565b600060ff8216905091905056fea2646970667358221220dd3bf94db9cfafb187689eed9485771f37342c09704e0268d5bfb01f5d9e345b64736f6c63430008070033",
					"opcodes": "PUSH1 0x80 PUSH1 0x40 MSTORE PUSH1 0x5 PUSH1 0x0 DUP1 PUSH2 0x100 EXP DUP2 SLOAD DUP2 PUSH1 0xFF MUL NOT AND SWAP1 DUP4 PUSH1 0xFF AND MUL OR SWAP1 SSTORE POP PUSH32 0xFFFFFFFFFFFFFFFFFFFFFFFFFFFFFFFFFFFFFFFFFFFFFFFFFFFFFFFFFFFFFE44 PUSH1 0x1 SSTORE CALLVALUE DUP1 ISZERO PUSH2 0x4F JUMPI PUSH1 0x0 DUP1 REVERT JUMPDEST POP PUSH1 0xC6 DUP1 PUSH2 0x5E PUSH1 0x0 CODECOPY PUSH1 0x0 RETURN INVALID PUSH1 0x80 PUSH1 0x40 MSTORE CALLVALUE DUP1 ISZERO PUSH1 0xF JUMPI PUSH1 0x0 DUP1 REVERT JUMPDEST POP PUSH1 0x4 CALLDATASIZE LT PUSH1 0x28 JUMPI PUSH1 0x0 CALLDATALOAD PUSH1 0xE0 SHR DUP1 PUSH4 0x822E7411 EQ PUSH1 0x2D JUMPI JUMPDEST PUSH1 0x0 DUP1 REVERT JUMPDEST PUSH1 0x33 PUSH1 0x47 JUMP JUMPDEST PUSH1 0x40 MLOAD PUSH1 0x3E SWAP2 SWAP1 PUSH1 0x6A JUMP JUMPDEST PUSH1 0x40 MLOAD DUP1 SWAP2 SUB SWAP1 RETURN JUMPDEST PUSH1 0x0 DUP1 PUSH1 0x0 SWAP1 SLOAD SWAP1 PUSH2 0x100 EXP SWAP1 DIV PUSH1 0xFF AND SWAP1 POP SWAP1 JUMP JUMPDEST PUSH1 0x64 DUP2 PUSH1 0x83 JUMP JUMPDEST DUP3 MSTORE POP POP JUMP JUMPDEST PUSH1 0x0 PUSH1 0x20 DUP3 ADD SWAP1 POP PUSH1 0x7D PUSH1 0x0 DUP4 ADD DUP5 PUSH1 0x5D JUMP JUMPDEST SWAP3 SWAP2 POP POP JUMP JUMPDEST PUSH1 0x0 PUSH1 0xFF DUP3 AND SWAP1 POP SWAP2 SWAP1 POP JUMP INVALID LOG2 PUSH5 0x6970667358 0x22 SLT KECCAK256 0xDD EXTCODESIZE 0xF9 0x4D 0xB9 0xCF 0xAF 0xB1 DUP8 PUSH9 0x9EED9485771F37342C MULMOD PUSH17 0x4E0268D5BFB01F5D9E345B64736F6C6343 STOP ADDMOD SMOD STOP CALLER "
				},
				"gasEstimates": {
					"creation": {
						"codeDepositCost": "39600",
						"executionCost": "46466",
						"totalCost": "86066"
					},
					"external": {
						"getmoney()": "2457"
					}
				},
				"methodIdentifiers": {
					"getmoney()": "822e7411"
				}
			},
			"storageLayout": {
				"storage": [
					{
						"astId": 4,
						"contract": "integers.sol:local",
						"label": "money",
						"offset": 0,
						"slot": "0",
						"type": "t_uint8"
					},
					{
						"astId": 8,
						"contract": "integers.sol:local",
						"label": "negmoney",
						"offset": 0,
						"slot": "1",
						"type": "t_int256"
					}
				],
				"types": {
					"t_int256": {
						"encoding": "inplace",
						"label": "int256",
						"numberOfBytes": "32"
					},
					"t_uint8": {
						"encoding": "inplace",
						"label": "uint8",
						"numberOfBytes": "1"
					}
				}
			},
			"userdoc": {
				"kind": "user",
				"methods": {},
				"version": 1
			}
		}
	}
}