{
	"struct.sol": {
		"data": {
			"abi": [
				{
					"inputs": [],
					"name": "s1",
					"outputs": [
						{
							"internalType": "uint256",
							"name": "rollno",
							"type": "uint256"
						},
						{
							"internalType": "uint256",
							"name": "seatno",
							"type": "uint256"
						},
						{
							"internalType": "string",
							"name": "name",
							"type": "string"
						}
					],
					"stateMutability": "view",
					"type": "function"
				}
			],
			"devdoc": {
				"kind": "dev",
				"methods": {},
				"version": 1
			},
			"evm": {
				"assembly": "    /* \"struct.sol\":145:185  contract data... */\n  mstore(0x40, 0x80)\n  callvalue\n  dup1\n  iszero\n  tag_1\n  jumpi\n  0x00\n  dup1\n  revert\ntag_1:\n  pop\n  dataSize(sub_0)\n  dup1\n  dataOffset(sub_0)\n  0x00\n  codecopy\n  0x00\n  return\nstop\n\nsub_0: assembly {\n        /* \"struct.sol\":145:185  contract data... */\n      mstore(0x40, 0x80)\n      callvalue\n      dup1\n      iszero\n      tag_1\n      jumpi\n      0x00\n      dup1\n      revert\n    tag_1:\n      pop\n      jumpi(tag_2, lt(calldatasize, 0x04))\n      shr(0xe0, calldataload(0x00))\n      dup1\n      0x6cc014de\n      eq\n      tag_3\n      jumpi\n    tag_2:\n      0x00\n      dup1\n      revert\n        /* \"struct.sol\":165:182  student public s1 */\n    tag_3:\n      tag_4\n      tag_5\n      jump\t// in\n    tag_4:\n      mload(0x40)\n      tag_6\n      swap4\n      swap3\n      swap2\n      swap1\n      tag_7\n      jump\t// in\n    tag_6:\n      mload(0x40)\n      dup1\n      swap2\n      sub\n      swap1\n      return\n    tag_5:\n      0x00\n      dup1\n      0x00\n      add\n      sload\n      swap1\n      dup1\n      0x01\n      add\n      sload\n      swap1\n      dup1\n      0x02\n      add\n      dup1\n      sload\n      tag_8\n      swap1\n      tag_9\n      jump\t// in\n    tag_8:\n      dup1\n      0x1f\n      add\n      0x20\n      dup1\n      swap2\n      div\n      mul\n      0x20\n      add\n      mload(0x40)\n      swap1\n      dup2\n      add\n      0x40\n      mstore\n      dup1\n      swap3\n      swap2\n      swap1\n      dup2\n      dup2\n      mstore\n      0x20\n      add\n      dup3\n      dup1\n      sload\n      tag_10\n      swap1\n      tag_9\n      jump\t// in\n    tag_10:\n      dup1\n      iszero\n      tag_11\n      jumpi\n      dup1\n      0x1f\n      lt\n      tag_12\n      jumpi\n      0x0100\n      dup1\n      dup4\n      sload\n      div\n      mul\n      dup4\n      mstore\n      swap2\n      0x20\n      add\n      swap2\n      jump(tag_11)\n    tag_12:\n      dup3\n      add\n      swap2\n      swap1\n      0x00\n      mstore\n      keccak256(0x00, 0x20)\n      swap1\n    tag_13:\n      dup2\n      sload\n      dup2\n      mstore\n      swap1\n      0x01\n      add\n      swap1\n      0x20\n      add\n      dup1\n      dup4\n      gt\n      tag_13\n      jumpi\n      dup3\n      swap1\n      sub\n      0x1f\n      and\n      dup3\n      add\n      swap2\n    tag_11:\n      pop\n      pop\n      pop\n      pop\n      pop\n      swap1\n      pop\n      dup4\n      jump\t// out\n        /* \"#utility.yul\":7:371   */\n    tag_15:\n        /* \"#utility.yul\":95:98   */\n      0x00\n        /* \"#utility.yul\":123:162   */\n      tag_17\n        /* \"#utility.yul\":156:161   */\n      dup3\n        /* \"#utility.yul\":123:162   */\n      tag_18\n      jump\t// in\n    tag_17:\n        /* \"#utility.yul\":178:249   */\n      tag_19\n        /* \"#utility.yul\":242:248   */\n      dup2\n        /* \"#utility.yul\":237:240   */\n      dup6\n        /* \"#utility.yul\":178:249   */\n      tag_20\n      jump\t// in\n    tag_19:\n        /* \"#utility.yul\":171:249   */\n      swap4\n      pop\n        /* \"#utility.yul\":258:310   */\n      tag_21\n        /* \"#utility.yul\":303:309   */\n      dup2\n        /* \"#utility.yul\":298:301   */\n      dup6\n        /* \"#utility.yul\":291:295   */\n      0x20\n        /* \"#utility.yul\":284:289   */\n      dup7\n        /* \"#utility.yul\":280:296   */\n      add\n        /* \"#utility.yul\":258:310   */\n      tag_22\n      jump\t// in\n    tag_21:\n        /* \"#utility.yul\":335:364   */\n      tag_23\n        /* \"#utility.yul\":357:363   */\n      dup2\n        /* \"#utility.yul\":335:364   */\n      tag_24\n      jump\t// in\n    tag_23:\n        /* \"#utility.yul\":330:333   */\n      dup5\n        /* \"#utility.yul\":326:365   */\n      add\n        /* \"#utility.yul\":319:365   */\n      swap2\n      pop\n        /* \"#utility.yul\":99:371   */\n      pop\n        /* \"#utility.yul\":7:371   */\n      swap3\n      swap2\n      pop\n      pop\n      jump\t// out\n        /* \"#utility.yul\":377:495   */\n    tag_25:\n        /* \"#utility.yul\":464:488   */\n      tag_27\n        /* \"#utility.yul\":482:487   */\n      dup2\n        /* \"#utility.yul\":464:488   */\n      tag_28\n      jump\t// in\n    tag_27:\n        /* \"#utility.yul\":459:462   */\n      dup3\n        /* \"#utility.yul\":452:489   */\n      mstore\n        /* \"#utility.yul\":377:495   */\n      pop\n      pop\n      jump\t// out\n        /* \"#utility.yul\":501:1034   */\n    tag_7:\n        /* \"#utility.yul\":670:674   */\n      0x00\n        /* \"#utility.yul\":708:710   */\n      0x60\n        /* \"#utility.yul\":697:706   */\n      dup3\n        /* \"#utility.yul\":693:711   */\n      add\n        /* \"#utility.yul\":685:711   */\n      swap1\n      pop\n        /* \"#utility.yul\":721:792   */\n      tag_30\n        /* \"#utility.yul\":789:790   */\n      0x00\n        /* \"#utility.yul\":778:787   */\n      dup4\n        /* \"#utility.yul\":774:791   */\n      add\n        /* \"#utility.yul\":765:771   */\n      dup7\n        /* \"#utility.yul\":721:792   */\n      tag_25\n      jump\t// in\n    tag_30:\n        /* \"#utility.yul\":802:874   */\n      tag_31\n        /* \"#utility.yul\":870:872   */\n      0x20\n        /* \"#utility.yul\":859:868   */\n      dup4\n        /* \"#utility.yul\":855:873   */\n      add\n        /* \"#utility.yul\":846:852   */\n      dup6\n        /* \"#utility.yul\":802:874   */\n      tag_25\n      jump\t// in\n    tag_31:\n        /* \"#utility.yul\":921:930   */\n      dup2\n        /* \"#utility.yul\":915:919   */\n      dup2\n        /* \"#utility.yul\":911:931   */\n      sub\n        /* \"#utility.yul\":906:908   */\n      0x40\n        /* \"#utility.yul\":895:904   */\n      dup4\n        /* \"#utility.yul\":891:909   */\n      add\n        /* \"#utility.yul\":884:932   */\n      mstore\n        /* \"#utility.yul\":949:1027   */\n      tag_32\n        /* \"#utility.yul\":1022:1026   */\n      dup2\n        /* \"#utility.yul\":1013:1019   */\n      dup5\n        /* \"#utility.yul\":949:1027   */\n      tag_15\n      jump\t// in\n    tag_32:\n        /* \"#utility.yul\":941:1027   */\n      swap1\n      pop\n        /* \"#utility.yul\":501:1034   */\n      swap5\n      swap4\n      pop\n      pop\n      pop\n      pop\n      jump\t// out\n        /* \"#utility.yul\":1040:1139   */\n    tag_18:\n        /* \"#utility.yul\":1092:1098   */\n      0x00\n        /* \"#utility.yul\":1126:1131   */\n      dup2\n        /* \"#utility.yul\":1120:1132   */\n      mload\n        /* \"#utility.yul\":1110:1132   */\n      swap1\n      pop\n        /* \"#utility.yul\":1040:1139   */\n      swap2\n      swap1\n      pop\n      jump\t// out\n        /* \"#utility.yul\":1145:1314   */\n    tag_20:\n        /* \"#utility.yul\":1229:1240   */\n      0x00\n        /* \"#utility.yul\":1263:1269   */\n      dup3\n        /* \"#utility.yul\":1258:1261   */\n      dup3\n        /* \"#utility.yul\":1251:1270   */\n      mstore\n        /* \"#utility.yul\":1303:1307   */\n      0x20\n        /* \"#utility.yul\":1298:1301   */\n      dup3\n        /* \"#utility.yul\":1294:1308   */\n      add\n        /* \"#utility.yul\":1279:1308   */\n      swap1\n      pop\n        /* \"#utility.yul\":1145:1314   */\n      swap3\n      swap2\n      pop\n      pop\n      jump\t// out\n        /* \"#utility.yul\":1320:1397   */\n    tag_28:\n        /* \"#utility.yul\":1357:1364   */\n      0x00\n        /* \"#utility.yul\":1386:1391   */\n      dup2\n        /* \"#utility.yul\":1375:1391   */\n      swap1\n      pop\n        /* \"#utility.yul\":1320:1397   */\n      swap2\n      swap1\n      pop\n      jump\t// out\n        /* \"#utility.yul\":1403:1710   */\n    tag_22:\n        /* \"#utility.yul\":1471:1472   */\n      0x00\n        /* \"#utility.yul\":1481:1594   */\n    tag_37:\n        /* \"#utility.yul\":1495:1501   */\n      dup4\n        /* \"#utility.yul\":1492:1493   */\n      dup2\n        /* \"#utility.yul\":1489:1502   */\n      lt\n        /* \"#utility.yul\":1481:1594   */\n      iszero\n      tag_39\n      jumpi\n        /* \"#utility.yul\":1580:1581   */\n      dup1\n        /* \"#utility.yul\":1575:1578   */\n      dup3\n        /* \"#utility.yul\":1571:1582   */\n      add\n        /* \"#utility.yul\":1565:1583   */\n      mload\n        /* \"#utility.yul\":1561:1562   */\n      dup2\n        /* \"#utility.yul\":1556:1559   */\n      dup5\n        /* \"#utility.yul\":1552:1563   */\n      add\n        /* \"#utility.yul\":1545:1584   */\n      mstore\n        /* \"#utility.yul\":1517:1519   */\n      0x20\n        /* \"#utility.yul\":1514:1515   */\n      dup2\n        /* \"#utility.yul\":1510:1520   */\n      add\n        /* \"#utility.yul\":1505:1520   */\n      swap1\n      pop\n        /* \"#utility.yul\":1481:1594   */\n      jump(tag_37)\n    tag_39:\n        /* \"#utility.yul\":1612:1618   */\n      dup4\n        /* \"#utility.yul\":1609:1610   */\n      dup2\n        /* \"#utility.yul\":1606:1619   */\n      gt\n        /* \"#utility.yul\":1603:1704   */\n      iszero\n      tag_40\n      jumpi\n        /* \"#utility.yul\":1692:1693   */\n      0x00\n        /* \"#utility.yul\":1683:1689   */\n      dup5\n        /* \"#utility.yul\":1678:1681   */\n      dup5\n        /* \"#utility.yul\":1674:1690   */\n      add\n        /* \"#utility.yul\":1667:1694   */\n      mstore\n        /* \"#utility.yul\":1603:1704   */\n    tag_40:\n        /* \"#utility.yul\":1452:1710   */\n      pop\n        /* \"#utility.yul\":1403:1710   */\n      pop\n      pop\n      pop\n      jump\t// out\n        /* \"#utility.yul\":1716:2036   */\n    tag_9:\n        /* \"#utility.yul\":1760:1766   */\n      0x00\n        /* \"#utility.yul\":1797:1798   */\n      0x02\n        /* \"#utility.yul\":1791:1795   */\n      dup3\n        /* \"#utility.yul\":1787:1799   */\n      div\n        /* \"#utility.yul\":1777:1799   */\n      swap1\n      pop\n        /* \"#utility.yul\":1844:1845   */\n      0x01\n        /* \"#utility.yul\":1838:1842   */\n      dup3\n        /* \"#utility.yul\":1834:1846   */\n      and\n        /* \"#utility.yul\":1865:1883   */\n      dup1\n        /* \"#utility.yul\":1855:1936   */\n      tag_42\n      jumpi\n        /* \"#utility.yul\":1921:1925   */\n      0x7f\n        /* \"#utility.yul\":1913:1919   */\n      dup3\n        /* \"#utility.yul\":1909:1926   */\n      and\n        /* \"#utility.yul\":1899:1926   */\n      swap2\n      pop\n        /* \"#utility.yul\":1855:1936   */\n    tag_42:\n        /* \"#utility.yul\":1983:1985   */\n      0x20\n        /* \"#utility.yul\":1975:1981   */\n      dup3\n        /* \"#utility.yul\":1972:1986   */\n      lt\n        /* \"#utility.yul\":1952:1970   */\n      dup2\n        /* \"#utility.yul\":1949:1987   */\n      eq\n        /* \"#utility.yul\":1946:2030   */\n      iszero\n      tag_43\n      jumpi\n        /* \"#utility.yul\":2002:2020   */\n      tag_44\n      tag_45\n      jump\t// in\n    tag_44:\n        /* \"#utility.yul\":1946:2030   */\n    tag_43:\n        /* \"#utility.yul\":1767:2036   */\n      pop\n        /* \"#utility.yul\":1716:2036   */\n      swap2\n      swap1\n      pop\n      jump\t// out\n        /* \"#utility.yul\":2042:2222   */\n    tag_45:\n        /* \"#utility.yul\":2090:2167   */\n      0x4e487b7100000000000000000000000000000000000000000000000000000000\n        /* \"#utility.yul\":2087:2088   */\n      0x00\n        /* \"#utility.yul\":2080:2168   */\n      mstore\n        /* \"#utility.yul\":2187:2191   */\n      0x22\n        /* \"#utility.yul\":2184:2185   */\n      0x04\n        /* \"#utility.yul\":2177:2192   */\n      mstore\n        /* \"#utility.yul\":2211:2215   */\n      0x24\n        /* \"#utility.yul\":2208:2209   */\n      0x00\n        /* \"#utility.yul\":2201:2216   */\n      revert\n        /* \"#utility.yul\":2228:2330   */\n    tag_24:\n        /* \"#utility.yul\":2269:2275   */\n      0x00\n        /* \"#utility.yul\":2320:2322   */\n      0x1f\n        /* \"#utility.yul\":2316:2323   */\n      not\n        /* \"#utility.yul\":2311:2313   */\n      0x1f\n        /* \"#utility.yul\":2304:2309   */\n      dup4\n        /* \"#utility.yul\":2300:2314   */\n      add\n        /* \"#utility.yul\":2296:2324   */\n      and\n        /* \"#utility.yul\":2286:2324   */\n      swap1\n      pop\n        /* \"#utility.yul\":2228:2330   */\n      swap2\n      swap1\n      pop\n      jump\t// out\n\n    auxdata: 0xa2646970667358221220a72cacd4c0ab141859f5216d5b9086f11f9190f21fe04b9ba42462cd0023e96364736f6c63430008070033\n}\n",
				"bytecode": {
					"linkReferences": {},
					"object": "608060405234801561001057600080fd5b50610277806100206000396000f3fe608060405234801561001057600080fd5b506004361061002b5760003560e01c80636cc014de14610030575b600080fd5b610038610050565b60405161004793929190610138565b60405180910390f35b600080600001549080600101549080600201805461006d906101cf565b80601f0160208091040260200160405190810160405280929190818152602001828054610099906101cf565b80156100e65780601f106100bb576101008083540402835291602001916100e6565b820191906000526020600020905b8154815290600101906020018083116100c957829003601f168201915b5050505050905083565b60006100fb82610176565b6101058185610181565b935061011581856020860161019c565b61011e81610230565b840191505092915050565b61013281610192565b82525050565b600060608201905061014d6000830186610129565b61015a6020830185610129565b818103604083015261016c81846100f0565b9050949350505050565b600081519050919050565b600082825260208201905092915050565b6000819050919050565b60005b838110156101ba57808201518184015260208101905061019f565b838111156101c9576000848401525b50505050565b600060028204905060018216806101e757607f821691505b602082108114156101fb576101fa610201565b5b50919050565b7f4e487b7100000000000000000000000000000000000000000000000000000000600052602260045260246000fd5b6000601f19601f830116905091905056fea2646970667358221220a72cacd4c0ab141859f5216d5b9086f11f9190f21fe04b9ba42462cd0023e96364736f6c63430008070033",
					"opcodes": "PUSH1 0x80 PUSH1 0x40 MSTORE CALLVALUE DUP1 ISZERO PUSH2 0x10 JUMPI PUSH1 0x0 DUP1 REVERT JUMPDEST POP PUSH2 0x277 DUP1 PUSH2 0x20 PUSH1 0x0 CODECOPY PUSH1 0x0 RETURN INVALID PUSH1 0x80 PUSH1 0x40 MSTORE CALLVALUE DUP1 ISZERO PUSH2 0x10 JUMPI PUSH1 0x0 DUP1 REVERT JUMPDEST POP PUSH1 0x4 CALLDATASIZE LT PUSH2 0x2B JUMPI PUSH1 0x0 CALLDATALOAD PUSH1 0xE0 SHR DUP1 PUSH4 0x6CC014DE EQ PUSH2 0x30 JUMPI JUMPDEST PUSH1 0x0 DUP1 REVERT JUMPDEST PUSH2 0x38 PUSH2 0x50 JUMP JUMPDEST PUSH1 0x40 MLOAD PUSH2 0x47 SWAP4 SWAP3 SWAP2 SWAP1 PUSH2 0x138 JUMP JUMPDEST PUSH1 0x40 MLOAD DUP1 SWAP2 SUB SWAP1 RETURN JUMPDEST PUSH1 0x0 DUP1 PUSH1 0x0 ADD SLOAD SWAP1 DUP1 PUSH1 0x1 ADD SLOAD SWAP1 DUP1 PUSH1 0x2 ADD DUP1 SLOAD PUSH2 0x6D SWAP1 PUSH2 0x1CF JUMP JUMPDEST DUP1 PUSH1 0x1F ADD PUSH1 0x20 DUP1 SWAP2 DIV MUL PUSH1 0x20 ADD PUSH1 0x40 MLOAD SWAP1 DUP2 ADD PUSH1 0x40 MSTORE DUP1 SWAP3 SWAP2 SWAP1 DUP2 DUP2 MSTORE PUSH1 0x20 ADD DUP3 DUP1 SLOAD PUSH2 0x99 SWAP1 PUSH2 0x1CF JUMP JUMPDEST DUP1 ISZERO PUSH2 0xE6 JUMPI DUP1 PUSH1 0x1F LT PUSH2 0xBB JUMPI PUSH2 0x100 DUP1 DUP4 SLOAD DIV MUL DUP4 MSTORE SWAP2 PUSH1 0x20 ADD SWAP2 PUSH2 0xE6 JUMP JUMPDEST DUP3 ADD SWAP2 SWAP1 PUSH1 0x0 MSTORE PUSH1 0x20 PUSH1 0x0 KECCAK256 SWAP1 JUMPDEST DUP2 SLOAD DUP2 MSTORE SWAP1 PUSH1 0x1 ADD SWAP1 PUSH1 0x20 ADD DUP1 DUP4 GT PUSH2 0xC9 JUMPI DUP3 SWAP1 SUB PUSH1 0x1F AND DUP3 ADD SWAP2 JUMPDEST POP POP POP POP POP SWAP1 POP DUP4 JUMP JUMPDEST PUSH1 0x0 PUSH2 0xFB DUP3 PUSH2 0x176 JUMP JUMPDEST PUSH2 0x105 DUP2 DUP6 PUSH2 0x181 JUMP JUMPDEST SWAP4 POP PUSH2 0x115 DUP2 DUP6 PUSH1 0x20 DUP7 ADD PUSH2 0x19C JUMP JUMPDEST PUSH2 0x11E DUP2 PUSH2 0x230 JUMP JUMPDEST DUP5 ADD SWAP2 POP POP SWAP3 SWAP2 POP POP JUMP JUMPDEST PUSH2 0x132 DUP2 PUSH2 0x192 JUMP JUMPDEST DUP3 MSTORE POP POP JUMP JUMPDEST PUSH1 0x0 PUSH1 0x60 DUP3 ADD SWAP1 POP PUSH2 0x14D PUSH1 0x0 DUP4 ADD DUP7 PUSH2 0x129 JUMP JUMPDEST PUSH2 0x15A PUSH1 0x20 DUP4 ADD DUP6 PUSH2 0x129 JUMP JUMPDEST DUP2 DUP2 SUB PUSH1 0x40 DUP4 ADD MSTORE PUSH2 0x16C DUP2 DUP5 PUSH2 0xF0 JUMP JUMPDEST SWAP1 POP SWAP5 SWAP4 POP POP POP POP JUMP JUMPDEST PUSH1 0x0 DUP2 MLOAD SWAP1 POP SWAP2 SWAP1 POP JUMP JUMPDEST PUSH1 0x0 DUP3 DUP3 MSTORE PUSH1 0x20 DUP3 ADD SWAP1 POP SWAP3 SWAP2 POP POP JUMP JUMPDEST PUSH1 0x0 DUP2 SWAP1 POP SWAP2 SWAP1 POP JUMP JUMPDEST PUSH1 0x0 JUMPDEST DUP4 DUP2 LT ISZERO PUSH2 0x1BA JUMPI DUP1 DUP3 ADD MLOAD DUP2 DUP5 ADD MSTORE PUSH1 0x20 DUP2 ADD SWAP1 POP PUSH2 0x19F JUMP JUMPDEST DUP4 DUP2 GT ISZERO PUSH2 0x1C9 JUMPI PUSH1 0x0 DUP5 DUP5 ADD MSTORE JUMPDEST POP POP POP POP JUMP JUMPDEST PUSH1 0x0 PUSH1 0x2 DUP3 DIV SWAP1 POP PUSH1 0x1 DUP3 AND DUP1 PUSH2 0x1E7 JUMPI PUSH1 0x7F DUP3 AND SWAP2 POP JUMPDEST PUSH1 0x20 DUP3 LT DUP2 EQ ISZERO PUSH2 0x1FB JUMPI PUSH2 0x1FA PUSH2 0x201 JUMP JUMPDEST JUMPDEST POP SWAP2 SWAP1 POP JUMP JUMPDEST PUSH32 0x4E487B7100000000000000000000000000000000000000000000000000000000 PUSH1 0x0 MSTORE PUSH1 0x22 PUSH1 0x4 MSTORE PUSH1 0x24 PUSH1 0x0 REVERT JUMPDEST PUSH1 0x0 PUSH1 0x1F NOT PUSH1 0x1F DUP4 ADD AND SWAP1 POP SWAP2 SWAP1 POP JUMP INVALID LOG2 PUSH5 0x6970667358 0x22 SLT KECCAK256 0xA7 0x2C 0xAC 0xD4 0xC0 0xAB EQ XOR MSIZE CREATE2 0x21 PUSH14 0x5B9086F11F9190F21FE04B9BA424 PUSH3 0xCD0023 0xE9 PUSH4 0x64736F6C PUSH4 0x43000807 STOP CALLER "
				},
				"gasEstimates": {
					"creation": {
						"codeDepositCost": "126200",
						"executionCost": "171",
						"totalCost": "126371"
					},
					"external": {
						"s1()": "infinite"
					}
				},
				"methodIdentifiers": {
					"s1()": "6cc014de"
				}
			},
			"storageLayout": {
				"storage": [
					{
						"astId": 11,
						"contract": "struct.sol:data",
						"label": "s1",
						"offset": 0,
						"slot": "0",
						"type": "t_struct(student)8_storage"
					}
				],
				"types": {
					"t_string_storage": {
						"encoding": "bytes",
						"label": "string",
						"numberOfBytes": "32"
					},
					"t_struct(student)8_storage": {
						"encoding": "inplace",
						"label": "struct student",
						"members": [
							{
								"astId": 3,
								"contract": "struct.sol:data",
								"label": "rollno",
								"offset": 0,
								"slot": "0",
								"type": "t_uint256"
							},
							{
								"astId": 5,
								"contract": "struct.sol:data",
								"label": "seatno",
								"offset": 0,
								"slot": "1",
								"type": "t_uint256"
							},
							{
								"astId": 7,
								"contract": "struct.sol:data",
								"label": "name",
								"offset": 0,
								"slot": "2",
								"type": "t_string_storage"
							}
						],
						"numberOfBytes": "96"
					},
					"t_uint256": {
						"encoding": "inplace",
						"label": "uint256",
						"numberOfBytes": "32"
					}
				}
			},
			"userdoc": {
				"kind": "user",
				"methods": {},
				"version": 1
			}
		}
	}
}