{
	"data": {
		"bytecode": {
			"linkReferences": {},
			"object": "608060405234801561001057600080fd5b506105dc806100206000396000f3fe608060405234801561001057600080fd5b50600436106100365760003560e01c80630c22cf411461003b578063f0ba844014610057575b600080fd5b610055600480360381019061005091906102f6565b610089565b005b610071600480360381019061006c91906102c9565b6100ef565b604051610080939291906103ad565b60405180910390f35b6040518060600160405280848152602001838152602001828152506000808581526020019081526020016000206000820151816000015560208201518160010190805190602001906100dc9291906101a1565b5060408201518160020155905050505050565b6000602052806000526040600020600091509050806000015490806001018054610118906104a9565b80601f0160208091040260200160405190810160405280929190818152602001828054610144906104a9565b80156101915780601f1061016657610100808354040283529160200191610191565b820191906000526020600020905b81548152906001019060200180831161017457829003601f168201915b5050505050908060020154905083565b8280546101ad906104a9565b90600052602060002090601f0160209004810192826101cf5760008555610216565b82601f106101e857805160ff1916838001178555610216565b82800160010185558215610216579182015b828111156102155782518255916020019190600101906101fa565b5b5090506102239190610227565b5090565b5b80821115610240576000816000905550600101610228565b5090565b600061025761025284610410565b6103eb565b9050828152602081018484840111156102735761027261056f565b5b61027e848285610467565b509392505050565b600082601f83011261029b5761029a61056a565b5b81356102ab848260208601610244565b91505092915050565b6000813590506102c38161058f565b92915050565b6000602082840312156102df576102de610579565b5b60006102ed848285016102b4565b91505092915050565b60008060006060848603121561030f5761030e610579565b5b600061031d868287016102b4565b935050602084013567ffffffffffffffff81111561033e5761033d610574565b5b61034a86828701610286565b925050604061035b868287016102b4565b9150509250925092565b600061037082610441565b61037a818561044c565b935061038a818560208601610476565b6103938161057e565b840191505092915050565b6103a78161045d565b82525050565b60006060820190506103c2600083018661039e565b81810360208301526103d48185610365565b90506103e3604083018461039e565b949350505050565b60006103f5610406565b905061040182826104db565b919050565b6000604051905090565b600067ffffffffffffffff82111561042b5761042a61053b565b5b6104348261057e565b9050602081019050919050565b600081519050919050565b600082825260208201905092915050565b6000819050919050565b82818337600083830152505050565b60005b83811015610494578082015181840152602081019050610479565b838111156104a3576000848401525b50505050565b600060028204905060018216806104c157607f821691505b602082108114156104d5576104d461050c565b5b50919050565b6104e48261057e565b810181811067ffffffffffffffff821117156105035761050261053b565b5b80604052505050565b7f4e487b7100000000000000000000000000000000000000000000000000000000600052602260045260246000fd5b7f4e487b7100000000000000000000000000000000000000000000000000000000600052604160045260246000fd5b600080fd5b600080fd5b600080fd5b600080fd5b6000601f19601f8301169050919050565b6105988161045d565b81146105a357600080fd5b5056fea264697066735822122065f41a144feefd892c6a37e7378c579b8ba7d206d56f7a6d120678effceb0d5b64736f6c63430008070033",
			"opcodes": "PUSH1 0x80 PUSH1 0x40 MSTORE CALLVALUE DUP1 ISZERO PUSH2 0x10 JUMPI PUSH1 0x0 DUP1 REVERT JUMPDEST POP PUSH2 0x5DC DUP1 PUSH2 0x20 PUSH1 0x0 CODECOPY PUSH1 0x0 RETURN INVALID PUSH1 0x80 PUSH1 0x40 MSTORE CALLVALUE DUP1 ISZERO PUSH2 0x10 JUMPI PUSH1 0x0 DUP1 REVERT JUMPDEST POP PUSH1 0x4 CALLDATASIZE LT PUSH2 0x36 JUMPI PUSH1 0x0 CALLDATALOAD PUSH1 0xE0 SHR DUP1 PUSH4 0xC22CF41 EQ PUSH2 0x3B JUMPI DUP1 PUSH4 0xF0BA8440 EQ PUSH2 0x57 JUMPI JUMPDEST PUSH1 0x0 DUP1 REVERT JUMPDEST PUSH2 0x55 PUSH1 0x4 DUP1 CALLDATASIZE SUB DUP2 ADD SWAP1 PUSH2 0x50 SWAP2 SWAP1 PUSH2 0x2F6 JUMP JUMPDEST PUSH2 0x89 JUMP JUMPDEST STOP JUMPDEST PUSH2 0x71 PUSH1 0x4 DUP1 CALLDATASIZE SUB DUP2 ADD SWAP1 PUSH2 0x6C SWAP2 SWAP1 PUSH2 0x2C9 JUMP JUMPDEST PUSH2 0xEF JUMP JUMPDEST PUSH1 0x40 MLOAD PUSH2 0x80 SWAP4 SWAP3 SWAP2 SWAP1 PUSH2 0x3AD JUMP JUMPDEST PUSH1 0x40 MLOAD DUP1 SWAP2 SUB SWAP1 RETURN JUMPDEST PUSH1 0x40 MLOAD DUP1 PUSH1 0x60 ADD PUSH1 0x40 MSTORE DUP1 DUP5 DUP2 MSTORE PUSH1 0x20 ADD DUP4 DUP2 MSTORE PUSH1 0x20 ADD DUP3 DUP2 MSTORE POP PUSH1 0x0 DUP1 DUP6 DUP2 MSTORE PUSH1 0x20 ADD SWAP1 DUP2 MSTORE PUSH1 0x20 ADD PUSH1 0x0 KECCAK256 PUSH1 0x0 DUP3 ADD MLOAD DUP2 PUSH1 0x0 ADD SSTORE PUSH1 0x20 DUP3 ADD MLOAD DUP2 PUSH1 0x1 ADD SWAP1 DUP1 MLOAD SWAP1 PUSH1 0x20 ADD SWAP1 PUSH2 0xDC SWAP3 SWAP2 SWAP1 PUSH2 0x1A1 JUMP JUMPDEST POP PUSH1 0x40 DUP3 ADD MLOAD DUP2 PUSH1 0x2 ADD SSTORE SWAP1 POP POP POP POP POP JUMP JUMPDEST PUSH1 0x0 PUSH1 0x20 MSTORE DUP1 PUSH1 0x0 MSTORE PUSH1 0x40 PUSH1 0x0 KECCAK256 PUSH1 0x0 SWAP2 POP SWAP1 POP DUP1 PUSH1 0x0 ADD SLOAD SWAP1 DUP1 PUSH1 0x1 ADD DUP1 SLOAD PUSH2 0x118 SWAP1 PUSH2 0x4A9 JUMP JUMPDEST DUP1 PUSH1 0x1F ADD PUSH1 0x20 DUP1 SWAP2 DIV MUL PUSH1 0x20 ADD PUSH1 0x40 MLOAD SWAP1 DUP2 ADD PUSH1 0x40 MSTORE DUP1 SWAP3 SWAP2 SWAP1 DUP2 DUP2 MSTORE PUSH1 0x20 ADD DUP3 DUP1 SLOAD PUSH2 0x144 SWAP1 PUSH2 0x4A9 JUMP JUMPDEST DUP1 ISZERO PUSH2 0x191 JUMPI DUP1 PUSH1 0x1F LT PUSH2 0x166 JUMPI PUSH2 0x100 DUP1 DUP4 SLOAD DIV MUL DUP4 MSTORE SWAP2 PUSH1 0x20 ADD SWAP2 PUSH2 0x191 JUMP JUMPDEST DUP3 ADD SWAP2 SWAP1 PUSH1 0x0 MSTORE PUSH1 0x20 PUSH1 0x0 KECCAK256 SWAP1 JUMPDEST DUP2 SLOAD DUP2 MSTORE SWAP1 PUSH1 0x1 ADD SWAP1 PUSH1 0x20 ADD DUP1 DUP4 GT PUSH2 0x174 JUMPI DUP3 SWAP1 SUB PUSH1 0x1F AND DUP3 ADD SWAP2 JUMPDEST POP POP POP POP POP SWAP1 DUP1 PUSH1 0x2 ADD SLOAD SWAP1 POP DUP4 JUMP JUMPDEST DUP3 DUP1 SLOAD PUSH2 0x1AD SWAP1 PUSH2 0x4A9 JUMP JUMPDEST SWAP1 PUSH1 0x0 MSTORE PUSH1 0x20 PUSH1 0x0 KECCAK256 SWAP1 PUSH1 0x1F ADD PUSH1 0x20 SWAP1 DIV DUP2 ADD SWAP3 DUP3 PUSH2 0x1CF JUMPI PUSH1 0x0 DUP6 SSTORE PUSH2 0x216 JUMP JUMPDEST DUP3 PUSH1 0x1F LT PUSH2 0x1E8 JUMPI DUP1 MLOAD PUSH1 0xFF NOT AND DUP4 DUP1 ADD OR DUP6 SSTORE PUSH2 0x216 JUMP JUMPDEST DUP3 DUP1 ADD PUSH1 0x1 ADD DUP6 SSTORE DUP3 ISZERO PUSH2 0x216 JUMPI SWAP2 DUP3 ADD JUMPDEST DUP3 DUP2 GT ISZERO PUSH2 0x215 JUMPI DUP3 MLOAD DUP3 SSTORE SWAP2 PUSH1 0x20 ADD SWAP2 SWAP1 PUSH1 0x1 ADD SWAP1 PUSH2 0x1FA JUMP JUMPDEST JUMPDEST POP SWAP1 POP PUSH2 0x223 SWAP2 SWAP1 PUSH2 0x227 JUMP JUMPDEST POP SWAP1 JUMP JUMPDEST JUMPDEST DUP1 DUP3 GT ISZERO PUSH2 0x240 JUMPI PUSH1 0x0 DUP2 PUSH1 0x0 SWAP1 SSTORE POP PUSH1 0x1 ADD PUSH2 0x228 JUMP JUMPDEST POP SWAP1 JUMP JUMPDEST PUSH1 0x0 PUSH2 0x257 PUSH2 0x252 DUP5 PUSH2 0x410 JUMP JUMPDEST PUSH2 0x3EB JUMP JUMPDEST SWAP1 POP DUP3 DUP2 MSTORE PUSH1 0x20 DUP2 ADD DUP5 DUP5 DUP5 ADD GT ISZERO PUSH2 0x273 JUMPI PUSH2 0x272 PUSH2 0x56F JUMP JUMPDEST JUMPDEST PUSH2 0x27E DUP5 DUP3 DUP6 PUSH2 0x467 JUMP JUMPDEST POP SWAP4 SWAP3 POP POP POP JUMP JUMPDEST PUSH1 0x0 DUP3 PUSH1 0x1F DUP4 ADD SLT PUSH2 0x29B JUMPI PUSH2 0x29A PUSH2 0x56A JUMP JUMPDEST JUMPDEST DUP2 CALLDATALOAD PUSH2 0x2AB DUP5 DUP3 PUSH1 0x20 DUP7 ADD PUSH2 0x244 JUMP JUMPDEST SWAP2 POP POP SWAP3 SWAP2 POP POP JUMP JUMPDEST PUSH1 0x0 DUP2 CALLDATALOAD SWAP1 POP PUSH2 0x2C3 DUP2 PUSH2 0x58F JUMP JUMPDEST SWAP3 SWAP2 POP POP JUMP JUMPDEST PUSH1 0x0 PUSH1 0x20 DUP3 DUP5 SUB SLT ISZERO PUSH2 0x2DF JUMPI PUSH2 0x2DE PUSH2 0x579 JUMP JUMPDEST JUMPDEST PUSH1 0x0 PUSH2 0x2ED DUP5 DUP3 DUP6 ADD PUSH2 0x2B4 JUMP JUMPDEST SWAP2 POP POP SWAP3 SWAP2 POP POP JUMP JUMPDEST PUSH1 0x0 DUP1 PUSH1 0x0 PUSH1 0x60 DUP5 DUP7 SUB SLT ISZERO PUSH2 0x30F JUMPI PUSH2 0x30E PUSH2 0x579 JUMP JUMPDEST JUMPDEST PUSH1 0x0 PUSH2 0x31D DUP7 DUP3 DUP8 ADD PUSH2 0x2B4 JUMP JUMPDEST SWAP4 POP POP PUSH1 0x20 DUP5 ADD CALLDATALOAD PUSH8 0xFFFFFFFFFFFFFFFF DUP2 GT ISZERO PUSH2 0x33E JUMPI PUSH2 0x33D PUSH2 0x574 JUMP JUMPDEST JUMPDEST PUSH2 0x34A DUP7 DUP3 DUP8 ADD PUSH2 0x286 JUMP JUMPDEST SWAP3 POP POP PUSH1 0x40 PUSH2 0x35B DUP7 DUP3 DUP8 ADD PUSH2 0x2B4 JUMP JUMPDEST SWAP2 POP POP SWAP3 POP SWAP3 POP SWAP3 JUMP JUMPDEST PUSH1 0x0 PUSH2 0x370 DUP3 PUSH2 0x441 JUMP JUMPDEST PUSH2 0x37A DUP2 DUP6 PUSH2 0x44C JUMP JUMPDEST SWAP4 POP PUSH2 0x38A DUP2 DUP6 PUSH1 0x20 DUP7 ADD PUSH2 0x476 JUMP JUMPDEST PUSH2 0x393 DUP2 PUSH2 0x57E JUMP JUMPDEST DUP5 ADD SWAP2 POP POP SWAP3 SWAP2 POP POP JUMP JUMPDEST PUSH2 0x3A7 DUP2 PUSH2 0x45D JUMP JUMPDEST DUP3 MSTORE POP POP JUMP JUMPDEST PUSH1 0x0 PUSH1 0x60 DUP3 ADD SWAP1 POP PUSH2 0x3C2 PUSH1 0x0 DUP4 ADD DUP7 PUSH2 0x39E JUMP JUMPDEST DUP2 DUP2 SUB PUSH1 0x20 DUP4 ADD MSTORE PUSH2 0x3D4 DUP2 DUP6 PUSH2 0x365 JUMP JUMPDEST SWAP1 POP PUSH2 0x3E3 PUSH1 0x40 DUP4 ADD DUP5 PUSH2 0x39E JUMP JUMPDEST SWAP5 SWAP4 POP POP POP POP JUMP JUMPDEST PUSH1 0x0 PUSH2 0x3F5 PUSH2 0x406 JUMP JUMPDEST SWAP1 POP PUSH2 0x401 DUP3 DUP3 PUSH2 0x4DB JUMP JUMPDEST SWAP2 SWAP1 POP JUMP JUMPDEST PUSH1 0x0 PUSH1 0x40 MLOAD SWAP1 POP SWAP1 JUMP JUMPDEST PUSH1 0x0 PUSH8 0xFFFFFFFFFFFFFFFF DUP3 GT ISZERO PUSH2 0x42B JUMPI PUSH2 0x42A PUSH2 0x53B JUMP JUMPDEST JUMPDEST PUSH2 0x434 DUP3 PUSH2 0x57E JUMP JUMPDEST SWAP1 POP PUSH1 0x20 DUP2 ADD SWAP1 POP SWAP2 SWAP1 POP JUMP JUMPDEST PUSH1 0x0 DUP2 MLOAD SWAP1 POP SWAP2 SWAP1 POP JUMP JUMPDEST PUSH1 0x0 DUP3 DUP3 MSTORE PUSH1 0x20 DUP3 ADD SWAP1 POP SWAP3 SWAP2 POP POP JUMP JUMPDEST PUSH1 0x0 DUP2 SWAP1 POP SWAP2 SWAP1 POP JUMP JUMPDEST DUP3 DUP2 DUP4 CALLDATACOPY PUSH1 0x0 DUP4 DUP4 ADD MSTORE POP POP POP JUMP JUMPDEST PUSH1 0x0 JUMPDEST DUP4 DUP2 LT ISZERO PUSH2 0x494 JUMPI DUP1 DUP3 ADD MLOAD DUP2 DUP5 ADD MSTORE PUSH1 0x20 DUP2 ADD SWAP1 POP PUSH2 0x479 JUMP JUMPDEST DUP4 DUP2 GT ISZERO PUSH2 0x4A3 JUMPI PUSH1 0x0 DUP5 DUP5 ADD MSTORE JUMPDEST POP POP POP POP JUMP JUMPDEST PUSH1 0x0 PUSH1 0x2 DUP3 DIV SWAP1 POP PUSH1 0x1 DUP3 AND DUP1 PUSH2 0x4C1 JUMPI PUSH1 0x7F DUP3 AND SWAP2 POP JUMPDEST PUSH1 0x20 DUP3 LT DUP2 EQ ISZERO PUSH2 0x4D5 JUMPI PUSH2 0x4D4 PUSH2 0x50C JUMP JUMPDEST JUMPDEST POP SWAP2 SWAP1 POP JUMP JUMPDEST PUSH2 0x4E4 DUP3 PUSH2 0x57E JUMP JUMPDEST DUP2 ADD DUP2 DUP2 LT PUSH8 0xFFFFFFFFFFFFFFFF DUP3 GT OR ISZERO PUSH2 0x503 JUMPI PUSH2 0x502 PUSH2 0x53B JUMP JUMPDEST JUMPDEST DUP1 PUSH1 0x40 MSTORE POP POP POP JUMP JUMPDEST PUSH32 0x4E487B7100000000000000000000000000000000000000000000000000000000 PUSH1 0x0 MSTORE PUSH1 0x22 PUSH1 0x4 MSTORE PUSH1 0x24 PUSH1 0x0 REVERT JUMPDEST PUSH32 0x4E487B7100000000000000000000000000000000000000000000000000000000 PUSH1 0x0 MSTORE PUSH1 0x41 PUSH1 0x4 MSTORE PUSH1 0x24 PUSH1 0x0 REVERT JUMPDEST PUSH1 0x0 DUP1 REVERT JUMPDEST PUSH1 0x0 DUP1 REVERT JUMPDEST PUSH1 0x0 DUP1 REVERT JUMPDEST PUSH1 0x0 DUP1 REVERT JUMPDEST PUSH1 0x0 PUSH1 0x1F NOT PUSH1 0x1F DUP4 ADD AND SWAP1 POP SWAP2 SWAP1 POP JUMP JUMPDEST PUSH2 0x598 DUP2 PUSH2 0x45D JUMP JUMPDEST DUP2 EQ PUSH2 0x5A3 JUMPI PUSH1 0x0 DUP1 REVERT JUMPDEST POP JUMP INVALID LOG2 PUSH5 0x6970667358 0x22 SLT KECCAK256 PUSH6 0xF41A144FEEFD DUP10 0x2C PUSH11 0x37E7378C579B8BA7D206D5 PUSH16 0x7A6D120678EFFCEB0D5B64736F6C6343 STOP ADDMOD SMOD STOP CALLER "
		},
		"gasEstimates": {
			"creation": {
				"codeDepositCost": "300000",
				"executionCost": "337",
				"totalCost": "300337"
			},
			"external": {
				"data(uint256)": "infinite",
				"setter(uint256,string,uint256)": "infinite"
			}
		},
		"methodIdentifiers": {
			"data(uint256)": "f0ba8440",
			"setter(uint256,string,uint256)": "0c22cf41"
		}
	},
	"abi": [
		{
			"inputs": [
				{
					"internalType": "uint256",
					"name": "",
					"type": "uint256"
				}
			],
			"name": "data",
			"outputs": [
				{
					"internalType": "uint256",
					"name": "rollno",
					"type": "uint256"
				},
				{
					"internalType": "string",
					"name": "name",
					"type": "string"
				},
				{
					"internalType": "uint256",
					"name": "class",
					"type": "uint256"
				}
			],
			"stateMutability": "view",
			"type": "function"
		},
		{
			"inputs": [
				{
					"internalType": "uint256",
					"name": "_rollno",
					"type": "uint256"
				},
				{
					"internalType": "string",
					"name": "_name",
					"type": "string"
				},
				{
					"internalType": "uint256",
					"name": "_class",
					"type": "uint256"
				}
			],
			"name": "setter",
			"outputs": [],
			"stateMutability": "nonpayable",
			"type": "function"
		}
	]
}